{
  "name": "random-15",
  "transaction": {
    "to": "0x2C4Ad0E9a08DD6fE31Ba497fd4a893A0C1fc6B34",
    "nonce": 252,
    "gasLimit": "0x50ef8434",
    "gasPrice": "0xd9ca73",
    "maxFeePerGas": "0x280244cd52ab",
    "maxPriorityFeePerGas": "0x143b17",
    "data": "0x59a1b826916e4a012ffaaf5e21251e27317a1f565a716b8ff184d8c689f93f5a7359abcbffd18d7bea36ee123ce5cddbbdd92d",
    "value": "0x6f9f",
    "accessList": [
      {
        "address": "0x3266CE0AB053240CE5d95993d420c6b9a1dA1fDC",
        "storageKeys": [
          "0xa0568d48a6cc9e0c92080dec2155382a276181f25c746da97f8199f3a8464211",
          "0x80b165a49183e897da692ca460c5c88a0597e5e4ad7b43471bac25bfd9a780e0",
          "0xa628e4d1cfbcc69964473b21b3df585f15eca27bdd2e0c0d7e2f1db3e2c0a1f8",
          "0x35167ab9f9061b5f986f5c960aebe912340a5a72935aa334afa8fbfe586d05b1"
        ]
      },
      {
        "address": "0xf199b9f871065E2E18291CdeC3BF7C1eD32FBa0a",
        "storageKeys": [
          "0xa0568d48a6cc9e0c92080dec2155382a276181f25c746da97f8199f3a8464211",
          "0x80b165a49183e897da692ca460c5c88a0597e5e4ad7b43471bac25bfd9a780e0",
          "0xa628e4d1cfbcc69964473b21b3df585f15eca27bdd2e0c0d7e2f1db3e2c0a1f8",
          "0x35167ab9f9061b5f986f5c960aebe912340a5a72935aa334afa8fbfe586d05b1"
        ]
      }
    ],
    "chainId": "0x18314c",
    "maxFeePerBlobGas": "0x81ec2df3d713c4",
    "blobVersionedHashes": [
      "0x01d63574eb4fd029b67d6233aeae60815e225597f647de565b8050d2b5a876b3",
      "0x01224249cfed8dce6d9785f85c2ca29b6496d91ca16dbafabf1581ef75f47b29",
      "0x01a4547275516123b7b2ea3413c57c4caea24441dd9956f7308f09b5bb0947df"
    ]
  },
  "privateKey": "0xffe260f37af5da6e4a18799bc6b7f0fab7d57bc456346bca7261a53cb04fb48d",
  "unsignedLegacy": "0xf85781fc83d9ca738450ef8434942c4ad0e9a08dd6fe31ba497fd4a893a0c1fc6b34826f9fb359a1b826916e4a012ffaaf5e21251e27317a1f565a716b8ff184d8c689f93f5a7359abcbffd18d7bea36ee123ce5cddbbdd92d",
  "unsignedEip155": "0xf85d81fc83d9ca738450ef8434942c4ad0e9a08dd6fe31ba497fd4a893a0c1fc6b34826f9fb359a1b826916e4a012ffaaf5e21251e27317a1f565a716b8ff184d8c689f93f5a7359abcbffd18d7bea36ee123ce5cddbbdd92d8318314c8080",
  "unsignedBerlin": "0x01f901988318314c81fc83d9ca738450ef8434942c4ad0e9a08dd6fe31ba497fd4a893a0c1fc6b34826f9fb359a1b826916e4a012ffaaf5e21251e27317a1f565a716b8ff184d8c689f93f5a7359abcbffd18d7bea36ee123ce5cddbbdd92df9013af89b943266ce0ab053240ce5d95993d420c6b9a1da1fdcf884a0a0568d48a6cc9e0c92080dec2155382a276181f25c746da97f8199f3a8464211a080b165a49183e897da692ca460c5c88a0597e5e4ad7b43471bac25bfd9a780e0a0a628e4d1cfbcc69964473b21b3df585f15eca27bdd2e0c0d7e2f1db3e2c0a1f8a035167ab9f9061b5f986f5c960aebe912340a5a72935aa334afa8fbfe586d05b1f89b94f199b9f871065e2e18291cdec3bf7c1ed32fba0af884a0a0568d48a6cc9e0c92080dec2155382a276181f25c746da97f8199f3a8464211a080b165a49183e897da692ca460c5c88a0597e5e4ad7b43471bac25bfd9a780e0a0a628e4d1cfbcc69964473b21b3df585f15eca27bdd2e0c0d7e2f1db3e2c0a1f8a035167ab9f9061b5f986f5c960aebe912340a5a72935aa334afa8fbfe586d05b1",
  "unsignedLondon": "0x02f9019f8318314c81fc83143b1786280244cd52ab8450ef8434942c4ad0e9a08dd6fe31ba497fd4a893a0c1fc6b34826f9fb359a1b826916e4a012ffaaf5e21251e27317a1f565a716b8ff184d8c689f93f5a7359abcbffd18d7bea36ee123ce5cddbbdd92df9013af89b943266ce0ab053240ce5d95993d420c6b9a1da1fdcf884a0a0568d48a6cc9e0c92080dec2155382a276181f25c746da97f8199f3a8464211a080b165a49183e897da692ca460c5c88a0597e5e4ad7b43471bac25bfd9a780e0a0a628e4d1cfbcc69964473b21b3df585f15eca27bdd2e0c0d7e2f1db3e2c0a1f8a035167ab9f9061b5f986f5c960aebe912340a5a72935aa334afa8fbfe586d05b1f89b94f199b9f871065e2e18291cdec3bf7c1ed32fba0af884a0a0568d48a6cc9e0c92080dec2155382a276181f25c746da97f8199f3a8464211a080b165a49183e897da692ca460c5c88a0597e5e4ad7b43471bac25bfd9a780e0a0a628e4d1cfbcc69964473b21b3df585f15eca27bdd2e0c0d7e2f1db3e2c0a1f8a035167ab9f9061b5f986f5c960aebe912340a5a72935aa334afa8fbfe586d05b1",
  "unsignedCancun": "0x03f9020c8318314c81fc83143b1786280244cd52ab8450ef8434942c4ad0e9a08dd6fe31ba497fd4a893a0c1fc6b34826f9fb359a1b826916e4a012ffaaf5e21251e27317a1f565a716b8ff184d8c689f93f5a7359abcbffd18d7bea36ee123ce5cddbbdd92df9013af89b943266ce0ab053240ce5d95993d420c6b9a1da1fdcf884a0a0568d48a6cc9e0c92080dec2155382a276181f25c746da97f8199f3a8464211a080b165a49183e897da692ca460c5c88a0597e5e4ad7b43471bac25bfd9a780e0a0a628e4d1cfbcc69964473b21b3df585f15eca27bdd2e0c0d7e2f1db3e2c0a1f8a035167ab9f9061b5f986f5c960aebe912340a5a72935aa334afa8fbfe586d05b1f89b94f199b9f871065e2e18291cdec3bf7c1ed32fba0af884a0a0568d48a6cc9e0c92080dec2155382a276181f25c746da97f8199f3a8464211a080b165a49183e897da692ca460c5c88a0597e5e4ad7b43471bac25bfd9a780e0a0a628e4d1cfbcc69964473b21b3df585f15eca27bdd2e0c0d7e2f1db3e2c0a1f8a035167ab9f9061b5f986f5c960aebe912340a5a72935aa334afa8fbfe586d05b18781ec2df3d713c4f863a001d63574eb4fd029b67d6233aeae60815e225597f647de565b8050d2b5a876b3a001224249cfed8dce6d9785f85c2ca29b6496d91ca16dbafabf1581ef75f47b29a001a4547275516123b7b2ea3413c57c4caea24441dd9956f7308f09b5bb0947df",
  "signedLegacy": "0xf89a81fc83d9ca738450ef8434942c4ad0e9a08dd6fe31ba497fd4a893a0c1fc6b34826f9fb359a1b826916e4a012ffaaf5e21251e27317a1f565a716b8ff184d8c689f93f5a7359abcbffd18d7bea36ee123ce5cddbbdd92d1ba0c32aaeca7f3f7d189f6493edfb99452baa5e5a4c3ba136275b92c28a722a59f7a07073e03733555ceb1a3479c3193cfac043530c657b1c26cf2d12ffac912d132d",
  "signedEip155": "0xf89d81fc83d9ca738450ef8434942c4ad0e9a08dd6fe31ba497fd4a893a0c1fc6b34826f9fb359a1b826916e4a012ffaaf5e21251e27317a1f565a716b8ff184d8c689f93f5a7359abcbffd18d7bea36ee123ce5cddbbdd92d833062bca02a5acf0ccf63515e394899176fdc70cfc880e8f34ba5199de5baa72e0dc11e8fa07560075eef0250df34dd68a1854864b219ab0972e96e3d70017b21f608c5e928",
  "signedBerlin": "0x01f901db8318314c81fc83d9ca738450ef8434942c4ad0e9a08dd6fe31ba497fd4a893a0c1fc6b34826f9fb359a1b826916e4a012ffaaf5e21251e27317a1f565a716b8ff184d8c689f93f5a7359abcbffd18d7bea36ee123ce5cddbbdd92df9013af89b943266ce0ab053240ce5d95993d420c6b9a1da1fdcf884a0a0568d48a6cc9e0c92080dec2155382a276181f25c746da97f8199f3a8464211a080b165a49183e897da692ca460c5c88a0597e5e4ad7b43471bac25bfd9a780e0a0a628e4d1cfbcc69964473b21b3df585f15eca27bdd2e0c0d7e2f1db3e2c0a1f8a035167ab9f9061b5f986f5c960aebe912340a5a72935aa334afa8fbfe586d05b1f89b94f199b9f871065e2e18291cdec3bf7c1ed32fba0af884a0a0568d48a6cc9e0c92080dec2155382a276181f25c746da97f8199f3a8464211a080b165a49183e897da692ca460c5c88a0597e5e4ad7b43471bac25bfd9a780e0a0a628e4d1cfbcc69964473b21b3df585f15eca27bdd2e0c0d7e2f1db3e2c0a1f8a035167ab9f9061b5f986f5c960aebe912340a5a72935aa334afa8fbfe586d05b101a0c46f5930fbf08b22c97615c2d8db15697dfa5d0a269bb91a9afd7ddb7ac44768a066e4c7ad9c783be0dd722b4b85dc6518892f8c632c09b2ec2c0980c84fb897b7",
  "signedLondon": "0x02f901e28318314c81fc83143b1786280244cd52ab8450ef8434942c4ad0e9a08dd6fe31ba497fd4a893a0c1fc6b34826f9fb359a1b826916e4a012ffaaf5e21251e27317a1f565a716b8ff184d8c689f93f5a7359abcbffd18d7bea36ee123ce5cddbbdd92df9013af89b943266ce0ab053240ce5d95993d420c6b9a1da1fdcf884a0a0568d48a6cc9e0c92080dec2155382a276181f25c746da97f8199f3a8464211a080b165a49183e897da692ca460c5c88a0597e5e4ad7b43471bac25bfd9a780e0a0a628e4d1cfbcc69964473b21b3df585f15eca27bdd2e0c0d7e2f1db3e2c0a1f8a035167ab9f9061b5f986f5c960aebe912340a5a72935aa334afa8fbfe586d05b1f89b94f199b9f871065e2e18291cdec3bf7c1ed32fba0af884a0a0568d48a6cc9e0c92080dec2155382a276181f25c746da97f8199f3a8464211a080b165a49183e897da692ca460c5c88a0597e5e4ad7b43471bac25bfd9a780e0a0a628e4d1cfbcc69964473b21b3df585f15eca27bdd2e0c0d7e2f1db3e2c0a1f8a035167ab9f9061b5f986f5c960aebe912340a5a72935aa334afa8fbfe586d05b180a0bdebff14388befbaf0d7c8509f82355aafd0cbdad7ba5d721fa6357e239cf380a06efc7089e04a05f4e52b43fb3799e6ebd9274128566e870efef293a9d8624271",
  "signedCancun": "0x03f9024f8318314c81fc83143b1786280244cd52ab8450ef8434942c4ad0e9a08dd6fe31ba497fd4a893a0c1fc6b34826f9fb359a1b826916e4a012ffaaf5e21251e27317a1f565a716b8ff184d8c689f93f5a7359abcbffd18d7bea36ee123ce5cddbbdd92df9013af89b943266ce0ab053240ce5d95993d420c6b9a1da1fdcf884a0a0568d48a6cc9e0c92080dec2155382a276181f25c746da97f8199f3a8464211a080b165a49183e897da692ca460c5c88a0597e5e4ad7b43471bac25bfd9a780e0a0a628e4d1cfbcc69964473b21b3df585f15eca27bdd2e0c0d7e2f1db3e2c0a1f8a035167ab9f9061b5f986f5c960aebe912340a5a72935aa334afa8fbfe586d05b1f89b94f199b9f871065e2e18291cdec3bf7c1ed32fba0af884a0a0568d48a6cc9e0c92080dec2155382a276181f25c746da97f8199f3a8464211a080b165a49183e897da692ca460c5c88a0597e5e4ad7b43471bac25bfd9a780e0a0a628e4d1cfbcc69964473b21b3df585f15eca27bdd2e0c0d7e2f1db3e2c0a1f8a035167ab9f9061b5f986f5c960aebe912340a5a72935aa334afa8fbfe586d05b18781ec2df3d713c4f863a001d63574eb4fd029b67d6233aeae60815e225597f647de565b8050d2b5a876b3a001224249cfed8dce6d9785f85c2ca29b6496d91ca16dbafabf1581ef75f47b29a001a4547275516123b7b2ea3413c57c4caea24441dd9956f7308f09b5bb0947df80a04214e832f45d5ba706f01b7dce5941397c8f0850ddfc30d0bf70e896e542bbd1a027208b27598709a564ca5981d54c0c3aa4b33b7c618de45f378576b229bf07f5",
  "signatureLegacy": {
    "r": "0xc32aaeca7f3f7d189f6493edfb99452baa5e5a4c3ba136275b92c28a722a59f7",
    "s": "0x7073e03733555ceb1a3479c3193cfac043530c657b1c26cf2d12ffac912d132d",
    "v": "0x1b"
  },
  "signatureEip155": {
    "r": "0x2a5acf0ccf63515e394899176fdc70cfc880e8f34ba5199de5baa72e0dc11e8f",
    "s": "0x7560075eef0250df34dd68a1854864b219ab0972e96e3d70017b21f608c5e928",
    "v": "0x3062bc"
  },
  "signatureBerlin": {
    "r": "0xc46f5930fbf08b22c97615c2d8db15697dfa5d0a269bb91a9afd7ddb7ac44768",
    "s": "0x66e4c7ad9c783be0dd722b4b85dc6518892f8c632c09b2ec2c0980c84fb897b7",
    "v": "0x1"
  },
  "signatureLondon": {
    "r": "0xbdebff14388befbaf0d7c8509f82355aafd0cbdad7ba5d721fa6357e239cf380",
    "s": "0x6efc7089e04a05f4e52b43fb3799e6ebd9274128566e870efef293a9d8624271",
    "v": "0x0"
  },
  "signatureCancun": {
    "r": "0x4214e832f45d5ba706f01b7dce5941397c8f0850ddfc30d0bf70e896e542bbd1",
    "s": "0x27208b27598709a564ca5981d54c0c3aa4b33b7c618de45f378576b229bf07f5",
    "v": "0x0"
  }
}
