{
  "name": "random-4",
  "transaction": {
    "to": "0xf5c58b3ac42d718024e914d90a0c17ceb4487f08",
    "nonce": 150,
    "gasLimit": "0x9b",
    "gasPrice": "0x75",
    "maxFeePerGas": "0xe092719aae8f72",
    "maxPriorityFeePerGas": "0x8da16d",
    "data": "0xfdcd0c62ddc8b8c99d6768d3fe3097a66b388998e8f6294b69c95751da898430b9c9e7b02602393a9dc2026918c7741f4097e1de373a5b8d884d02e66b06742b29cc539a22675f5713a1ba9d247b9c9eaabf54f9cb48cc8f7429c80c31b3cbfa8a",
    "value": "0x9c5b0d",
    "accessList": [],
    "chainId": "0x1008"
  },
  "privateKey": "0xaf7e4892d96c6cd39bb8048b699386b24539fb8fb078f67e190fd3703f972f55",
  "unsignedLegacy": "0xf881819675819b94f5c58b3ac42d718024e914d90a0c17ceb4487f08839c5b0db861fdcd0c62ddc8b8c99d6768d3fe3097a66b388998e8f6294b69c95751da898430b9c9e7b02602393a9dc2026918c7741f4097e1de373a5b8d884d02e66b06742b29cc539a22675f5713a1ba9d247b9c9eaabf54f9cb48cc8f7429c80c31b3cbfa8a",
  "unsignedEip155": "0xf886819675819b94f5c58b3ac42d718024e914d90a0c17ceb4487f08839c5b0db861fdcd0c62ddc8b8c99d6768d3fe3097a66b388998e8f6294b69c95751da898430b9c9e7b02602393a9dc2026918c7741f4097e1de373a5b8d884d02e66b06742b29cc539a22675f5713a1ba9d247b9c9eaabf54f9cb48cc8f7429c80c31b3cbfa8a8210088080",
  "unsignedBerlin": "0x01f885821008819675819b94f5c58b3ac42d718024e914d90a0c17ceb4487f08839c5b0db861fdcd0c62ddc8b8c99d6768d3fe3097a66b388998e8f6294b69c95751da898430b9c9e7b02602393a9dc2026918c7741f4097e1de373a5b8d884d02e66b06742b29cc539a22675f5713a1ba9d247b9c9eaabf54f9cb48cc8f7429c80c31b3cbfa8ac0",
  "unsignedLondon": "0x02f8908210088196838da16d87e092719aae8f72819b94f5c58b3ac42d718024e914d90a0c17ceb4487f08839c5b0db861fdcd0c62ddc8b8c99d6768d3fe3097a66b388998e8f6294b69c95751da898430b9c9e7b02602393a9dc2026918c7741f4097e1de373a5b8d884d02e66b06742b29cc539a22675f5713a1ba9d247b9c9eaabf54f9cb48cc8f7429c80c31b3cbfa8ac0",
  "signedLegacy": "0xf8c4819675819b94f5c58b3ac42d718024e914d90a0c17ceb4487f08839c5b0db861fdcd0c62ddc8b8c99d6768d3fe3097a66b388998e8f6294b69c95751da898430b9c9e7b02602393a9dc2026918c7741f4097e1de373a5b8d884d02e66b06742b29cc539a22675f5713a1ba9d247b9c9eaabf54f9cb48cc8f7429c80c31b3cbfa8a1ba0ee97886c83b41a03c4c207403dd9daa5993d0480ef6c47060a8c0cff2c7c7d6ea06de4202b249a3b4bd20b346f1b6dc21d9352b9c982b37d583a79410b454eabb9",
  "signedEip155": "0xf8c6819675819b94f5c58b3ac42d718024e914d90a0c17ceb4487f08839c5b0db861fdcd0c62ddc8b8c99d6768d3fe3097a66b388998e8f6294b69c95751da898430b9c9e7b02602393a9dc2026918c7741f4097e1de373a5b8d884d02e66b06742b29cc539a22675f5713a1ba9d247b9c9eaabf54f9cb48cc8f7429c80c31b3cbfa8a822034a05fce7c12aa1a504df86c49f81a9f3c1c3ac848d6da1f510bcaf43bfd8438b1f7a03e32730578baeddeb5a9a2f5cd6fa1de175fc03e0312b303610d8bb20f9271bb",
  "signedBerlin": "0x01f8c8821008819675819b94f5c58b3ac42d718024e914d90a0c17ceb4487f08839c5b0db861fdcd0c62ddc8b8c99d6768d3fe3097a66b388998e8f6294b69c95751da898430b9c9e7b02602393a9dc2026918c7741f4097e1de373a5b8d884d02e66b06742b29cc539a22675f5713a1ba9d247b9c9eaabf54f9cb48cc8f7429c80c31b3cbfa8ac001a09dc21fe72c27cfa0ed8a3554fc4b7e1af86ba6908fb420669f00a468bef16bfea036037ab15e0255d5896b5fee1043e22ca86418312456336524ec5c62a43582f6",
  "signedLondon": "0x02f8d38210088196838da16d87e092719aae8f72819b94f5c58b3ac42d718024e914d90a0c17ceb4487f08839c5b0db861fdcd0c62ddc8b8c99d6768d3fe3097a66b388998e8f6294b69c95751da898430b9c9e7b02602393a9dc2026918c7741f4097e1de373a5b8d884d02e66b06742b29cc539a22675f5713a1ba9d247b9c9eaabf54f9cb48cc8f7429c80c31b3cbfa8ac080a00d5903e65d36d18248f3b2c65459d627f82906f4c12c0242bcff46d530b77fd8a0754a051219a0bcc550384e0c50adbaf61dee5e94faf0bcadeeee2e6a89939758"
}
