{
  "name": "random-16",
  "transaction": {
    "to": "0xb26832F9Eebe1bb94cb67D5C6bABF358d15f834E",
    "nonce": 306,
    "gasLimit": "0xfb38",
    "gasPrice": "0x7029692f45",
    "maxFeePerGas": "0xf631d7b0a81f",
    "maxPriorityFeePerGas": "0xb5",
    "data": "0x3c5c6cbe06f0c46868590f0951afc1b55f38598f5caf4d2f811ed3bbb8a87de83f074bc2cf19ca7225a65533cbe03aed1f43fa7cd1ef178e1ec2de6076d3ec1a22729c8645de5442bc8e3c3c7781d68293d34ae667c247189089a4959ef7c0d35e4600be23b5b059629779",
    "value": "0xb3",
    "accessList": [
      {
        "address": "0x820A408021ed575Bd94e89AF5672C9C4FaAA93AD",
        "storageKeys": []
      }
    ],
    "chainId": "0x03",
    "maxFeePerBlobGas": "0x9b643a13",
    "blobVersionedHashes": [
      "0x0106f3b8583c3b187099347666d5b01b3ae85b5458a2291ca45884084bf8a728",
      "0x012d5ba14538fe600b4f258429247337527a13d6a28c3b4b445f00d3098df94f",
      "0x011a4647e1b61123ab33b318dff3609fc11da8c4cfa9abe25f99c41923a9f581",
      "0x01cb8b689043f5bdcc56fce5c26490ca28a88b0a2f53a6d1f51e3f298e65d295",
      "0x01531f010e1e10d3d3332b2caef340f0a6af1e366a98126ef035c3ce80b8a1db"
    ]
  },
  "privateKey": "0x504264c14141b98fdad31cff441c443d69458e4033c11eeb0b4928ce9452c5a1",
  "unsignedLegacy": "0xf890820132857029692f4582fb3894b26832f9eebe1bb94cb67d5c6babf358d15f834e81b3b86b3c5c6cbe06f0c46868590f0951afc1b55f38598f5caf4d2f811ed3bbb8a87de83f074bc2cf19ca7225a65533cbe03aed1f43fa7cd1ef178e1ec2de6076d3ec1a22729c8645de5442bc8e3c3c7781d68293d34ae667c247189089a4959ef7c0d35e4600be23b5b059629779",
  "unsignedEip155": "0xf893820132857029692f4582fb3894b26832f9eebe1bb94cb67d5c6babf358d15f834e81b3b86b3c5c6cbe06f0c46868590f0951afc1b55f38598f5caf4d2f811ed3bbb8a87de83f074bc2cf19ca7225a65533cbe03aed1f43fa7cd1ef178e1ec2de6076d3ec1a22729c8645de5442bc8e3c3c7781d68293d34ae667c247189089a4959ef7c0d35e4600be23b5b059629779038080",
  "unsignedBerlin": "0x01f8a903820132857029692f4582fb3894b26832f9eebe1bb94cb67d5c6babf358d15f834e81b3b86b3c5c6cbe06f0c46868590f0951afc1b55f38598f5caf4d2f811ed3bbb8a87de83f074bc2cf19ca7225a65533cbe03aed1f43fa7cd1ef178e1ec2de6076d3ec1a22729c8645de5442bc8e3c3c7781d68293d34ae667c247189089a4959ef7c0d35e4600be23b5b059629779d7d694820a408021ed575bd94e89af5672c9c4faaa93adc0",
  "unsignedLondon": "0x02f8ac0382013281b586f631d7b0a81f82fb3894b26832f9eebe1bb94cb67d5c6babf358d15f834e81b3b86b3c5c6cbe06f0c46868590f0951afc1b55f38598f5caf4d2f811ed3bbb8a87de83f074bc2cf19ca7225a65533cbe03aed1f43fa7cd1ef178e1ec2de6076d3ec1a22729c8645de5442bc8e3c3c7781d68293d34ae667c247189089a4959ef7c0d35e4600be23b5b059629779d7d694820a408021ed575bd94e89af5672c9c4faaa93adc0",
  "unsignedCancun": "0x03f901580382013281b586f631d7b0a81f82fb3894b26832f9eebe1bb94cb67d5c6babf358d15f834e81b3b86b3c5c6cbe06f0c46868590f0951afc1b55f38598f5caf4d2f811ed3bbb8a87de83f074bc2cf19ca7225a65533cbe03aed1f43fa7cd1ef178e1ec2de6076d3ec1a22729c8645de5442bc8e3c3c7781d68293d34ae667c247189089a4959ef7c0d35e4600be23b5b059629779d7d694820a408021ed575bd94e89af5672c9c4faaa93adc0849b643a13f8a5a00106f3b8583c3b187099347666d5b01b3ae85b5458a2291ca45884084bf8a728a0012d5ba14538fe600b4f258429247337527a13d6a28c3b4b445f00d3098df94fa0011a4647e1b61123ab33b318dff3609fc11da8c4cfa9abe25f99c41923a9f581a001cb8b689043f5bdcc56fce5c26490ca28a88b0a2f53a6d1f51e3f298e65d295a001531f010e1e10d3d3332b2caef340f0a6af1e366a98126ef035c3ce80b8a1db",
  "signedLegacy": "0xf8d3820132857029692f4582fb3894b26832f9eebe1bb94cb67d5c6babf358d15f834e81b3b86b3c5c6cbe06f0c46868590f0951afc1b55f38598f5caf4d2f811ed3bbb8a87de83f074bc2cf19ca7225a65533cbe03aed1f43fa7cd1ef178e1ec2de6076d3ec1a22729c8645de5442bc8e3c3c7781d68293d34ae667c247189089a4959ef7c0d35e4600be23b5b0596297791ca09eb445c3fb16cea6f435cca3fd89869351b0152442c77013ee2787ab9363c64fa012daa8f1bbc55ef013376a0b10a608634e9fe03ce051bcf11874132f4b37b1c1",
  "signedEip155": "0xf8d3820132857029692f4582fb3894b26832f9eebe1bb94cb67d5c6babf358d15f834e81b3b86b3c5c6cbe06f0c46868590f0951afc1b55f38598f5caf4d2f811ed3bbb8a87de83f074bc2cf19ca7225a65533cbe03aed1f43fa7cd1ef178e1ec2de6076d3ec1a22729c8645de5442bc8e3c3c7781d68293d34ae667c247189089a4959ef7c0d35e4600be23b5b05962977929a03aacb5053d4586e75d7c2f59a16aa559f1b335a1e5b81d5e04ee3f10370e0b78a00c4062ee9c4f3c10b72331bdbbe8b8f896cecaa7f79d291dca3cb6182473d6f3",
  "signedBerlin": "0x01f8ec03820132857029692f4582fb3894b26832f9eebe1bb94cb67d5c6babf358d15f834e81b3b86b3c5c6cbe06f0c46868590f0951afc1b55f38598f5caf4d2f811ed3bbb8a87de83f074bc2cf19ca7225a65533cbe03aed1f43fa7cd1ef178e1ec2de6076d3ec1a22729c8645de5442bc8e3c3c7781d68293d34ae667c247189089a4959ef7c0d35e4600be23b5b059629779d7d694820a408021ed575bd94e89af5672c9c4faaa93adc080a0cc30fef0ed85c2d3df5dae8321402cd6ee6cfec5778a191674d295a861be14b3a00874a36ad883e39d70744772063a504ff5887f020ece23afa159ec3d092f7dac",
  "signedLondon": "0x02f8ef0382013281b586f631d7b0a81f82fb3894b26832f9eebe1bb94cb67d5c6babf358d15f834e81b3b86b3c5c6cbe06f0c46868590f0951afc1b55f38598f5caf4d2f811ed3bbb8a87de83f074bc2cf19ca7225a65533cbe03aed1f43fa7cd1ef178e1ec2de6076d3ec1a22729c8645de5442bc8e3c3c7781d68293d34ae667c247189089a4959ef7c0d35e4600be23b5b059629779d7d694820a408021ed575bd94e89af5672c9c4faaa93adc080a0fe006607f7e8089cc51cafca96b281cd8c3a95d6f88a5a1175b3a8cc958b6b74a0105054c0d7d120b19d8eb03a67dccd82c2add7b8c04e6438fd30ab6e31cd4364",
  "signedCancun": "0x03f9019b0382013281b586f631d7b0a81f82fb3894b26832f9eebe1bb94cb67d5c6babf358d15f834e81b3b86b3c5c6cbe06f0c46868590f0951afc1b55f38598f5caf4d2f811ed3bbb8a87de83f074bc2cf19ca7225a65533cbe03aed1f43fa7cd1ef178e1ec2de6076d3ec1a22729c8645de5442bc8e3c3c7781d68293d34ae667c247189089a4959ef7c0d35e4600be23b5b059629779d7d694820a408021ed575bd94e89af5672c9c4faaa93adc0849b643a13f8a5a00106f3b8583c3b187099347666d5b01b3ae85b5458a2291ca45884084bf8a728a0012d5ba14538fe600b4f258429247337527a13d6a28c3b4b445f00d3098df94fa0011a4647e1b61123ab33b318dff3609fc11da8c4cfa9abe25f99c41923a9f581a001cb8b689043f5bdcc56fce5c26490ca28a88b0a2f53a6d1f51e3f298e65d295a001531f010e1e10d3d3332b2caef340f0a6af1e366a98126ef035c3ce80b8a1db80a0bbe878a38e5cf8d2e439fe021d2063d07b41b2a2ffe78edde5e50ae8c908c6dfa00386dfa5733210ac6b5fb0ddc0fdd493190417ddbd8573c3db375b811b59f970",
  "signatureLegacy": {
    "r": "0x9eb445c3fb16cea6f435cca3fd89869351b0152442c77013ee2787ab9363c64f",
    "s": "0x12daa8f1bbc55ef013376a0b10a608634e9fe03ce051bcf11874132f4b37b1c1",
    "v": "0x1c"
  },
  "signatureEip155": {
    "r": "0x3aacb5053d4586e75d7c2f59a16aa559f1b335a1e5b81d5e04ee3f10370e0b78",
    "s": "0x0c4062ee9c4f3c10b72331bdbbe8b8f896cecaa7f79d291dca3cb6182473d6f3",
    "v": "0x29"
  },
  "signatureBerlin": {
    "r": "0xcc30fef0ed85c2d3df5dae8321402cd6ee6cfec5778a191674d295a861be14b3",
    "s": "0x0874a36ad883e39d70744772063a504ff5887f020ece23afa159ec3d092f7dac",
    "v": "0x0"
  },
  "signatureLondon": {
    "r": "0xfe006607f7e8089cc51cafca96b281cd8c3a95d6f88a5a1175b3a8cc958b6b74",
    "s": "0x105054c0d7d120b19d8eb03a67dccd82c2add7b8c04e6438fd30ab6e31cd4364",
    "v": "0x0"
  },
  "signatureCancun": {
    "r": "0xbbe878a38e5cf8d2e439fe021d2063d07b41b2a2ffe78edde5e50ae8c908c6df",
    "s": "0x0386dfa5733210ac6b5fb0ddc0fdd493190417ddbd8573c3db375b811b59f970",
    "v": "0x0"
  }
}
