{
  "name": "random-13",
  "transaction": {
    "to": "0x02CA24BF68010E087C89FBBBBA726265f75F453f",
    "nonce": 230,
    "gasLimit": "0x9b",
    "gasPrice": "0xee0c40da",
    "maxFeePerGas": "0x6911bd4911",
    "maxPriorityFeePerGas": "0x8d",
    "data": "0x9057177cbea0fcc2e52f03fd99ae750cd5e1df00a897ae7cc0a37f609358089d09690aa727fc2a5514964930ebcdfaa64d48ca730848ba3bdf55dfafcdbc2615fcc0aff5b5804bc592b4a9129b30858f7e56d895e655ee66b8d39a5fd8e22590fec373b18c",
    "value": "0xe5cf3dc063",
    "accessList": [
      {
        "address": "0x9a39070F38D75E2c56dbb0f5992F87D4B8c4516f",
        "storageKeys": [
          "0x5a2edcbe00c7f2a4054eb642539fc70f3b18e636eee4a800a307d1b38bf2cf6f",
          "0xbb923a5c3ae3b14becbfc2ce1f9bcac3ac7f9e529bf121ebe45589f97ea7a5d6",
          "0x573a0bef0d2674001e858247d3fe613ca0c17a6b733979e6516af7fa8ef3ab63"
        ]
      },
      {
        "address": "0x727e5f27d18F70fDA8F234082421872B68C3Dda0",
        "storageKeys": [
          "0x5a2edcbe00c7f2a4054eb642539fc70f3b18e636eee4a800a307d1b38bf2cf6f",
          "0xbb923a5c3ae3b14becbfc2ce1f9bcac3ac7f9e529bf121ebe45589f97ea7a5d6",
          "0x573a0bef0d2674001e858247d3fe613ca0c17a6b733979e6516af7fa8ef3ab63"
        ]
      },
      {
        "address": "0x81df03F5cd0f415eAB92E0593998Dd288B02d583",
        "storageKeys": [
          "0x5a2edcbe00c7f2a4054eb642539fc70f3b18e636eee4a800a307d1b38bf2cf6f",
          "0xbb923a5c3ae3b14becbfc2ce1f9bcac3ac7f9e529bf121ebe45589f97ea7a5d6",
          "0x573a0bef0d2674001e858247d3fe613ca0c17a6b733979e6516af7fa8ef3ab63"
        ]
      },
      {
        "address": "0x3C465948C080239deECAbc2b8A7fccbe4130B3E6",
        "storageKeys": [
          "0x5a2edcbe00c7f2a4054eb642539fc70f3b18e636eee4a800a307d1b38bf2cf6f",
          "0xbb923a5c3ae3b14becbfc2ce1f9bcac3ac7f9e529bf121ebe45589f97ea7a5d6",
          "0x573a0bef0d2674001e858247d3fe613ca0c17a6b733979e6516af7fa8ef3ab63"
        ]
      }
    ],
    "chainId": "0x2a",
    "maxFeePerBlobGas": "0x8d5e0eac8355",
    "blobVersionedHashes": [
      "0x014fe494c02bd67264c92caae4891a3b0888fdc0bd520c0872ba0d540991d2ef"
    ]
  },
  "privateKey": "0x70dae63ff96bc4831355131fc24468c3e57dbac4c0a82334953baa752df10cff",
  "unsignedLegacy": "0xf88b81e684ee0c40da819b9402ca24bf68010e087c89fbbbba726265f75f453f85e5cf3dc063b8659057177cbea0fcc2e52f03fd99ae750cd5e1df00a897ae7cc0a37f609358089d09690aa727fc2a5514964930ebcdfaa64d48ca730848ba3bdf55dfafcdbc2615fcc0aff5b5804bc592b4a9129b30858f7e56d895e655ee66b8d39a5fd8e22590fec373b18c",
  "unsignedEip155": "0xf88e81e684ee0c40da819b9402ca24bf68010e087c89fbbbba726265f75f453f85e5cf3dc063b8659057177cbea0fcc2e52f03fd99ae750cd5e1df00a897ae7cc0a37f609358089d09690aa727fc2a5514964930ebcdfaa64d48ca730848ba3bdf55dfafcdbc2615fcc0aff5b5804bc592b4a9129b30858f7e56d895e655ee66b8d39a5fd8e22590fec373b18c2a8080",
  "unsignedBerlin": "0x01f9027f2a81e684ee0c40da819b9402ca24bf68010e087c89fbbbba726265f75f453f85e5cf3dc063b8659057177cbea0fcc2e52f03fd99ae750cd5e1df00a897ae7cc0a37f609358089d09690aa727fc2a5514964930ebcdfaa64d48ca730848ba3bdf55dfafcdbc2615fcc0aff5b5804bc592b4a9129b30858f7e56d895e655ee66b8d39a5fd8e22590fec373b18cf901f0f87a949a39070f38d75e2c56dbb0f5992f87d4b8c4516ff863a05a2edcbe00c7f2a4054eb642539fc70f3b18e636eee4a800a307d1b38bf2cf6fa0bb923a5c3ae3b14becbfc2ce1f9bcac3ac7f9e529bf121ebe45589f97ea7a5d6a0573a0bef0d2674001e858247d3fe613ca0c17a6b733979e6516af7fa8ef3ab63f87a94727e5f27d18f70fda8f234082421872b68c3dda0f863a05a2edcbe00c7f2a4054eb642539fc70f3b18e636eee4a800a307d1b38bf2cf6fa0bb923a5c3ae3b14becbfc2ce1f9bcac3ac7f9e529bf121ebe45589f97ea7a5d6a0573a0bef0d2674001e858247d3fe613ca0c17a6b733979e6516af7fa8ef3ab63f87a9481df03f5cd0f415eab92e0593998dd288b02d583f863a05a2edcbe00c7f2a4054eb642539fc70f3b18e636eee4a800a307d1b38bf2cf6fa0bb923a5c3ae3b14becbfc2ce1f9bcac3ac7f9e529bf121ebe45589f97ea7a5d6a0573a0bef0d2674001e858247d3fe613ca0c17a6b733979e6516af7fa8ef3ab63f87a943c465948c080239deecabc2b8a7fccbe4130b3e6f863a05a2edcbe00c7f2a4054eb642539fc70f3b18e636eee4a800a307d1b38bf2cf6fa0bb923a5c3ae3b14becbfc2ce1f9bcac3ac7f9e529bf121ebe45589f97ea7a5d6a0573a0bef0d2674001e858247d3fe613ca0c17a6b733979e6516af7fa8ef3ab63",
  "unsignedLondon": "0x02f902822a81e6818d856911bd4911819b9402ca24bf68010e087c89fbbbba726265f75f453f85e5cf3dc063b8659057177cbea0fcc2e52f03fd99ae750cd5e1df00a897ae7cc0a37f609358089d09690aa727fc2a5514964930ebcdfaa64d48ca730848ba3bdf55dfafcdbc2615fcc0aff5b5804bc592b4a9129b30858f7e56d895e655ee66b8d39a5fd8e22590fec373b18cf901f0f87a949a39070f38d75e2c56dbb0f5992f87d4b8c4516ff863a05a2edcbe00c7f2a4054eb642539fc70f3b18e636eee4a800a307d1b38bf2cf6fa0bb923a5c3ae3b14becbfc2ce1f9bcac3ac7f9e529bf121ebe45589f97ea7a5d6a0573a0bef0d2674001e858247d3fe613ca0c17a6b733979e6516af7fa8ef3ab63f87a94727e5f27d18f70fda8f234082421872b68c3dda0f863a05a2edcbe00c7f2a4054eb642539fc70f3b18e636eee4a800a307d1b38bf2cf6fa0bb923a5c3ae3b14becbfc2ce1f9bcac3ac7f9e529bf121ebe45589f97ea7a5d6a0573a0bef0d2674001e858247d3fe613ca0c17a6b733979e6516af7fa8ef3ab63f87a9481df03f5cd0f415eab92e0593998dd288b02d583f863a05a2edcbe00c7f2a4054eb642539fc70f3b18e636eee4a800a307d1b38bf2cf6fa0bb923a5c3ae3b14becbfc2ce1f9bcac3ac7f9e529bf121ebe45589f97ea7a5d6a0573a0bef0d2674001e858247d3fe613ca0c17a6b733979e6516af7fa8ef3ab63f87a943c465948c080239deecabc2b8a7fccbe4130b3e6f863a05a2edcbe00c7f2a4054eb642539fc70f3b18e636eee4a800a307d1b38bf2cf6fa0bb923a5c3ae3b14becbfc2ce1f9bcac3ac7f9e529bf121ebe45589f97ea7a5d6a0573a0bef0d2674001e858247d3fe613ca0c17a6b733979e6516af7fa8ef3ab63",
  "unsignedCancun": "0x03f902ab2a81e6818d856911bd4911819b9402ca24bf68010e087c89fbbbba726265f75f453f85e5cf3dc063b8659057177cbea0fcc2e52f03fd99ae750cd5e1df00a897ae7cc0a37f609358089d09690aa727fc2a5514964930ebcdfaa64d48ca730848ba3bdf55dfafcdbc2615fcc0aff5b5804bc592b4a9129b30858f7e56d895e655ee66b8d39a5fd8e22590fec373b18cf901f0f87a949a39070f38d75e2c56dbb0f5992f87d4b8c4516ff863a05a2edcbe00c7f2a4054eb642539fc70f3b18e636eee4a800a307d1b38bf2cf6fa0bb923a5c3ae3b14becbfc2ce1f9bcac3ac7f9e529bf121ebe45589f97ea7a5d6a0573a0bef0d2674001e858247d3fe613ca0c17a6b733979e6516af7fa8ef3ab63f87a94727e5f27d18f70fda8f234082421872b68c3dda0f863a05a2edcbe00c7f2a4054eb642539fc70f3b18e636eee4a800a307d1b38bf2cf6fa0bb923a5c3ae3b14becbfc2ce1f9bcac3ac7f9e529bf121ebe45589f97ea7a5d6a0573a0bef0d2674001e858247d3fe613ca0c17a6b733979e6516af7fa8ef3ab63f87a9481df03f5cd0f415eab92e0593998dd288b02d583f863a05a2edcbe00c7f2a4054eb642539fc70f3b18e636eee4a800a307d1b38bf2cf6fa0bb923a5c3ae3b14becbfc2ce1f9bcac3ac7f9e529bf121ebe45589f97ea7a5d6a0573a0bef0d2674001e858247d3fe613ca0c17a6b733979e6516af7fa8ef3ab63f87a943c465948c080239deecabc2b8a7fccbe4130b3e6f863a05a2edcbe00c7f2a4054eb642539fc70f3b18e636eee4a800a307d1b38bf2cf6fa0bb923a5c3ae3b14becbfc2ce1f9bcac3ac7f9e529bf121ebe45589f97ea7a5d6a0573a0bef0d2674001e858247d3fe613ca0c17a6b733979e6516af7fa8ef3ab63868d5e0eac8355e1a0014fe494c02bd67264c92caae4891a3b0888fdc0bd520c0872ba0d540991d2ef",
  "signedLegacy": "0xf8ce81e684ee0c40da819b9402ca24bf68010e087c89fbbbba726265f75f453f85e5cf3dc063b8659057177cbea0fcc2e52f03fd99ae750cd5e1df00a897ae7cc0a37f609358089d09690aa727fc2a5514964930ebcdfaa64d48ca730848ba3bdf55dfafcdbc2615fcc0aff5b5804bc592b4a9129b30858f7e56d895e655ee66b8d39a5fd8e22590fec373b18c1ca01f91e4f825a52eb8bbaa3be1cb1cb861857cf6d0db05543a91f4e201afe63634a030680d1f0dec57bf64f8fa85a835fcfca06aa5108c7a46b60df9da8572518087",
  "signedEip155": "0xf8ce81e684ee0c40da819b9402ca24bf68010e087c89fbbbba726265f75f453f85e5cf3dc063b8659057177cbea0fcc2e52f03fd99ae750cd5e1df00a897ae7cc0a37f609358089d09690aa727fc2a5514964930ebcdfaa64d48ca730848ba3bdf55dfafcdbc2615fcc0aff5b5804bc592b4a9129b30858f7e56d895e655ee66b8d39a5fd8e22590fec373b18c78a05cb862c473f3dfdeaa0e8520291cb4ba8c3a62550a6ca0e404d51ef8791cf7f8a052d4ad17f007fa089126d119c609adb461436fd4e07640c0fc487bb444caea99",
  "signedBerlin": "0x01f902c22a81e684ee0c40da819b9402ca24bf68010e087c89fbbbba726265f75f453f85e5cf3dc063b8659057177cbea0fcc2e52f03fd99ae750cd5e1df00a897ae7cc0a37f609358089d09690aa727fc2a5514964930ebcdfaa64d48ca730848ba3bdf55dfafcdbc2615fcc0aff5b5804bc592b4a9129b30858f7e56d895e655ee66b8d39a5fd8e22590fec373b18cf901f0f87a949a39070f38d75e2c56dbb0f5992f87d4b8c4516ff863a05a2edcbe00c7f2a4054eb642539fc70f3b18e636eee4a800a307d1b38bf2cf6fa0bb923a5c3ae3b14becbfc2ce1f9bcac3ac7f9e529bf121ebe45589f97ea7a5d6a0573a0bef0d2674001e858247d3fe613ca0c17a6b733979e6516af7fa8ef3ab63f87a94727e5f27d18f70fda8f234082421872b68c3dda0f863a05a2edcbe00c7f2a4054eb642539fc70f3b18e636eee4a800a307d1b38bf2cf6fa0bb923a5c3ae3b14becbfc2ce1f9bcac3ac7f9e529bf121ebe45589f97ea7a5d6a0573a0bef0d2674001e858247d3fe613ca0c17a6b733979e6516af7fa8ef3ab63f87a9481df03f5cd0f415eab92e0593998dd288b02d583f863a05a2edcbe00c7f2a4054eb642539fc70f3b18e636eee4a800a307d1b38bf2cf6fa0bb923a5c3ae3b14becbfc2ce1f9bcac3ac7f9e529bf121ebe45589f97ea7a5d6a0573a0bef0d2674001e858247d3fe613ca0c17a6b733979e6516af7fa8ef3ab63f87a943c465948c080239deecabc2b8a7fccbe4130b3e6f863a05a2edcbe00c7f2a4054eb642539fc70f3b18e636eee4a800a307d1b38bf2cf6fa0bb923a5c3ae3b14becbfc2ce1f9bcac3ac7f9e529bf121ebe45589f97ea7a5d6a0573a0bef0d2674001e858247d3fe613ca0c17a6b733979e6516af7fa8ef3ab6301a04f2bb0a31a56bb2b1aed5089f7a05c1dd10d759fafdc07ad9ed698885981412ba0042167f0f1ba66c56f1b39f5ab4ad95442cf98c2e4b0a4066f4995b22a663bf3",
  "signedLondon": "0x02f902c52a81e6818d856911bd4911819b9402ca24bf68010e087c89fbbbba726265f75f453f85e5cf3dc063b8659057177cbea0fcc2e52f03fd99ae750cd5e1df00a897ae7cc0a37f609358089d09690aa727fc2a5514964930ebcdfaa64d48ca730848ba3bdf55dfafcdbc2615fcc0aff5b5804bc592b4a9129b30858f7e56d895e655ee66b8d39a5fd8e22590fec373b18cf901f0f87a949a39070f38d75e2c56dbb0f5992f87d4b8c4516ff863a05a2edcbe00c7f2a4054eb642539fc70f3b18e636eee4a800a307d1b38bf2cf6fa0bb923a5c3ae3b14becbfc2ce1f9bcac3ac7f9e529bf121ebe45589f97ea7a5d6a0573a0bef0d2674001e858247d3fe613ca0c17a6b733979e6516af7fa8ef3ab63f87a94727e5f27d18f70fda8f234082421872b68c3dda0f863a05a2edcbe00c7f2a4054eb642539fc70f3b18e636eee4a800a307d1b38bf2cf6fa0bb923a5c3ae3b14becbfc2ce1f9bcac3ac7f9e529bf121ebe45589f97ea7a5d6a0573a0bef0d2674001e858247d3fe613ca0c17a6b733979e6516af7fa8ef3ab63f87a9481df03f5cd0f415eab92e0593998dd288b02d583f863a05a2edcbe00c7f2a4054eb642539fc70f3b18e636eee4a800a307d1b38bf2cf6fa0bb923a5c3ae3b14becbfc2ce1f9bcac3ac7f9e529bf121ebe45589f97ea7a5d6a0573a0bef0d2674001e858247d3fe613ca0c17a6b733979e6516af7fa8ef3ab63f87a943c465948c080239deecabc2b8a7fccbe4130b3e6f863a05a2edcbe00c7f2a4054eb642539fc70f3b18e636eee4a800a307d1b38bf2cf6fa0bb923a5c3ae3b14becbfc2ce1f9bcac3ac7f9e529bf121ebe45589f97ea7a5d6a0573a0bef0d2674001e858247d3fe613ca0c17a6b733979e6516af7fa8ef3ab6301a03fd00e5a6b50a78f53922d62a73777ccfe7695f1e6e30f8be33323119bc2c0efa0050ac86674b894e33b3292bb153eb1fbefa4efdaf5775eba835391477f6831c4",
  "signedCancun": "0x03f902ee2a81e6818d856911bd4911819b9402ca24bf68010e087c89fbbbba726265f75f453f85e5cf3dc063b8659057177cbea0fcc2e52f03fd99ae750cd5e1df00a897ae7cc0a37f609358089d09690aa727fc2a5514964930ebcdfaa64d48ca730848ba3bdf55dfafcdbc2615fcc0aff5b5804bc592b4a9129b30858f7e56d895e655ee66b8d39a5fd8e22590fec373b18cf901f0f87a949a39070f38d75e2c56dbb0f5992f87d4b8c4516ff863a05a2edcbe00c7f2a4054eb642539fc70f3b18e636eee4a800a307d1b38bf2cf6fa0bb923a5c3ae3b14becbfc2ce1f9bcac3ac7f9e529bf121ebe45589f97ea7a5d6a0573a0bef0d2674001e858247d3fe613ca0c17a6b733979e6516af7fa8ef3ab63f87a94727e5f27d18f70fda8f234082421872b68c3dda0f863a05a2edcbe00c7f2a4054eb642539fc70f3b18e636eee4a800a307d1b38bf2cf6fa0bb923a5c3ae3b14becbfc2ce1f9bcac3ac7f9e529bf121ebe45589f97ea7a5d6a0573a0bef0d2674001e858247d3fe613ca0c17a6b733979e6516af7fa8ef3ab63f87a9481df03f5cd0f415eab92e0593998dd288b02d583f863a05a2edcbe00c7f2a4054eb642539fc70f3b18e636eee4a800a307d1b38bf2cf6fa0bb923a5c3ae3b14becbfc2ce1f9bcac3ac7f9e529bf121ebe45589f97ea7a5d6a0573a0bef0d2674001e858247d3fe613ca0c17a6b733979e6516af7fa8ef3ab63f87a943c465948c080239deecabc2b8a7fccbe4130b3e6f863a05a2edcbe00c7f2a4054eb642539fc70f3b18e636eee4a800a307d1b38bf2cf6fa0bb923a5c3ae3b14becbfc2ce1f9bcac3ac7f9e529bf121ebe45589f97ea7a5d6a0573a0bef0d2674001e858247d3fe613ca0c17a6b733979e6516af7fa8ef3ab63868d5e0eac8355e1a0014fe494c02bd67264c92caae4891a3b0888fdc0bd520c0872ba0d540991d2ef01a061188dabcd2879c18c49f3f83cb4663d597da58f856390b87921f64182ea9745a0757d18b772ff141ddff69196b2755bd76ef422a102a3a0fa1ca68b2e901b468c",
  "signatureLegacy": {
    "r": "0x1f91e4f825a52eb8bbaa3be1cb1cb861857cf6d0db05543a91f4e201afe63634",
    "s": "0x30680d1f0dec57bf64f8fa85a835fcfca06aa5108c7a46b60df9da8572518087",
    "v": "0x1c"
  },
  "signatureEip155": {
    "r": "0x5cb862c473f3dfdeaa0e8520291cb4ba8c3a62550a6ca0e404d51ef8791cf7f8",
    "s": "0x52d4ad17f007fa089126d119c609adb461436fd4e07640c0fc487bb444caea99",
    "v": "0x78"
  },
  "signatureBerlin": {
    "r": "0x4f2bb0a31a56bb2b1aed5089f7a05c1dd10d759fafdc07ad9ed698885981412b",
    "s": "0x042167f0f1ba66c56f1b39f5ab4ad95442cf98c2e4b0a4066f4995b22a663bf3",
    "v": "0x1"
  },
  "signatureLondon": {
    "r": "0x3fd00e5a6b50a78f53922d62a73777ccfe7695f1e6e30f8be33323119bc2c0ef",
    "s": "0x050ac86674b894e33b3292bb153eb1fbefa4efdaf5775eba835391477f6831c4",
    "v": "0x1"
  },
  "signatureCancun": {
    "r": "0x61188dabcd2879c18c49f3f83cb4663d597da58f856390b87921f64182ea9745",
    "s": "0x757d18b772ff141ddff69196b2755bd76ef422a102a3a0fa1ca68b2e901b468c",
    "v": "0x1"
  }
}
