{
  "name": "random-8",
  "transaction": {
    "to": "0x74a3ddaa5cd03ba0e9b7cd5535bda1e23f691932",
    "nonce": 965,
    "gasLimit": "0x",
    "gasPrice": "0x9c",
    "maxFeePerGas": "0xac8f05d0",
    "maxPriorityFeePerGas": "0x07ef",
    "data": "0x3ed7aea0deb886b7c4964ed0cebae0f12c2cbb2adadd2b7ef1b2183c1d5df71354ba8da3bff86e14975031ee08b2239ded1369a235c68a72cc994af2744f70a7214babec31160cd6f142a3a62ec77abf473eafa7c51a6c2938773134",
    "value": "0x24",
    "accessList": [
      {
        "address": "0xe125f9d848135f52ecc65fcf216146541688f4ec",
        "storageKeys": []
      }
    ],
    "chainId": "0x9f"
  },
  "privateKey": "0xbcc0a8d59a4ebe22dbcc8a52e2975f634f6e3095716602f08e214e4017684180",
  "unsignedLegacy": "0xf87a8203c5819c809474a3ddaa5cd03ba0e9b7cd5535bda1e23f69193224b85c3ed7aea0deb886b7c4964ed0cebae0f12c2cbb2adadd2b7ef1b2183c1d5df71354ba8da3bff86e14975031ee08b2239ded1369a235c68a72cc994af2744f70a7214babec31160cd6f142a3a62ec77abf473eafa7c51a6c2938773134",
  "unsignedEip155": "0xf87e8203c5819c809474a3ddaa5cd03ba0e9b7cd5535bda1e23f69193224b85c3ed7aea0deb886b7c4964ed0cebae0f12c2cbb2adadd2b7ef1b2183c1d5df71354ba8da3bff86e14975031ee08b2239ded1369a235c68a72cc994af2744f70a7214babec31160cd6f142a3a62ec77abf473eafa7c51a6c2938773134819f8080",
  "unsignedBerlin": "0x01f894819f8203c5819c809474a3ddaa5cd03ba0e9b7cd5535bda1e23f69193224b85c3ed7aea0deb886b7c4964ed0cebae0f12c2cbb2adadd2b7ef1b2183c1d5df71354ba8da3bff86e14975031ee08b2239ded1369a235c68a72cc994af2744f70a7214babec31160cd6f142a3a62ec77abf473eafa7c51a6c2938773134d7d694e125f9d848135f52ecc65fcf216146541688f4ecc0",
  "unsignedLondon": "0x02f89a819f8203c58207ef84ac8f05d0809474a3ddaa5cd03ba0e9b7cd5535bda1e23f69193224b85c3ed7aea0deb886b7c4964ed0cebae0f12c2cbb2adadd2b7ef1b2183c1d5df71354ba8da3bff86e14975031ee08b2239ded1369a235c68a72cc994af2744f70a7214babec31160cd6f142a3a62ec77abf473eafa7c51a6c2938773134d7d694e125f9d848135f52ecc65fcf216146541688f4ecc0",
  "signedLegacy": "0xf8bd8203c5819c809474a3ddaa5cd03ba0e9b7cd5535bda1e23f69193224b85c3ed7aea0deb886b7c4964ed0cebae0f12c2cbb2adadd2b7ef1b2183c1d5df71354ba8da3bff86e14975031ee08b2239ded1369a235c68a72cc994af2744f70a7214babec31160cd6f142a3a62ec77abf473eafa7c51a6c29387731341ca03989b06ec7aa162df7280707b849048f7845a5db84fdaf5099cdbece4d77a32ca03bb8ef07cc502103f9cf88ea1683b5ae61cd8e665064d03b3be1f9710c24bad7",
  "signedEip155": "0xf8bf8203c5819c809474a3ddaa5cd03ba0e9b7cd5535bda1e23f69193224b85c3ed7aea0deb886b7c4964ed0cebae0f12c2cbb2adadd2b7ef1b2183c1d5df71354ba8da3bff86e14975031ee08b2239ded1369a235c68a72cc994af2744f70a7214babec31160cd6f142a3a62ec77abf473eafa7c51a6c2938773134820162a0dc15afddd3dbc4b29882713a3571c6ade056720ce9c3e111ee8443f1e0b289cea006a04753d7f6e711c986751c82676579a27321d3f252ccef978dcff5f8c7e97f",
  "signedBerlin": "0x01f8d7819f8203c5819c809474a3ddaa5cd03ba0e9b7cd5535bda1e23f69193224b85c3ed7aea0deb886b7c4964ed0cebae0f12c2cbb2adadd2b7ef1b2183c1d5df71354ba8da3bff86e14975031ee08b2239ded1369a235c68a72cc994af2744f70a7214babec31160cd6f142a3a62ec77abf473eafa7c51a6c2938773134d7d694e125f9d848135f52ecc65fcf216146541688f4ecc080a0c9bcd21fc9672d011eb46bf0b48c362a2588c48520862e87d89914d9295fd4cfa05b24a794cf9ec9528114e8a8310ec5fd3c9b9fb9bcf51b0f0070dfa395ad1c59",
  "signedLondon": "0x02f8dd819f8203c58207ef84ac8f05d0809474a3ddaa5cd03ba0e9b7cd5535bda1e23f69193224b85c3ed7aea0deb886b7c4964ed0cebae0f12c2cbb2adadd2b7ef1b2183c1d5df71354ba8da3bff86e14975031ee08b2239ded1369a235c68a72cc994af2744f70a7214babec31160cd6f142a3a62ec77abf473eafa7c51a6c2938773134d7d694e125f9d848135f52ecc65fcf216146541688f4ecc080a0670b68b0aa3c8c66b76c69f340980486649499db3cf26245abfa13d8124fb138a018e3205967e9e01483d2ef8e78286c48a667213dc9b0393b24949f44eb23a06a"
}
