{
  "name": "random-18",
  "transaction": {
    "to": "0x0bbe326563703D26cB074Ef29Ed04404Ab1Fd0cC",
    "nonce": 503,
    "gasLimit": "0xa5cdc1",
    "gasPrice": "0x2a",
    "maxFeePerGas": "0x52b5f1114c1a",
    "maxPriorityFeePerGas": "0x59d1ad",
    "data": "0xb477bf440adf79ace31d2590393c7bbd5c191c2e40b4523e94b9c75afce3a871",
    "value": "0x8a1d",
    "accessList": [
      {
        "address": "0x47421DbF48444B1c15748fFB721AC9b341c35347",
        "storageKeys": [
          "0x1e4e2be542b128bf053d245b5efe9be008785740189d3b5b2324a395630c3279",
          "0xed8dbc976b685b16dc203291d38dd688d247ae09d2fea99189d5171ddcd7c90e",
          "0x4ba4902e9df30d2ea5dc662cfa7887d327dc09fcd28d3dbf5c64f5e78f5e599b"
        ]
      }
    ],
    "chainId": "0x27",
    "maxFeePerBlobGas": "0x6a1ab8a28e74c2",
    "blobVersionedHashes": [
      "0x0135a251a4d47cbb2e3ec7eab672f3505d49261cb433895e559539ba21441daa",
      "0x0125f41da5f8e7146e8e5e4508967f0379dd4ae378ddf56f6f379814c056913a"
    ]
  },
  "privateKey": "0xea795d7cacc6025f7bd6650aedd689f688617f9d8ca86236fa8ca5e654b767c4",
  "unsignedLegacy": "0xf8418201f72a83a5cdc1940bbe326563703d26cb074ef29ed04404ab1fd0cc828a1da0b477bf440adf79ace31d2590393c7bbd5c191c2e40b4523e94b9c75afce3a871",
  "unsignedEip155": "0xf8448201f72a83a5cdc1940bbe326563703d26cb074ef29ed04404ab1fd0cc828a1da0b477bf440adf79ace31d2590393c7bbd5c191c2e40b4523e94b9c75afce3a871278080",
  "unsignedBerlin": "0x01f8c0278201f72a83a5cdc1940bbe326563703d26cb074ef29ed04404ab1fd0cc828a1da0b477bf440adf79ace31d2590393c7bbd5c191c2e40b4523e94b9c75afce3a871f87cf87a9447421dbf48444b1c15748ffb721ac9b341c35347f863a01e4e2be542b128bf053d245b5efe9be008785740189d3b5b2324a395630c3279a0ed8dbc976b685b16dc203291d38dd688d247ae09d2fea99189d5171ddcd7c90ea04ba4902e9df30d2ea5dc662cfa7887d327dc09fcd28d3dbf5c64f5e78f5e599b",
  "unsignedLondon": "0x02f8ca278201f78359d1ad8652b5f1114c1a83a5cdc1940bbe326563703d26cb074ef29ed04404ab1fd0cc828a1da0b477bf440adf79ace31d2590393c7bbd5c191c2e40b4523e94b9c75afce3a871f87cf87a9447421dbf48444b1c15748ffb721ac9b341c35347f863a01e4e2be542b128bf053d245b5efe9be008785740189d3b5b2324a395630c3279a0ed8dbc976b685b16dc203291d38dd688d247ae09d2fea99189d5171ddcd7c90ea04ba4902e9df30d2ea5dc662cfa7887d327dc09fcd28d3dbf5c64f5e78f5e599b",
  "unsignedCancun": "0x03f90116278201f78359d1ad8652b5f1114c1a83a5cdc1940bbe326563703d26cb074ef29ed04404ab1fd0cc828a1da0b477bf440adf79ace31d2590393c7bbd5c191c2e40b4523e94b9c75afce3a871f87cf87a9447421dbf48444b1c15748ffb721ac9b341c35347f863a01e4e2be542b128bf053d245b5efe9be008785740189d3b5b2324a395630c3279a0ed8dbc976b685b16dc203291d38dd688d247ae09d2fea99189d5171ddcd7c90ea04ba4902e9df30d2ea5dc662cfa7887d327dc09fcd28d3dbf5c64f5e78f5e599b876a1ab8a28e74c2f842a00135a251a4d47cbb2e3ec7eab672f3505d49261cb433895e559539ba21441daaa00125f41da5f8e7146e8e5e4508967f0379dd4ae378ddf56f6f379814c056913a",
  "signedLegacy": "0xf8848201f72a83a5cdc1940bbe326563703d26cb074ef29ed04404ab1fd0cc828a1da0b477bf440adf79ace31d2590393c7bbd5c191c2e40b4523e94b9c75afce3a8711ca0c888e9068c768fa7d14a6298902c6b4be841794498ab8f5a5b4ec8027197ee14a04561fbe2803fd2d4ffd8f491c6371816b213832776a93dc48c922887e8bbc671",
  "signedEip155": "0xf8848201f72a83a5cdc1940bbe326563703d26cb074ef29ed04404ab1fd0cc828a1da0b477bf440adf79ace31d2590393c7bbd5c191c2e40b4523e94b9c75afce3a87172a052aea6be6b07d11486dc584c42cf1bd34ff8ec9096894fbd34cb7cc0d1aecce8a074220e1ac0c3ef2b2b60d1dea95db96d17872e1a55dc55b4835333d2c4ecdf95",
  "signedBerlin": "0x01f90103278201f72a83a5cdc1940bbe326563703d26cb074ef29ed04404ab1fd0cc828a1da0b477bf440adf79ace31d2590393c7bbd5c191c2e40b4523e94b9c75afce3a871f87cf87a9447421dbf48444b1c15748ffb721ac9b341c35347f863a01e4e2be542b128bf053d245b5efe9be008785740189d3b5b2324a395630c3279a0ed8dbc976b685b16dc203291d38dd688d247ae09d2fea99189d5171ddcd7c90ea04ba4902e9df30d2ea5dc662cfa7887d327dc09fcd28d3dbf5c64f5e78f5e599b80a0e6a87722ab1ce90d062a73fe2fe3ebf7135d9b3946b7bd7edb3b4b298504e8c5a01cfad4408ddaa8e38d031b99277a81b7cd118f760acc8946b5025d2d77200197",
  "signedLondon": "0x02f9010d278201f78359d1ad8652b5f1114c1a83a5cdc1940bbe326563703d26cb074ef29ed04404ab1fd0cc828a1da0b477bf440adf79ace31d2590393c7bbd5c191c2e40b4523e94b9c75afce3a871f87cf87a9447421dbf48444b1c15748ffb721ac9b341c35347f863a01e4e2be542b128bf053d245b5efe9be008785740189d3b5b2324a395630c3279a0ed8dbc976b685b16dc203291d38dd688d247ae09d2fea99189d5171ddcd7c90ea04ba4902e9df30d2ea5dc662cfa7887d327dc09fcd28d3dbf5c64f5e78f5e599b01a0f8825407a5607db5184718258869e3ba1eef9bd4c1bf4826315cfc8693593894a07aad01abea832c052973a749a3a623d63922fbbb090f5bbdb4582992d5bd508f",
  "signedCancun": "0x03f90159278201f78359d1ad8652b5f1114c1a83a5cdc1940bbe326563703d26cb074ef29ed04404ab1fd0cc828a1da0b477bf440adf79ace31d2590393c7bbd5c191c2e40b4523e94b9c75afce3a871f87cf87a9447421dbf48444b1c15748ffb721ac9b341c35347f863a01e4e2be542b128bf053d245b5efe9be008785740189d3b5b2324a395630c3279a0ed8dbc976b685b16dc203291d38dd688d247ae09d2fea99189d5171ddcd7c90ea04ba4902e9df30d2ea5dc662cfa7887d327dc09fcd28d3dbf5c64f5e78f5e599b876a1ab8a28e74c2f842a00135a251a4d47cbb2e3ec7eab672f3505d49261cb433895e559539ba21441daaa00125f41da5f8e7146e8e5e4508967f0379dd4ae378ddf56f6f379814c056913a01a0dd72f86ce46f065e917d86c73aa3ca7e683bfeb711a84bc10d3f253161a30cdaa00c4e90ba71f6c3ee0f989353e221408330e877d65cbd0adea67e2414dd5308d7",
  "signatureLegacy": {
    "r": "0xc888e9068c768fa7d14a6298902c6b4be841794498ab8f5a5b4ec8027197ee14",
    "s": "0x4561fbe2803fd2d4ffd8f491c6371816b213832776a93dc48c922887e8bbc671",
    "v": "0x1c"
  },
  "signatureEip155": {
    "r": "0x52aea6be6b07d11486dc584c42cf1bd34ff8ec9096894fbd34cb7cc0d1aecce8",
    "s": "0x74220e1ac0c3ef2b2b60d1dea95db96d17872e1a55dc55b4835333d2c4ecdf95",
    "v": "0x72"
  },
  "signatureBerlin": {
    "r": "0xe6a87722ab1ce90d062a73fe2fe3ebf7135d9b3946b7bd7edb3b4b298504e8c5",
    "s": "0x1cfad4408ddaa8e38d031b99277a81b7cd118f760acc8946b5025d2d77200197",
    "v": "0x0"
  },
  "signatureLondon": {
    "r": "0xf8825407a5607db5184718258869e3ba1eef9bd4c1bf4826315cfc8693593894",
    "s": "0x7aad01abea832c052973a749a3a623d63922fbbb090f5bbdb4582992d5bd508f",
    "v": "0x1"
  },
  "signatureCancun": {
    "r": "0xdd72f86ce46f065e917d86c73aa3ca7e683bfeb711a84bc10d3f253161a30cda",
    "s": "0x0c4e90ba71f6c3ee0f989353e221408330e877d65cbd0adea67e2414dd5308d7",
    "v": "0x1"
  }
}
