{
  "name": "random-19",
  "transaction": {
    "to": "0x6D9186AD35Ba39086D341c03B212a22dAd55A70c",
    "nonce": 47,
    "gasLimit": "0x8e2d",
    "gasPrice": "0xed",
    "maxFeePerGas": "0x8f001cace664",
    "maxPriorityFeePerGas": "0x86495d",
    "data": "0xa6e0079be77374ee2617550eadd15e206a8c7eb76eca2de96d48c4824b4646206720dfeb24956f1e712b58b9ef96fc92e637cf4c30614d86532d3110f670c5a70e5bdeef3dc5cf94ef8d3afffc50151c00a5ad1289fae8168bb120e9dbdb24c422eacfc4d8291c6dc942a872545c76b5c697806c84f478d361026a2ad9",
    "value": "0x4028",
    "accessList": [
      {
        "address": "0x27CBC99f4161665Fc37a013015B0B99A959f6fcb",
        "storageKeys": []
      },
      {
        "address": "0x296e9Be34584A14761c7b4cE82E99d4394A5f109",
        "storageKeys": []
      },
      {
        "address": "0xeD1C55cDE477E627081Ac4D17376f4Bf9A2dc51E",
        "storageKeys": []
      },
      {
        "address": "0x7a46971171Aa87E7Ef026C381053940714f4Ad91",
        "storageKeys": []
      }
    ],
    "chainId": "0xf9bf2e",
    "maxFeePerBlobGas": "0xfcaa613f0b5f",
    "blobVersionedHashes": [
      "0x010e2214c267eb6c514aaf6eab956c7043760e0cf06f8b854ce38a637c886a92",
      "0x01971b32a91a83e04ef14d049bf10a13377c3f18bde9c5ea313f8c2da061bb62"
    ]
  },
  "privateKey": "0x1b01010d8955e5cecc6705b73064baa37a703d65cb970a5b97c1cc9b76aa9473",
  "unsignedLegacy": "0xf89d2f81ed828e2d946d9186ad35ba39086d341c03b212a22dad55a70c824028b87da6e0079be77374ee2617550eadd15e206a8c7eb76eca2de96d48c4824b4646206720dfeb24956f1e712b58b9ef96fc92e637cf4c30614d86532d3110f670c5a70e5bdeef3dc5cf94ef8d3afffc50151c00a5ad1289fae8168bb120e9dbdb24c422eacfc4d8291c6dc942a872545c76b5c697806c84f478d361026a2ad9",
  "unsignedEip155": "0xf8a32f81ed828e2d946d9186ad35ba39086d341c03b212a22dad55a70c824028b87da6e0079be77374ee2617550eadd15e206a8c7eb76eca2de96d48c4824b4646206720dfeb24956f1e712b58b9ef96fc92e637cf4c30614d86532d3110f670c5a70e5bdeef3dc5cf94ef8d3afffc50151c00a5ad1289fae8168bb120e9dbdb24c422eacfc4d8291c6dc942a872545c76b5c697806c84f478d361026a2ad983f9bf2e8080",
  "unsignedBerlin": "0x01f8ff83f9bf2e2f81ed828e2d946d9186ad35ba39086d341c03b212a22dad55a70c824028b87da6e0079be77374ee2617550eadd15e206a8c7eb76eca2de96d48c4824b4646206720dfeb24956f1e712b58b9ef96fc92e637cf4c30614d86532d3110f670c5a70e5bdeef3dc5cf94ef8d3afffc50151c00a5ad1289fae8168bb120e9dbdb24c422eacfc4d8291c6dc942a872545c76b5c697806c84f478d361026a2ad9f85cd69427cbc99f4161665fc37a013015b0b99a959f6fcbc0d694296e9be34584a14761c7b4ce82e99d4394a5f109c0d694ed1c55cde477e627081ac4d17376f4bf9a2dc51ec0d6947a46971171aa87e7ef026c381053940714f4ad91c0",
  "unsignedLondon": "0x02f9010883f9bf2e2f8386495d868f001cace664828e2d946d9186ad35ba39086d341c03b212a22dad55a70c824028b87da6e0079be77374ee2617550eadd15e206a8c7eb76eca2de96d48c4824b4646206720dfeb24956f1e712b58b9ef96fc92e637cf4c30614d86532d3110f670c5a70e5bdeef3dc5cf94ef8d3afffc50151c00a5ad1289fae8168bb120e9dbdb24c422eacfc4d8291c6dc942a872545c76b5c697806c84f478d361026a2ad9f85cd69427cbc99f4161665fc37a013015b0b99a959f6fcbc0d694296e9be34584a14761c7b4ce82e99d4394a5f109c0d694ed1c55cde477e627081ac4d17376f4bf9a2dc51ec0d6947a46971171aa87e7ef026c381053940714f4ad91c0",
  "unsignedCancun": "0x03f9015383f9bf2e2f8386495d868f001cace664828e2d946d9186ad35ba39086d341c03b212a22dad55a70c824028b87da6e0079be77374ee2617550eadd15e206a8c7eb76eca2de96d48c4824b4646206720dfeb24956f1e712b58b9ef96fc92e637cf4c30614d86532d3110f670c5a70e5bdeef3dc5cf94ef8d3afffc50151c00a5ad1289fae8168bb120e9dbdb24c422eacfc4d8291c6dc942a872545c76b5c697806c84f478d361026a2ad9f85cd69427cbc99f4161665fc37a013015b0b99a959f6fcbc0d694296e9be34584a14761c7b4ce82e99d4394a5f109c0d694ed1c55cde477e627081ac4d17376f4bf9a2dc51ec0d6947a46971171aa87e7ef026c381053940714f4ad91c086fcaa613f0b5ff842a0010e2214c267eb6c514aaf6eab956c7043760e0cf06f8b854ce38a637c886a92a001971b32a91a83e04ef14d049bf10a13377c3f18bde9c5ea313f8c2da061bb62",
  "signedLegacy": "0xf8e02f81ed828e2d946d9186ad35ba39086d341c03b212a22dad55a70c824028b87da6e0079be77374ee2617550eadd15e206a8c7eb76eca2de96d48c4824b4646206720dfeb24956f1e712b58b9ef96fc92e637cf4c30614d86532d3110f670c5a70e5bdeef3dc5cf94ef8d3afffc50151c00a5ad1289fae8168bb120e9dbdb24c422eacfc4d8291c6dc942a872545c76b5c697806c84f478d361026a2ad91ba0804162984a09f440a312f2231b192dc7b43fb49546ede924e1ef2b4b54abcd31a04635d7370c171b9e6ac7fa3bca544d0c227d32f0a1c5d065cc0bb02b79e8eaa1",
  "signedEip155": "0xf8e42f81ed828e2d946d9186ad35ba39086d341c03b212a22dad55a70c824028b87da6e0079be77374ee2617550eadd15e206a8c7eb76eca2de96d48c4824b4646206720dfeb24956f1e712b58b9ef96fc92e637cf4c30614d86532d3110f670c5a70e5bdeef3dc5cf94ef8d3afffc50151c00a5ad1289fae8168bb120e9dbdb24c422eacfc4d8291c6dc942a872545c76b5c697806c84f478d361026a2ad98401f37e80a05914063f10cf79eea0d3c5cf10bf7765ffc648638c656ddf0c678057b6d570aaa00a89d79bcfa95f96290ec7938ab7c5552423736a16e0a39d84b140c5307a8bab",
  "signedBerlin": "0x01f9014283f9bf2e2f81ed828e2d946d9186ad35ba39086d341c03b212a22dad55a70c824028b87da6e0079be77374ee2617550eadd15e206a8c7eb76eca2de96d48c4824b4646206720dfeb24956f1e712b58b9ef96fc92e637cf4c30614d86532d3110f670c5a70e5bdeef3dc5cf94ef8d3afffc50151c00a5ad1289fae8168bb120e9dbdb24c422eacfc4d8291c6dc942a872545c76b5c697806c84f478d361026a2ad9f85cd69427cbc99f4161665fc37a013015b0b99a959f6fcbc0d694296e9be34584a14761c7b4ce82e99d4394a5f109c0d694ed1c55cde477e627081ac4d17376f4bf9a2dc51ec0d6947a46971171aa87e7ef026c381053940714f4ad91c080a0888f5e0b4c258b4f7c488d4e1f7dafc82d7835381b5470bc1e9571ad6bd21929a07a8a19227f4f2cb93bccbc7b4bcb0b731701a0284df8ed3fb90936e6ac0a18d1",
  "signedLondon": "0x02f9014b83f9bf2e2f8386495d868f001cace664828e2d946d9186ad35ba39086d341c03b212a22dad55a70c824028b87da6e0079be77374ee2617550eadd15e206a8c7eb76eca2de96d48c4824b4646206720dfeb24956f1e712b58b9ef96fc92e637cf4c30614d86532d3110f670c5a70e5bdeef3dc5cf94ef8d3afffc50151c00a5ad1289fae8168bb120e9dbdb24c422eacfc4d8291c6dc942a872545c76b5c697806c84f478d361026a2ad9f85cd69427cbc99f4161665fc37a013015b0b99a959f6fcbc0d694296e9be34584a14761c7b4ce82e99d4394a5f109c0d694ed1c55cde477e627081ac4d17376f4bf9a2dc51ec0d6947a46971171aa87e7ef026c381053940714f4ad91c001a0f9ba41389da7c4a5471d8af8235fb765d90ec76b370516ec0108d43eda880c84a00bca4f8cb35a6023cbeee50d38e0b62588b6cfc47d3e8023413f2bdfb04f3a8e",
  "signedCancun": "0x03f9019683f9bf2e2f8386495d868f001cace664828e2d946d9186ad35ba39086d341c03b212a22dad55a70c824028b87da6e0079be77374ee2617550eadd15e206a8c7eb76eca2de96d48c4824b4646206720dfeb24956f1e712b58b9ef96fc92e637cf4c30614d86532d3110f670c5a70e5bdeef3dc5cf94ef8d3afffc50151c00a5ad1289fae8168bb120e9dbdb24c422eacfc4d8291c6dc942a872545c76b5c697806c84f478d361026a2ad9f85cd69427cbc99f4161665fc37a013015b0b99a959f6fcbc0d694296e9be34584a14761c7b4ce82e99d4394a5f109c0d694ed1c55cde477e627081ac4d17376f4bf9a2dc51ec0d6947a46971171aa87e7ef026c381053940714f4ad91c086fcaa613f0b5ff842a0010e2214c267eb6c514aaf6eab956c7043760e0cf06f8b854ce38a637c886a92a001971b32a91a83e04ef14d049bf10a13377c3f18bde9c5ea313f8c2da061bb6201a0e5af277a499dbd89c8b25adfab873a4bade8e963e403dbaaba3398c1b4f6d0c1a00282b21217a21a6e57c3713da3700265dc4e86803f364175d26d3ab727f812e3",
  "signatureLegacy": {
    "r": "0x804162984a09f440a312f2231b192dc7b43fb49546ede924e1ef2b4b54abcd31",
    "s": "0x4635d7370c171b9e6ac7fa3bca544d0c227d32f0a1c5d065cc0bb02b79e8eaa1",
    "v": "0x1b"
  },
  "signatureEip155": {
    "r": "0x5914063f10cf79eea0d3c5cf10bf7765ffc648638c656ddf0c678057b6d570aa",
    "s": "0x0a89d79bcfa95f96290ec7938ab7c5552423736a16e0a39d84b140c5307a8bab",
    "v": "0x1f37e80"
  },
  "signatureBerlin": {
    "r": "0x888f5e0b4c258b4f7c488d4e1f7dafc82d7835381b5470bc1e9571ad6bd21929",
    "s": "0x7a8a19227f4f2cb93bccbc7b4bcb0b731701a0284df8ed3fb90936e6ac0a18d1",
    "v": "0x0"
  },
  "signatureLondon": {
    "r": "0xf9ba41389da7c4a5471d8af8235fb765d90ec76b370516ec0108d43eda880c84",
    "s": "0x0bca4f8cb35a6023cbeee50d38e0b62588b6cfc47d3e8023413f2bdfb04f3a8e",
    "v": "0x1"
  },
  "signatureCancun": {
    "r": "0xe5af277a499dbd89c8b25adfab873a4bade8e963e403dbaaba3398c1b4f6d0c1",
    "s": "0x0282b21217a21a6e57c3713da3700265dc4e86803f364175d26d3ab727f812e3",
    "v": "0x1"
  }
}
