{
  "name": "random-11",
  "transaction": {
    "to": "0x84c0Ab0b0Bb392Fc645293Fd9F88ce734F520C3d",
    "nonce": 152,
    "gasLimit": "0x27",
    "gasPrice": "0x5d0f93b5b0",
    "maxFeePerGas": "0x5966bba5",
    "maxPriorityFeePerGas": "0x5017",
    "data": "0x0c5c6b4f63948ee9bd3027",
    "value": "0x6e555229e2",
    "accessList": [
      {
        "address": "0x43b314A73dd9368a2C0227F3cc1315818Db914D8",
        "storageKeys": [
          "0xe0e82939483d467088aae991d873c23719321b29648506c612ad2a06194051ef"
        ]
      },
      {
        "address": "0x4eA79A74f60B6Bf2688B46fa9Ba5db593098740b",
        "storageKeys": [
          "0xe0e82939483d467088aae991d873c23719321b29648506c612ad2a06194051ef"
        ]
      },
      {
        "address": "0x6eB7Fd5fdfD7F48e137da1b368287f2C6Cc12b45",
        "storageKeys": [
          "0xe0e82939483d467088aae991d873c23719321b29648506c612ad2a06194051ef"
        ]
      },
      {
        "address": "0xb8EcE452e0840B0b30D0BCB4d1400B545cfb746F",
        "storageKeys": [
          "0xe0e82939483d467088aae991d873c23719321b29648506c612ad2a06194051ef"
        ]
      }
    ],
    "chainId": "0xdb4137d499",
    "maxFeePerBlobGas": "0x1ba30e3498",
    "blobVersionedHashes": []
  },
  "privateKey": "0x335dca53da48dba1ac89b63618acd056621774dd60a7ef7f891f64c8c659e7b3",
  "unsignedLegacy": "0xf08198855d0f93b5b0279484c0ab0b0bb392fc645293fd9f88ce734f520c3d856e555229e28b0c5c6b4f63948ee9bd3027",
  "unsignedEip155": "0xf8388198855d0f93b5b0279484c0ab0b0bb392fc645293fd9f88ce734f520c3d856e555229e28b0c5c6b4f63948ee9bd302785db4137d4998080",
  "unsignedBerlin": "0x01f9011885db4137d4998198855d0f93b5b0279484c0ab0b0bb392fc645293fd9f88ce734f520c3d856e555229e28b0c5c6b4f63948ee9bd3027f8e0f79443b314a73dd9368a2c0227f3cc1315818db914d8e1a0e0e82939483d467088aae991d873c23719321b29648506c612ad2a06194051eff7944ea79a74f60b6bf2688b46fa9ba5db593098740be1a0e0e82939483d467088aae991d873c23719321b29648506c612ad2a06194051eff7946eb7fd5fdfd7f48e137da1b368287f2c6cc12b45e1a0e0e82939483d467088aae991d873c23719321b29648506c612ad2a06194051eff794b8ece452e0840b0b30d0bcb4d1400b545cfb746fe1a0e0e82939483d467088aae991d873c23719321b29648506c612ad2a06194051ef",
  "unsignedLondon": "0x02f9011a85db4137d4998198825017845966bba5279484c0ab0b0bb392fc645293fd9f88ce734f520c3d856e555229e28b0c5c6b4f63948ee9bd3027f8e0f79443b314a73dd9368a2c0227f3cc1315818db914d8e1a0e0e82939483d467088aae991d873c23719321b29648506c612ad2a06194051eff7944ea79a74f60b6bf2688b46fa9ba5db593098740be1a0e0e82939483d467088aae991d873c23719321b29648506c612ad2a06194051eff7946eb7fd5fdfd7f48e137da1b368287f2c6cc12b45e1a0e0e82939483d467088aae991d873c23719321b29648506c612ad2a06194051eff794b8ece452e0840b0b30d0bcb4d1400b545cfb746fe1a0e0e82939483d467088aae991d873c23719321b29648506c612ad2a06194051ef",
  "unsignedCancun": "0x03f9012185db4137d4998198825017845966bba5279484c0ab0b0bb392fc645293fd9f88ce734f520c3d856e555229e28b0c5c6b4f63948ee9bd3027f8e0f79443b314a73dd9368a2c0227f3cc1315818db914d8e1a0e0e82939483d467088aae991d873c23719321b29648506c612ad2a06194051eff7944ea79a74f60b6bf2688b46fa9ba5db593098740be1a0e0e82939483d467088aae991d873c23719321b29648506c612ad2a06194051eff7946eb7fd5fdfd7f48e137da1b368287f2c6cc12b45e1a0e0e82939483d467088aae991d873c23719321b29648506c612ad2a06194051eff794b8ece452e0840b0b30d0bcb4d1400b545cfb746fe1a0e0e82939483d467088aae991d873c23719321b29648506c612ad2a06194051ef851ba30e3498c0",
  "signedLegacy": "0xf8738198855d0f93b5b0279484c0ab0b0bb392fc645293fd9f88ce734f520c3d856e555229e28b0c5c6b4f63948ee9bd30271ca07cf7847c9f6bf2ac5b12866c8977bffe203b8674bc35a0c789e60913803298c4a02388e993aa07c5f28a6e31bd8189597ccd314b6ff803b202cc700add8bb907e8",
  "signedEip155": "0xf8798198855d0f93b5b0279484c0ab0b0bb392fc645293fd9f88ce734f520c3d856e555229e28b0c5c6b4f63948ee9bd30278601b6826fa956a016821219866f3c43a9d6705be5c99bed3443b663be66036ed3cd6d1b922cf6dca013496a38cc9a45ae5f04a7539adfd4961b6527d8ca203438db0538fa13ee07a3",
  "signedBerlin": "0x01f9015b85db4137d4998198855d0f93b5b0279484c0ab0b0bb392fc645293fd9f88ce734f520c3d856e555229e28b0c5c6b4f63948ee9bd3027f8e0f79443b314a73dd9368a2c0227f3cc1315818db914d8e1a0e0e82939483d467088aae991d873c23719321b29648506c612ad2a06194051eff7944ea79a74f60b6bf2688b46fa9ba5db593098740be1a0e0e82939483d467088aae991d873c23719321b29648506c612ad2a06194051eff7946eb7fd5fdfd7f48e137da1b368287f2c6cc12b45e1a0e0e82939483d467088aae991d873c23719321b29648506c612ad2a06194051eff794b8ece452e0840b0b30d0bcb4d1400b545cfb746fe1a0e0e82939483d467088aae991d873c23719321b29648506c612ad2a06194051ef80a0c09b02589bf56592b078fa358f37f0349debe1561378ddda9c195c8cbbad6aaca02ce613405a1a0fb0cf7c11e2ae6a13d16dc05b4b54fa29fe659f0d3486b0748d",
  "signedLondon": "0x02f9015d85db4137d4998198825017845966bba5279484c0ab0b0bb392fc645293fd9f88ce734f520c3d856e555229e28b0c5c6b4f63948ee9bd3027f8e0f79443b314a73dd9368a2c0227f3cc1315818db914d8e1a0e0e82939483d467088aae991d873c23719321b29648506c612ad2a06194051eff7944ea79a74f60b6bf2688b46fa9ba5db593098740be1a0e0e82939483d467088aae991d873c23719321b29648506c612ad2a06194051eff7946eb7fd5fdfd7f48e137da1b368287f2c6cc12b45e1a0e0e82939483d467088aae991d873c23719321b29648506c612ad2a06194051eff794b8ece452e0840b0b30d0bcb4d1400b545cfb746fe1a0e0e82939483d467088aae991d873c23719321b29648506c612ad2a06194051ef01a00291267b646d31657e80c87018fac49779ec0b4b8acfea5b5e5875b2bc574389a028c4e6e7dc6aa417199de1a0ba1deb90fbd9c42818cd926c4d50c5de61cf733a",
  "signedCancun": "0x03f9016485db4137d4998198825017845966bba5279484c0ab0b0bb392fc645293fd9f88ce734f520c3d856e555229e28b0c5c6b4f63948ee9bd3027f8e0f79443b314a73dd9368a2c0227f3cc1315818db914d8e1a0e0e82939483d467088aae991d873c23719321b29648506c612ad2a06194051eff7944ea79a74f60b6bf2688b46fa9ba5db593098740be1a0e0e82939483d467088aae991d873c23719321b29648506c612ad2a06194051eff7946eb7fd5fdfd7f48e137da1b368287f2c6cc12b45e1a0e0e82939483d467088aae991d873c23719321b29648506c612ad2a06194051eff794b8ece452e0840b0b30d0bcb4d1400b545cfb746fe1a0e0e82939483d467088aae991d873c23719321b29648506c612ad2a06194051ef851ba30e3498c080a0b0b4ec97964ed7aa3a66e0053ab4163c8b346b2150f581ae09ac7c62f810543ba00e27aac4faaa5fc4634ed8b64f50aaf74156b90d561db528b255242fe624ae0e",
  "signatureLegacy": {
    "r": "0x7cf7847c9f6bf2ac5b12866c8977bffe203b8674bc35a0c789e60913803298c4",
    "s": "0x2388e993aa07c5f28a6e31bd8189597ccd314b6ff803b202cc700add8bb907e8",
    "v": "0x1c"
  },
  "signatureEip155": {
    "r": "0x16821219866f3c43a9d6705be5c99bed3443b663be66036ed3cd6d1b922cf6dc",
    "s": "0x13496a38cc9a45ae5f04a7539adfd4961b6527d8ca203438db0538fa13ee07a3",
    "v": "0x1b6826fa956"
  },
  "signatureBerlin": {
    "r": "0xc09b02589bf56592b078fa358f37f0349debe1561378ddda9c195c8cbbad6aac",
    "s": "0x2ce613405a1a0fb0cf7c11e2ae6a13d16dc05b4b54fa29fe659f0d3486b0748d",
    "v": "0x0"
  },
  "signatureLondon": {
    "r": "0x0291267b646d31657e80c87018fac49779ec0b4b8acfea5b5e5875b2bc574389",
    "s": "0x28c4e6e7dc6aa417199de1a0ba1deb90fbd9c42818cd926c4d50c5de61cf733a",
    "v": "0x1"
  },
  "signatureCancun": {
    "r": "0xb0b4ec97964ed7aa3a66e0053ab4163c8b346b2150f581ae09ac7c62f810543b",
    "s": "0x0e27aac4faaa5fc4634ed8b64f50aaf74156b90d561db528b255242fe624ae0e",
    "v": "0x0"
  }
}
