{
  "name": "random-17",
  "transaction": {
    "to": "0x7b9830530efd81a5bb21ed03a1e20ac977c13003",
    "nonce": 103,
    "gasLimit": "0xa193e9",
    "gasPrice": "0xfc",
    "maxFeePerGas": "0xe89288e31191",
    "maxPriorityFeePerGas": "0x",
    "data": "0x00ac2eee2035dab48b94002f3fa4ba662590127a2fcb9e978af494f9eff8696653a646e34d8405aad7bd09",
    "value": "0xb45e",
    "accessList": [
      {
        "address": "0x469ed43b08a100e13e84b7746fa7206d3a11a5f7",
        "storageKeys": [
          "0x434cab87455b41c8023691c4e836ec1e1d90fd639e1207274b07574059394950",
          "0x56498d76fcc165010f94437317015d8a9a939ab1fd21216c5fcfed335f5d6ad5",
          "0xe83f7815e6bf7d521dd0341e9445415ab565b2471ab4dbbf0a0ddcc564bdb94e"
        ]
      },
      {
        "address": "0x588c330b029e06b820dfb1d3a5b774edcf6a9fee",
        "storageKeys": [
          "0x434cab87455b41c8023691c4e836ec1e1d90fd639e1207274b07574059394950",
          "0x56498d76fcc165010f94437317015d8a9a939ab1fd21216c5fcfed335f5d6ad5",
          "0xe83f7815e6bf7d521dd0341e9445415ab565b2471ab4dbbf0a0ddcc564bdb94e"
        ]
      },
      {
        "address": "0xd7bb918eb068b37e44b12a19402f5112de656566",
        "storageKeys": [
          "0x434cab87455b41c8023691c4e836ec1e1d90fd639e1207274b07574059394950",
          "0x56498d76fcc165010f94437317015d8a9a939ab1fd21216c5fcfed335f5d6ad5",
          "0xe83f7815e6bf7d521dd0341e9445415ab565b2471ab4dbbf0a0ddcc564bdb94e"
        ]
      },
      {
        "address": "0x29efb653e6b98ea36995ec81968b0eac36678a60",
        "storageKeys": [
          "0x434cab87455b41c8023691c4e836ec1e1d90fd639e1207274b07574059394950",
          "0x56498d76fcc165010f94437317015d8a9a939ab1fd21216c5fcfed335f5d6ad5",
          "0xe83f7815e6bf7d521dd0341e9445415ab565b2471ab4dbbf0a0ddcc564bdb94e"
        ]
      }
    ],
    "chainId": "0x7408366b12"
  },
  "privateKey": "0x58f3d57fde2c0dae771d5cb66092b8905ba5691226740d7398459c60712a5793",
  "unsignedLegacy": "0xf84b6781fc83a193e9947b9830530efd81a5bb21ed03a1e20ac977c1300382b45eab00ac2eee2035dab48b94002f3fa4ba662590127a2fcb9e978af494f9eff8696653a646e34d8405aad7bd09",
  "unsignedEip155": "0xf8536781fc83a193e9947b9830530efd81a5bb21ed03a1e20ac977c1300382b45eab00ac2eee2035dab48b94002f3fa4ba662590127a2fcb9e978af494f9eff8696653a646e34d8405aad7bd09857408366b128080",
  "unsignedBerlin": "0x01f90244857408366b126781fc83a193e9947b9830530efd81a5bb21ed03a1e20ac977c1300382b45eab00ac2eee2035dab48b94002f3fa4ba662590127a2fcb9e978af494f9eff8696653a646e34d8405aad7bd09f901f0f87a94469ed43b08a100e13e84b7746fa7206d3a11a5f7f863a0434cab87455b41c8023691c4e836ec1e1d90fd639e1207274b07574059394950a056498d76fcc165010f94437317015d8a9a939ab1fd21216c5fcfed335f5d6ad5a0e83f7815e6bf7d521dd0341e9445415ab565b2471ab4dbbf0a0ddcc564bdb94ef87a94588c330b029e06b820dfb1d3a5b774edcf6a9feef863a0434cab87455b41c8023691c4e836ec1e1d90fd639e1207274b07574059394950a056498d76fcc165010f94437317015d8a9a939ab1fd21216c5fcfed335f5d6ad5a0e83f7815e6bf7d521dd0341e9445415ab565b2471ab4dbbf0a0ddcc564bdb94ef87a94d7bb918eb068b37e44b12a19402f5112de656566f863a0434cab87455b41c8023691c4e836ec1e1d90fd639e1207274b07574059394950a056498d76fcc165010f94437317015d8a9a939ab1fd21216c5fcfed335f5d6ad5a0e83f7815e6bf7d521dd0341e9445415ab565b2471ab4dbbf0a0ddcc564bdb94ef87a9429efb653e6b98ea36995ec81968b0eac36678a60f863a0434cab87455b41c8023691c4e836ec1e1d90fd639e1207274b07574059394950a056498d76fcc165010f94437317015d8a9a939ab1fd21216c5fcfed335f5d6ad5a0e83f7815e6bf7d521dd0341e9445415ab565b2471ab4dbbf0a0ddcc564bdb94e",
  "unsignedLondon": "0x02f9024a857408366b12678086e89288e3119183a193e9947b9830530efd81a5bb21ed03a1e20ac977c1300382b45eab00ac2eee2035dab48b94002f3fa4ba662590127a2fcb9e978af494f9eff8696653a646e34d8405aad7bd09f901f0f87a94469ed43b08a100e13e84b7746fa7206d3a11a5f7f863a0434cab87455b41c8023691c4e836ec1e1d90fd639e1207274b07574059394950a056498d76fcc165010f94437317015d8a9a939ab1fd21216c5fcfed335f5d6ad5a0e83f7815e6bf7d521dd0341e9445415ab565b2471ab4dbbf0a0ddcc564bdb94ef87a94588c330b029e06b820dfb1d3a5b774edcf6a9feef863a0434cab87455b41c8023691c4e836ec1e1d90fd639e1207274b07574059394950a056498d76fcc165010f94437317015d8a9a939ab1fd21216c5fcfed335f5d6ad5a0e83f7815e6bf7d521dd0341e9445415ab565b2471ab4dbbf0a0ddcc564bdb94ef87a94d7bb918eb068b37e44b12a19402f5112de656566f863a0434cab87455b41c8023691c4e836ec1e1d90fd639e1207274b07574059394950a056498d76fcc165010f94437317015d8a9a939ab1fd21216c5fcfed335f5d6ad5a0e83f7815e6bf7d521dd0341e9445415ab565b2471ab4dbbf0a0ddcc564bdb94ef87a9429efb653e6b98ea36995ec81968b0eac36678a60f863a0434cab87455b41c8023691c4e836ec1e1d90fd639e1207274b07574059394950a056498d76fcc165010f94437317015d8a9a939ab1fd21216c5fcfed335f5d6ad5a0e83f7815e6bf7d521dd0341e9445415ab565b2471ab4dbbf0a0ddcc564bdb94e",
  "signedLegacy": "0xf88e6781fc83a193e9947b9830530efd81a5bb21ed03a1e20ac977c1300382b45eab00ac2eee2035dab48b94002f3fa4ba662590127a2fcb9e978af494f9eff8696653a646e34d8405aad7bd091ba0a757ef8833ca9661e0c61be8e3afc542621af4959e93dc1f0995fff27f0adb25a042d19de61393bb52bfd17271d1ac550532d18b5b798ab582f086dc2d3e5e9a16",
  "signedEip155": "0xf8936781fc83a193e9947b9830530efd81a5bb21ed03a1e20ac977c1300382b45eab00ac2eee2035dab48b94002f3fa4ba662590127a2fcb9e978af494f9eff8696653a646e34d8405aad7bd0985e8106cd647a064f1a626b7b59574162f0effdfd8e4c34cbbe35acb8361e23327254eb79474d4a01e6bda23fc2215fbc1c9197797b6fcd20f2fe2ea13489d8d9429214f34abba7f",
  "signedBerlin": "0x01f90287857408366b126781fc83a193e9947b9830530efd81a5bb21ed03a1e20ac977c1300382b45eab00ac2eee2035dab48b94002f3fa4ba662590127a2fcb9e978af494f9eff8696653a646e34d8405aad7bd09f901f0f87a94469ed43b08a100e13e84b7746fa7206d3a11a5f7f863a0434cab87455b41c8023691c4e836ec1e1d90fd639e1207274b07574059394950a056498d76fcc165010f94437317015d8a9a939ab1fd21216c5fcfed335f5d6ad5a0e83f7815e6bf7d521dd0341e9445415ab565b2471ab4dbbf0a0ddcc564bdb94ef87a94588c330b029e06b820dfb1d3a5b774edcf6a9feef863a0434cab87455b41c8023691c4e836ec1e1d90fd639e1207274b07574059394950a056498d76fcc165010f94437317015d8a9a939ab1fd21216c5fcfed335f5d6ad5a0e83f7815e6bf7d521dd0341e9445415ab565b2471ab4dbbf0a0ddcc564bdb94ef87a94d7bb918eb068b37e44b12a19402f5112de656566f863a0434cab87455b41c8023691c4e836ec1e1d90fd639e1207274b07574059394950a056498d76fcc165010f94437317015d8a9a939ab1fd21216c5fcfed335f5d6ad5a0e83f7815e6bf7d521dd0341e9445415ab565b2471ab4dbbf0a0ddcc564bdb94ef87a9429efb653e6b98ea36995ec81968b0eac36678a60f863a0434cab87455b41c8023691c4e836ec1e1d90fd639e1207274b07574059394950a056498d76fcc165010f94437317015d8a9a939ab1fd21216c5fcfed335f5d6ad5a0e83f7815e6bf7d521dd0341e9445415ab565b2471ab4dbbf0a0ddcc564bdb94e01a0352216eb2b38744f0a7b613f954e06a3bf16eb8b710918d6626e663fe7554a1ca056ff4e7fd9ad2fa802629f4742fa0e5d9b6c963225bd5b28b4723bf056a35c3f",
  "signedLondon": "0x02f9028d857408366b12678086e89288e3119183a193e9947b9830530efd81a5bb21ed03a1e20ac977c1300382b45eab00ac2eee2035dab48b94002f3fa4ba662590127a2fcb9e978af494f9eff8696653a646e34d8405aad7bd09f901f0f87a94469ed43b08a100e13e84b7746fa7206d3a11a5f7f863a0434cab87455b41c8023691c4e836ec1e1d90fd639e1207274b07574059394950a056498d76fcc165010f94437317015d8a9a939ab1fd21216c5fcfed335f5d6ad5a0e83f7815e6bf7d521dd0341e9445415ab565b2471ab4dbbf0a0ddcc564bdb94ef87a94588c330b029e06b820dfb1d3a5b774edcf6a9feef863a0434cab87455b41c8023691c4e836ec1e1d90fd639e1207274b07574059394950a056498d76fcc165010f94437317015d8a9a939ab1fd21216c5fcfed335f5d6ad5a0e83f7815e6bf7d521dd0341e9445415ab565b2471ab4dbbf0a0ddcc564bdb94ef87a94d7bb918eb068b37e44b12a19402f5112de656566f863a0434cab87455b41c8023691c4e836ec1e1d90fd639e1207274b07574059394950a056498d76fcc165010f94437317015d8a9a939ab1fd21216c5fcfed335f5d6ad5a0e83f7815e6bf7d521dd0341e9445415ab565b2471ab4dbbf0a0ddcc564bdb94ef87a9429efb653e6b98ea36995ec81968b0eac36678a60f863a0434cab87455b41c8023691c4e836ec1e1d90fd639e1207274b07574059394950a056498d76fcc165010f94437317015d8a9a939ab1fd21216c5fcfed335f5d6ad5a0e83f7815e6bf7d521dd0341e9445415ab565b2471ab4dbbf0a0ddcc564bdb94e80a0aa2b560095a5b26aa99ce13700ec8827401043a0d7863c706285b64da5419656a03108eeef4d208ab2b4a5fd4abc3856431e5b3fcf25a3428459b7ff7e58b75255"
}
