{
  "name": "random-5",
  "transaction": {
    "to": "0x4d1060d970674619005137921969b4bfe3EeA6B8",
    "nonce": 577,
    "gasLimit": "0xbe431918",
    "gasPrice": "0xb3b1aaeb58",
    "maxFeePerGas": "0x6bb02a65c7",
    "maxPriorityFeePerGas": "0xa5",
    "data": "0x7f2239c398167e747939f64b2ed9458db8aa10eb367bfab1976a0bc6693cf152dd8d13aa16e4d655a38d6ac64eae0932e13d649f9516fca834cd5a49c7b6e5ba1286a30eea1ac2e89c78441c5418250f8e307cc72c95ef36a8e4cee60b56ece34984ed3302672e6183d28ef30f3e43d60f",
    "value": "0x95927b2d76",
    "accessList": [
      {
        "address": "0x8A632C23BF807681570c3fb6632Ce99FD98BdB23",
        "storageKeys": [
          "0x1c3124f271ea52d9e881bdd52c63020fb7c08a1b96263030415e4bc8146db25c",
          "0x2b6d4aa754fa44f0e86e6fa0a936048674ffc4fef24c5a2b317c740630901919",
          "0xc266c51508b93a8f933e2e64505e458ac26cdb93e8e0bc7bd1609552b6210aa5",
          "0xf49934500a155bedea4f0bf25bfc62161fcb74fbf17ca480333f4747d5ad824e"
        ]
      },
      {
        "address": "0x2D78B31bA09E8a2888d655e3d000FE95c63789c4",
        "storageKeys": [
          "0x1c3124f271ea52d9e881bdd52c63020fb7c08a1b96263030415e4bc8146db25c",
          "0x2b6d4aa754fa44f0e86e6fa0a936048674ffc4fef24c5a2b317c740630901919",
          "0xc266c51508b93a8f933e2e64505e458ac26cdb93e8e0bc7bd1609552b6210aa5",
          "0xf49934500a155bedea4f0bf25bfc62161fcb74fbf17ca480333f4747d5ad824e"
        ]
      },
      {
        "address": "0x3199b3433EE7f3eDcAE901cbce64C4E81125F7da",
        "storageKeys": [
          "0x1c3124f271ea52d9e881bdd52c63020fb7c08a1b96263030415e4bc8146db25c",
          "0x2b6d4aa754fa44f0e86e6fa0a936048674ffc4fef24c5a2b317c740630901919",
          "0xc266c51508b93a8f933e2e64505e458ac26cdb93e8e0bc7bd1609552b6210aa5",
          "0xf49934500a155bedea4f0bf25bfc62161fcb74fbf17ca480333f4747d5ad824e"
        ]
      },
      {
        "address": "0xb8d669949683a728f76919fe2CC9896216E00A81",
        "storageKeys": [
          "0x1c3124f271ea52d9e881bdd52c63020fb7c08a1b96263030415e4bc8146db25c",
          "0x2b6d4aa754fa44f0e86e6fa0a936048674ffc4fef24c5a2b317c740630901919",
          "0xc266c51508b93a8f933e2e64505e458ac26cdb93e8e0bc7bd1609552b6210aa5",
          "0xf49934500a155bedea4f0bf25bfc62161fcb74fbf17ca480333f4747d5ad824e"
        ]
      }
    ],
    "chainId": "0x60a7",
    "maxFeePerBlobGas": "0x13c4c123e2373d",
    "blobVersionedHashes": [
      "0x014a782765b51a031ac55ad44ba18bc6f003634892312bc06ee169486aabeab0"
    ]
  },
  "privateKey": "0x77065b8ddb2f89d3d2d83f46d0147efc081e3a3f1012406c698a9ce364b324e9",
  "unsignedLegacy": "0xf89c82024185b3b1aaeb5884be431918944d1060d970674619005137921969b4bfe3eea6b88595927b2d76b8717f2239c398167e747939f64b2ed9458db8aa10eb367bfab1976a0bc6693cf152dd8d13aa16e4d655a38d6ac64eae0932e13d649f9516fca834cd5a49c7b6e5ba1286a30eea1ac2e89c78441c5418250f8e307cc72c95ef36a8e4cee60b56ece34984ed3302672e6183d28ef30f3e43d60f",
  "unsignedEip155": "0xf8a182024185b3b1aaeb5884be431918944d1060d970674619005137921969b4bfe3eea6b88595927b2d76b8717f2239c398167e747939f64b2ed9458db8aa10eb367bfab1976a0bc6693cf152dd8d13aa16e4d655a38d6ac64eae0932e13d649f9516fca834cd5a49c7b6e5ba1286a30eea1ac2e89c78441c5418250f8e307cc72c95ef36a8e4cee60b56ece34984ed3302672e6183d28ef30f3e43d60f8260a78080",
  "unsignedBerlin": "0x01f903168260a782024185b3b1aaeb5884be431918944d1060d970674619005137921969b4bfe3eea6b88595927b2d76b8717f2239c398167e747939f64b2ed9458db8aa10eb367bfab1976a0bc6693cf152dd8d13aa16e4d655a38d6ac64eae0932e13d649f9516fca834cd5a49c7b6e5ba1286a30eea1ac2e89c78441c5418250f8e307cc72c95ef36a8e4cee60b56ece34984ed3302672e6183d28ef30f3e43d60ff90274f89b948a632c23bf807681570c3fb6632ce99fd98bdb23f884a01c3124f271ea52d9e881bdd52c63020fb7c08a1b96263030415e4bc8146db25ca02b6d4aa754fa44f0e86e6fa0a936048674ffc4fef24c5a2b317c740630901919a0c266c51508b93a8f933e2e64505e458ac26cdb93e8e0bc7bd1609552b6210aa5a0f49934500a155bedea4f0bf25bfc62161fcb74fbf17ca480333f4747d5ad824ef89b942d78b31ba09e8a2888d655e3d000fe95c63789c4f884a01c3124f271ea52d9e881bdd52c63020fb7c08a1b96263030415e4bc8146db25ca02b6d4aa754fa44f0e86e6fa0a936048674ffc4fef24c5a2b317c740630901919a0c266c51508b93a8f933e2e64505e458ac26cdb93e8e0bc7bd1609552b6210aa5a0f49934500a155bedea4f0bf25bfc62161fcb74fbf17ca480333f4747d5ad824ef89b943199b3433ee7f3edcae901cbce64c4e81125f7daf884a01c3124f271ea52d9e881bdd52c63020fb7c08a1b96263030415e4bc8146db25ca02b6d4aa754fa44f0e86e6fa0a936048674ffc4fef24c5a2b317c740630901919a0c266c51508b93a8f933e2e64505e458ac26cdb93e8e0bc7bd1609552b6210aa5a0f49934500a155bedea4f0bf25bfc62161fcb74fbf17ca480333f4747d5ad824ef89b94b8d669949683a728f76919fe2cc9896216e00a81f884a01c3124f271ea52d9e881bdd52c63020fb7c08a1b96263030415e4bc8146db25ca02b6d4aa754fa44f0e86e6fa0a936048674ffc4fef24c5a2b317c740630901919a0c266c51508b93a8f933e2e64505e458ac26cdb93e8e0bc7bd1609552b6210aa5a0f49934500a155bedea4f0bf25bfc62161fcb74fbf17ca480333f4747d5ad824e",
  "unsignedLondon": "0x02f903188260a782024181a5856bb02a65c784be431918944d1060d970674619005137921969b4bfe3eea6b88595927b2d76b8717f2239c398167e747939f64b2ed9458db8aa10eb367bfab1976a0bc6693cf152dd8d13aa16e4d655a38d6ac64eae0932e13d649f9516fca834cd5a49c7b6e5ba1286a30eea1ac2e89c78441c5418250f8e307cc72c95ef36a8e4cee60b56ece34984ed3302672e6183d28ef30f3e43d60ff90274f89b948a632c23bf807681570c3fb6632ce99fd98bdb23f884a01c3124f271ea52d9e881bdd52c63020fb7c08a1b96263030415e4bc8146db25ca02b6d4aa754fa44f0e86e6fa0a936048674ffc4fef24c5a2b317c740630901919a0c266c51508b93a8f933e2e64505e458ac26cdb93e8e0bc7bd1609552b6210aa5a0f49934500a155bedea4f0bf25bfc62161fcb74fbf17ca480333f4747d5ad824ef89b942d78b31ba09e8a2888d655e3d000fe95c63789c4f884a01c3124f271ea52d9e881bdd52c63020fb7c08a1b96263030415e4bc8146db25ca02b6d4aa754fa44f0e86e6fa0a936048674ffc4fef24c5a2b317c740630901919a0c266c51508b93a8f933e2e64505e458ac26cdb93e8e0bc7bd1609552b6210aa5a0f49934500a155bedea4f0bf25bfc62161fcb74fbf17ca480333f4747d5ad824ef89b943199b3433ee7f3edcae901cbce64c4e81125f7daf884a01c3124f271ea52d9e881bdd52c63020fb7c08a1b96263030415e4bc8146db25ca02b6d4aa754fa44f0e86e6fa0a936048674ffc4fef24c5a2b317c740630901919a0c266c51508b93a8f933e2e64505e458ac26cdb93e8e0bc7bd1609552b6210aa5a0f49934500a155bedea4f0bf25bfc62161fcb74fbf17ca480333f4747d5ad824ef89b94b8d669949683a728f76919fe2cc9896216e00a81f884a01c3124f271ea52d9e881bdd52c63020fb7c08a1b96263030415e4bc8146db25ca02b6d4aa754fa44f0e86e6fa0a936048674ffc4fef24c5a2b317c740630901919a0c266c51508b93a8f933e2e64505e458ac26cdb93e8e0bc7bd1609552b6210aa5a0f49934500a155bedea4f0bf25bfc62161fcb74fbf17ca480333f4747d5ad824e",
  "unsignedCancun": "0x03f903428260a782024181a5856bb02a65c784be431918944d1060d970674619005137921969b4bfe3eea6b88595927b2d76b8717f2239c398167e747939f64b2ed9458db8aa10eb367bfab1976a0bc6693cf152dd8d13aa16e4d655a38d6ac64eae0932e13d649f9516fca834cd5a49c7b6e5ba1286a30eea1ac2e89c78441c5418250f8e307cc72c95ef36a8e4cee60b56ece34984ed3302672e6183d28ef30f3e43d60ff90274f89b948a632c23bf807681570c3fb6632ce99fd98bdb23f884a01c3124f271ea52d9e881bdd52c63020fb7c08a1b96263030415e4bc8146db25ca02b6d4aa754fa44f0e86e6fa0a936048674ffc4fef24c5a2b317c740630901919a0c266c51508b93a8f933e2e64505e458ac26cdb93e8e0bc7bd1609552b6210aa5a0f49934500a155bedea4f0bf25bfc62161fcb74fbf17ca480333f4747d5ad824ef89b942d78b31ba09e8a2888d655e3d000fe95c63789c4f884a01c3124f271ea52d9e881bdd52c63020fb7c08a1b96263030415e4bc8146db25ca02b6d4aa754fa44f0e86e6fa0a936048674ffc4fef24c5a2b317c740630901919a0c266c51508b93a8f933e2e64505e458ac26cdb93e8e0bc7bd1609552b6210aa5a0f49934500a155bedea4f0bf25bfc62161fcb74fbf17ca480333f4747d5ad824ef89b943199b3433ee7f3edcae901cbce64c4e81125f7daf884a01c3124f271ea52d9e881bdd52c63020fb7c08a1b96263030415e4bc8146db25ca02b6d4aa754fa44f0e86e6fa0a936048674ffc4fef24c5a2b317c740630901919a0c266c51508b93a8f933e2e64505e458ac26cdb93e8e0bc7bd1609552b6210aa5a0f49934500a155bedea4f0bf25bfc62161fcb74fbf17ca480333f4747d5ad824ef89b94b8d669949683a728f76919fe2cc9896216e00a81f884a01c3124f271ea52d9e881bdd52c63020fb7c08a1b96263030415e4bc8146db25ca02b6d4aa754fa44f0e86e6fa0a936048674ffc4fef24c5a2b317c740630901919a0c266c51508b93a8f933e2e64505e458ac26cdb93e8e0bc7bd1609552b6210aa5a0f49934500a155bedea4f0bf25bfc62161fcb74fbf17ca480333f4747d5ad824e8713c4c123e2373de1a0014a782765b51a031ac55ad44ba18bc6f003634892312bc06ee169486aabeab0",
  "signedLegacy": "0xf8df82024185b3b1aaeb5884be431918944d1060d970674619005137921969b4bfe3eea6b88595927b2d76b8717f2239c398167e747939f64b2ed9458db8aa10eb367bfab1976a0bc6693cf152dd8d13aa16e4d655a38d6ac64eae0932e13d649f9516fca834cd5a49c7b6e5ba1286a30eea1ac2e89c78441c5418250f8e307cc72c95ef36a8e4cee60b56ece34984ed3302672e6183d28ef30f3e43d60f1ba098cadec7a4cd4297f92828b79459baed65817cd8fcd40cb2025b750c8bb3d046a00c2e6848654d045d1502a9c1777bc917a63718e8a494dae94720f519ff07b3db",
  "signedEip155": "0xf8e182024185b3b1aaeb5884be431918944d1060d970674619005137921969b4bfe3eea6b88595927b2d76b8717f2239c398167e747939f64b2ed9458db8aa10eb367bfab1976a0bc6693cf152dd8d13aa16e4d655a38d6ac64eae0932e13d649f9516fca834cd5a49c7b6e5ba1286a30eea1ac2e89c78441c5418250f8e307cc72c95ef36a8e4cee60b56ece34984ed3302672e6183d28ef30f3e43d60f82c172a009f309ce844417f1035eff7a0b3bc191253843fb29068769f09fed81a464e622a0722660636b83fcac33759285b9704a5976b7cf9aeeceacab451702ff454469dc",
  "signedBerlin": "0x01f903598260a782024185b3b1aaeb5884be431918944d1060d970674619005137921969b4bfe3eea6b88595927b2d76b8717f2239c398167e747939f64b2ed9458db8aa10eb367bfab1976a0bc6693cf152dd8d13aa16e4d655a38d6ac64eae0932e13d649f9516fca834cd5a49c7b6e5ba1286a30eea1ac2e89c78441c5418250f8e307cc72c95ef36a8e4cee60b56ece34984ed3302672e6183d28ef30f3e43d60ff90274f89b948a632c23bf807681570c3fb6632ce99fd98bdb23f884a01c3124f271ea52d9e881bdd52c63020fb7c08a1b96263030415e4bc8146db25ca02b6d4aa754fa44f0e86e6fa0a936048674ffc4fef24c5a2b317c740630901919a0c266c51508b93a8f933e2e64505e458ac26cdb93e8e0bc7bd1609552b6210aa5a0f49934500a155bedea4f0bf25bfc62161fcb74fbf17ca480333f4747d5ad824ef89b942d78b31ba09e8a2888d655e3d000fe95c63789c4f884a01c3124f271ea52d9e881bdd52c63020fb7c08a1b96263030415e4bc8146db25ca02b6d4aa754fa44f0e86e6fa0a936048674ffc4fef24c5a2b317c740630901919a0c266c51508b93a8f933e2e64505e458ac26cdb93e8e0bc7bd1609552b6210aa5a0f49934500a155bedea4f0bf25bfc62161fcb74fbf17ca480333f4747d5ad824ef89b943199b3433ee7f3edcae901cbce64c4e81125f7daf884a01c3124f271ea52d9e881bdd52c63020fb7c08a1b96263030415e4bc8146db25ca02b6d4aa754fa44f0e86e6fa0a936048674ffc4fef24c5a2b317c740630901919a0c266c51508b93a8f933e2e64505e458ac26cdb93e8e0bc7bd1609552b6210aa5a0f49934500a155bedea4f0bf25bfc62161fcb74fbf17ca480333f4747d5ad824ef89b94b8d669949683a728f76919fe2cc9896216e00a81f884a01c3124f271ea52d9e881bdd52c63020fb7c08a1b96263030415e4bc8146db25ca02b6d4aa754fa44f0e86e6fa0a936048674ffc4fef24c5a2b317c740630901919a0c266c51508b93a8f933e2e64505e458ac26cdb93e8e0bc7bd1609552b6210aa5a0f49934500a155bedea4f0bf25bfc62161fcb74fbf17ca480333f4747d5ad824e01a07c8b37dd82c37b9783d328b99528bdbf4abdc7956d5e3da3a65f4a165e4acb74a04db2486fbb725825041d85e055d0adf75e02790041d668d13662717695436410",
  "signedLondon": "0x02f9035b8260a782024181a5856bb02a65c784be431918944d1060d970674619005137921969b4bfe3eea6b88595927b2d76b8717f2239c398167e747939f64b2ed9458db8aa10eb367bfab1976a0bc6693cf152dd8d13aa16e4d655a38d6ac64eae0932e13d649f9516fca834cd5a49c7b6e5ba1286a30eea1ac2e89c78441c5418250f8e307cc72c95ef36a8e4cee60b56ece34984ed3302672e6183d28ef30f3e43d60ff90274f89b948a632c23bf807681570c3fb6632ce99fd98bdb23f884a01c3124f271ea52d9e881bdd52c63020fb7c08a1b96263030415e4bc8146db25ca02b6d4aa754fa44f0e86e6fa0a936048674ffc4fef24c5a2b317c740630901919a0c266c51508b93a8f933e2e64505e458ac26cdb93e8e0bc7bd1609552b6210aa5a0f49934500a155bedea4f0bf25bfc62161fcb74fbf17ca480333f4747d5ad824ef89b942d78b31ba09e8a2888d655e3d000fe95c63789c4f884a01c3124f271ea52d9e881bdd52c63020fb7c08a1b96263030415e4bc8146db25ca02b6d4aa754fa44f0e86e6fa0a936048674ffc4fef24c5a2b317c740630901919a0c266c51508b93a8f933e2e64505e458ac26cdb93e8e0bc7bd1609552b6210aa5a0f49934500a155bedea4f0bf25bfc62161fcb74fbf17ca480333f4747d5ad824ef89b943199b3433ee7f3edcae901cbce64c4e81125f7daf884a01c3124f271ea52d9e881bdd52c63020fb7c08a1b96263030415e4bc8146db25ca02b6d4aa754fa44f0e86e6fa0a936048674ffc4fef24c5a2b317c740630901919a0c266c51508b93a8f933e2e64505e458ac26cdb93e8e0bc7bd1609552b6210aa5a0f49934500a155bedea4f0bf25bfc62161fcb74fbf17ca480333f4747d5ad824ef89b94b8d669949683a728f76919fe2cc9896216e00a81f884a01c3124f271ea52d9e881bdd52c63020fb7c08a1b96263030415e4bc8146db25ca02b6d4aa754fa44f0e86e6fa0a936048674ffc4fef24c5a2b317c740630901919a0c266c51508b93a8f933e2e64505e458ac26cdb93e8e0bc7bd1609552b6210aa5a0f49934500a155bedea4f0bf25bfc62161fcb74fbf17ca480333f4747d5ad824e01a09f9feb4b5bf570aa4f121fcc51de36dd7de80d0e4398f3dc99a6a615d12570c9a05d6f01ed28fda456c5f63f5f652735161cb5eede641262e296d62d94c7b628f8",
  "signedCancun": "0x03f903858260a782024181a5856bb02a65c784be431918944d1060d970674619005137921969b4bfe3eea6b88595927b2d76b8717f2239c398167e747939f64b2ed9458db8aa10eb367bfab1976a0bc6693cf152dd8d13aa16e4d655a38d6ac64eae0932e13d649f9516fca834cd5a49c7b6e5ba1286a30eea1ac2e89c78441c5418250f8e307cc72c95ef36a8e4cee60b56ece34984ed3302672e6183d28ef30f3e43d60ff90274f89b948a632c23bf807681570c3fb6632ce99fd98bdb23f884a01c3124f271ea52d9e881bdd52c63020fb7c08a1b96263030415e4bc8146db25ca02b6d4aa754fa44f0e86e6fa0a936048674ffc4fef24c5a2b317c740630901919a0c266c51508b93a8f933e2e64505e458ac26cdb93e8e0bc7bd1609552b6210aa5a0f49934500a155bedea4f0bf25bfc62161fcb74fbf17ca480333f4747d5ad824ef89b942d78b31ba09e8a2888d655e3d000fe95c63789c4f884a01c3124f271ea52d9e881bdd52c63020fb7c08a1b96263030415e4bc8146db25ca02b6d4aa754fa44f0e86e6fa0a936048674ffc4fef24c5a2b317c740630901919a0c266c51508b93a8f933e2e64505e458ac26cdb93e8e0bc7bd1609552b6210aa5a0f49934500a155bedea4f0bf25bfc62161fcb74fbf17ca480333f4747d5ad824ef89b943199b3433ee7f3edcae901cbce64c4e81125f7daf884a01c3124f271ea52d9e881bdd52c63020fb7c08a1b96263030415e4bc8146db25ca02b6d4aa754fa44f0e86e6fa0a936048674ffc4fef24c5a2b317c740630901919a0c266c51508b93a8f933e2e64505e458ac26cdb93e8e0bc7bd1609552b6210aa5a0f49934500a155bedea4f0bf25bfc62161fcb74fbf17ca480333f4747d5ad824ef89b94b8d669949683a728f76919fe2cc9896216e00a81f884a01c3124f271ea52d9e881bdd52c63020fb7c08a1b96263030415e4bc8146db25ca02b6d4aa754fa44f0e86e6fa0a936048674ffc4fef24c5a2b317c740630901919a0c266c51508b93a8f933e2e64505e458ac26cdb93e8e0bc7bd1609552b6210aa5a0f49934500a155bedea4f0bf25bfc62161fcb74fbf17ca480333f4747d5ad824e8713c4c123e2373de1a0014a782765b51a031ac55ad44ba18bc6f003634892312bc06ee169486aabeab001a033925f057eeeebb09785c26ff18a561741d30577c4eb97a064262592c279995ca04dd3a7404520f2d9b23fddc520c09fddccf0757248627616a6f7ea4f97e9e452",
  "signatureLegacy": {
    "r": "0x98cadec7a4cd4297f92828b79459baed65817cd8fcd40cb2025b750c8bb3d046",
    "s": "0x0c2e6848654d045d1502a9c1777bc917a63718e8a494dae94720f519ff07b3db",
    "v": "0x1b"
  },
  "signatureEip155": {
    "r": "0x09f309ce844417f1035eff7a0b3bc191253843fb29068769f09fed81a464e622",
    "s": "0x722660636b83fcac33759285b9704a5976b7cf9aeeceacab451702ff454469dc",
    "v": "0xc172"
  },
  "signatureBerlin": {
    "r": "0x7c8b37dd82c37b9783d328b99528bdbf4abdc7956d5e3da3a65f4a165e4acb74",
    "s": "0x4db2486fbb725825041d85e055d0adf75e02790041d668d13662717695436410",
    "v": "0x1"
  },
  "signatureLondon": {
    "r": "0x9f9feb4b5bf570aa4f121fcc51de36dd7de80d0e4398f3dc99a6a615d12570c9",
    "s": "0x5d6f01ed28fda456c5f63f5f652735161cb5eede641262e296d62d94c7b628f8",
    "v": "0x1"
  },
  "signatureCancun": {
    "r": "0x33925f057eeeebb09785c26ff18a561741d30577c4eb97a064262592c279995c",
    "s": "0x4dd3a7404520f2d9b23fddc520c09fddccf0757248627616a6f7ea4f97e9e452",
    "v": "0x1"
  }
}
