{
  "name": "random-14",
  "transaction": {
    "to": "0xd4Ed79414A9F8bF363E9CAaa5A74380716F7dBE0",
    "nonce": 355,
    "gasLimit": "0xc3393abf8e",
    "gasPrice": "0x530f336b",
    "maxFeePerGas": "0xc4550ba0e2",
    "maxPriorityFeePerGas": "0xf9fe",
    "data": "0x9421f8e15d313f08424f56798539e338ff345b530bef1256810200922813e50a176ca7e987dbedb94917acfe82",
    "value": "0x5590f0f87b",
    "accessList": [
      {
        "address": "0x3acE6cc41a8DF5B6518B24e6ecd490c13aCfC677",
        "storageKeys": []
      },
      {
        "address": "0x65F3540A4A7aa93d074A77313622786513f0199d",
        "storageKeys": []
      },
      {
        "address": "0x0dad5e012C02f680FB256bf6b0e0d9999c8c74A0",
        "storageKeys": []
      }
    ],
    "chainId": "0x602a",
    "maxFeePerBlobGas": "0xe61327d8d776ed",
    "blobVersionedHashes": [
      "0x0122070325084d4e3cba54d4dffef3501e22290c965e099620b3dbd48626b731",
      "0x018df851a2bdd53f12054dc427d35171bbc81e2141c0ef7afe94964e4cdd3c1f",
      "0x01386600d37c5951685dc66bc09b1a3e98c040621dde84b172cf93c30d66842f",
      "0x017f6d70f99ec3a8937f73f2da032c78dde8a6f831befc31fd23189ff66e4b07"
    ]
  },
  "privateKey": "0x6c268eef2efdb15a96ae69774e732b9214a3ebb03c0fd01602bc7a5fcd21c060",
  "unsignedLegacy": "0xf85782016384530f336b85c3393abf8e94d4ed79414a9f8bf363e9caaa5a74380716f7dbe0855590f0f87bad9421f8e15d313f08424f56798539e338ff345b530bef1256810200922813e50a176ca7e987dbedb94917acfe82",
  "unsignedEip155": "0xf85c82016384530f336b85c3393abf8e94d4ed79414a9f8bf363e9caaa5a74380716f7dbe0855590f0f87bad9421f8e15d313f08424f56798539e338ff345b530bef1256810200922813e50a176ca7e987dbedb94917acfe8282602a8080",
  "unsignedBerlin": "0x01f8a182602a82016384530f336b85c3393abf8e94d4ed79414a9f8bf363e9caaa5a74380716f7dbe0855590f0f87bad9421f8e15d313f08424f56798539e338ff345b530bef1256810200922813e50a176ca7e987dbedb94917acfe82f845d6943ace6cc41a8df5b6518b24e6ecd490c13acfc677c0d69465f3540a4a7aa93d074a77313622786513f0199dc0d6940dad5e012c02f680fb256bf6b0e0d9999c8c74a0c0",
  "unsignedLondon": "0x02f8a582602a82016382f9fe85c4550ba0e285c3393abf8e94d4ed79414a9f8bf363e9caaa5a74380716f7dbe0855590f0f87bad9421f8e15d313f08424f56798539e338ff345b530bef1256810200922813e50a176ca7e987dbedb94917acfe82f845d6943ace6cc41a8df5b6518b24e6ecd490c13acfc677c0d69465f3540a4a7aa93d074a77313622786513f0199dc0d6940dad5e012c02f680fb256bf6b0e0d9999c8c74a0c0",
  "unsignedCancun": "0x03f9013382602a82016382f9fe85c4550ba0e285c3393abf8e94d4ed79414a9f8bf363e9caaa5a74380716f7dbe0855590f0f87bad9421f8e15d313f08424f56798539e338ff345b530bef1256810200922813e50a176ca7e987dbedb94917acfe82f845d6943ace6cc41a8df5b6518b24e6ecd490c13acfc677c0d69465f3540a4a7aa93d074a77313622786513f0199dc0d6940dad5e012c02f680fb256bf6b0e0d9999c8c74a0c087e61327d8d776edf884a00122070325084d4e3cba54d4dffef3501e22290c965e099620b3dbd48626b731a0018df851a2bdd53f12054dc427d35171bbc81e2141c0ef7afe94964e4cdd3c1fa001386600d37c5951685dc66bc09b1a3e98c040621dde84b172cf93c30d66842fa0017f6d70f99ec3a8937f73f2da032c78dde8a6f831befc31fd23189ff66e4b07",
  "signedLegacy": "0xf89a82016384530f336b85c3393abf8e94d4ed79414a9f8bf363e9caaa5a74380716f7dbe0855590f0f87bad9421f8e15d313f08424f56798539e338ff345b530bef1256810200922813e50a176ca7e987dbedb94917acfe821ca03e5ece8f862a9b5d42b42c314dceef20c98a55ae8e89e76ea36574f2dbcd0a6fa06cf670f45c89f30ccf175619d7a48c30c0303d723e8c942afe3bf99bb622a365",
  "signedEip155": "0xf89c82016384530f336b85c3393abf8e94d4ed79414a9f8bf363e9caaa5a74380716f7dbe0855590f0f87bad9421f8e15d313f08424f56798539e338ff345b530bef1256810200922813e50a176ca7e987dbedb94917acfe8282c077a07984b5662bf52721770ca23a49f719f0dca47263a736a7cb6da28b359c3275d5a0080a94bd846cb4d5d71a41c78f5f4a893f9cd8316a52f3bba02b2e6d5865d13e",
  "signedBerlin": "0x01f8e482602a82016384530f336b85c3393abf8e94d4ed79414a9f8bf363e9caaa5a74380716f7dbe0855590f0f87bad9421f8e15d313f08424f56798539e338ff345b530bef1256810200922813e50a176ca7e987dbedb94917acfe82f845d6943ace6cc41a8df5b6518b24e6ecd490c13acfc677c0d69465f3540a4a7aa93d074a77313622786513f0199dc0d6940dad5e012c02f680fb256bf6b0e0d9999c8c74a0c001a0a0983d54539712f6f848fe9fad8631479338d8277207d75ccf4a26ae3ed34e79a00acd07196e5fa670c9109ced9ccf4722f2c33ae49eec06f14ea3766c6d0e7c3e",
  "signedLondon": "0x02f8e882602a82016382f9fe85c4550ba0e285c3393abf8e94d4ed79414a9f8bf363e9caaa5a74380716f7dbe0855590f0f87bad9421f8e15d313f08424f56798539e338ff345b530bef1256810200922813e50a176ca7e987dbedb94917acfe82f845d6943ace6cc41a8df5b6518b24e6ecd490c13acfc677c0d69465f3540a4a7aa93d074a77313622786513f0199dc0d6940dad5e012c02f680fb256bf6b0e0d9999c8c74a0c001a0990f968b8f06d13ac77614e1acd01591259050753e76bc7419062bdf6ac71a11a0201883043f4f176b82d7cc14ffd524f28fcf9cc490cea858bacac84d7373261a",
  "signedCancun": "0x03f9017682602a82016382f9fe85c4550ba0e285c3393abf8e94d4ed79414a9f8bf363e9caaa5a74380716f7dbe0855590f0f87bad9421f8e15d313f08424f56798539e338ff345b530bef1256810200922813e50a176ca7e987dbedb94917acfe82f845d6943ace6cc41a8df5b6518b24e6ecd490c13acfc677c0d69465f3540a4a7aa93d074a77313622786513f0199dc0d6940dad5e012c02f680fb256bf6b0e0d9999c8c74a0c087e61327d8d776edf884a00122070325084d4e3cba54d4dffef3501e22290c965e099620b3dbd48626b731a0018df851a2bdd53f12054dc427d35171bbc81e2141c0ef7afe94964e4cdd3c1fa001386600d37c5951685dc66bc09b1a3e98c040621dde84b172cf93c30d66842fa0017f6d70f99ec3a8937f73f2da032c78dde8a6f831befc31fd23189ff66e4b0780a0da2f7f2f95d6b3207aeb56b5b6aa5aa30a2674f90d338427674c8e5e7850f078a0646d4c7d050a38c73bf1f22b8ba41e2a84430c3550ec20843e885248cc90b53b",
  "signatureLegacy": {
    "r": "0x3e5ece8f862a9b5d42b42c314dceef20c98a55ae8e89e76ea36574f2dbcd0a6f",
    "s": "0x6cf670f45c89f30ccf175619d7a48c30c0303d723e8c942afe3bf99bb622a365",
    "v": "0x1c"
  },
  "signatureEip155": {
    "r": "0x7984b5662bf52721770ca23a49f719f0dca47263a736a7cb6da28b359c3275d5",
    "s": "0x080a94bd846cb4d5d71a41c78f5f4a893f9cd8316a52f3bba02b2e6d5865d13e",
    "v": "0xc077"
  },
  "signatureBerlin": {
    "r": "0xa0983d54539712f6f848fe9fad8631479338d8277207d75ccf4a26ae3ed34e79",
    "s": "0x0acd07196e5fa670c9109ced9ccf4722f2c33ae49eec06f14ea3766c6d0e7c3e",
    "v": "0x1"
  },
  "signatureLondon": {
    "r": "0x990f968b8f06d13ac77614e1acd01591259050753e76bc7419062bdf6ac71a11",
    "s": "0x201883043f4f176b82d7cc14ffd524f28fcf9cc490cea858bacac84d7373261a",
    "v": "0x1"
  },
  "signatureCancun": {
    "r": "0xda2f7f2f95d6b3207aeb56b5b6aa5aa30a2674f90d338427674c8e5e7850f078",
    "s": "0x646d4c7d050a38c73bf1f22b8ba41e2a84430c3550ec20843e885248cc90b53b",
    "v": "0x0"
  }
}
