{
  "name": "random-9",
  "transaction": {
    "to": "0x671a63481f6adf6e231296c3ec838d21919b5ec0",
    "nonce": 776,
    "gasLimit": "0x9054",
    "gasPrice": "0x23e8",
    "maxFeePerGas": "0x64b085b92ba07f",
    "maxPriorityFeePerGas": "0xbe",
    "data": "0x6e8a5785fbcffa9d6303b7a22818c0c67aa5e3b1c097aa35af45f95038224f7b1e0724b14a2de88e07469fa80c6c1e172353269d5bd75af8c91b77585a6aa1b99c462b9fbf7010a9b8f4194260bfb307da9ba5b6202da6f0ef6f",
    "value": "0x4f",
    "accessList": [],
    "chainId": "0xc5348f"
  },
  "privateKey": "0x63dd633e51d725e1f444b9a724729fb8bd052ec4737eceba804e846a32b4530c",
  "unsignedLegacy": "0xf87b8203088223e882905494671a63481f6adf6e231296c3ec838d21919b5ec04fb85a6e8a5785fbcffa9d6303b7a22818c0c67aa5e3b1c097aa35af45f95038224f7b1e0724b14a2de88e07469fa80c6c1e172353269d5bd75af8c91b77585a6aa1b99c462b9fbf7010a9b8f4194260bfb307da9ba5b6202da6f0ef6f",
  "unsignedEip155": "0xf8818203088223e882905494671a63481f6adf6e231296c3ec838d21919b5ec04fb85a6e8a5785fbcffa9d6303b7a22818c0c67aa5e3b1c097aa35af45f95038224f7b1e0724b14a2de88e07469fa80c6c1e172353269d5bd75af8c91b77585a6aa1b99c462b9fbf7010a9b8f4194260bfb307da9ba5b6202da6f0ef6f83c5348f8080",
  "unsignedBerlin": "0x01f88083c5348f8203088223e882905494671a63481f6adf6e231296c3ec838d21919b5ec04fb85a6e8a5785fbcffa9d6303b7a22818c0c67aa5e3b1c097aa35af45f95038224f7b1e0724b14a2de88e07469fa80c6c1e172353269d5bd75af8c91b77585a6aa1b99c462b9fbf7010a9b8f4194260bfb307da9ba5b6202da6f0ef6fc0",
  "unsignedLondon": "0x02f88783c5348f82030881be8764b085b92ba07f82905494671a63481f6adf6e231296c3ec838d21919b5ec04fb85a6e8a5785fbcffa9d6303b7a22818c0c67aa5e3b1c097aa35af45f95038224f7b1e0724b14a2de88e07469fa80c6c1e172353269d5bd75af8c91b77585a6aa1b99c462b9fbf7010a9b8f4194260bfb307da9ba5b6202da6f0ef6fc0",
  "signedLegacy": "0xf8be8203088223e882905494671a63481f6adf6e231296c3ec838d21919b5ec04fb85a6e8a5785fbcffa9d6303b7a22818c0c67aa5e3b1c097aa35af45f95038224f7b1e0724b14a2de88e07469fa80c6c1e172353269d5bd75af8c91b77585a6aa1b99c462b9fbf7010a9b8f4194260bfb307da9ba5b6202da6f0ef6f1ca01ba4cb9d02d9f6134669744078d95b63c3b38d583588b55243e0e0b8f7c69963a0113e9804a7f0a6640920a588ae61b5184e146f405126de4fc648f06f2c8b7f4c",
  "signedEip155": "0xf8c28203088223e882905494671a63481f6adf6e231296c3ec838d21919b5ec04fb85a6e8a5785fbcffa9d6303b7a22818c0c67aa5e3b1c097aa35af45f95038224f7b1e0724b14a2de88e07469fa80c6c1e172353269d5bd75af8c91b77585a6aa1b99c462b9fbf7010a9b8f4194260bfb307da9ba5b6202da6f0ef6f84018a6942a0716c97763d8f22ac55d0b88d902bd110056bf939312a516013c8aa2dbceadc13a019bc534ee7b32b84b620e25226c548986b9580037b3d3ac629f99ef753187f3d",
  "signedBerlin": "0x01f8c383c5348f8203088223e882905494671a63481f6adf6e231296c3ec838d21919b5ec04fb85a6e8a5785fbcffa9d6303b7a22818c0c67aa5e3b1c097aa35af45f95038224f7b1e0724b14a2de88e07469fa80c6c1e172353269d5bd75af8c91b77585a6aa1b99c462b9fbf7010a9b8f4194260bfb307da9ba5b6202da6f0ef6fc080a055365ec833949528788b92fc2af69b2cfb54a66dd8cc3ba2b4a1d8a6591919c9a0544b9ed543168d17422ebc80ce1815d27cbbdde622742db0e25e7aca584e4ce0",
  "signedLondon": "0x02f8ca83c5348f82030881be8764b085b92ba07f82905494671a63481f6adf6e231296c3ec838d21919b5ec04fb85a6e8a5785fbcffa9d6303b7a22818c0c67aa5e3b1c097aa35af45f95038224f7b1e0724b14a2de88e07469fa80c6c1e172353269d5bd75af8c91b77585a6aa1b99c462b9fbf7010a9b8f4194260bfb307da9ba5b6202da6f0ef6fc001a0391572016935a512bd615feb01a4e2fda6ed575944910914c800720a318308e6a01e29ffda8f42670b5eabfbd092792f40908d9cdd8234bc6f0a0218f513f754dd"
}
