{
  "name": "random-3",
  "transaction": {
    "to": "0x8bee13b1d7e29953a7484a3ae8e344d86b4ad2c5",
    "nonce": 530,
    "gasLimit": "0xcc",
    "gasPrice": "0xbb18956c",
    "maxFeePerGas": "0x6757f3c5",
    "maxPriorityFeePerGas": "0x41",
    "data": "0x5a492a854c4aaeceaa35f9cd275639e2319057a18f3c4d8bf242707b08a1a2a32531d3975a4dc67b8a92f5a11adbf12b6f8d8809d1544aed6f9da9b1f5e753307165e3e85afdbd563b0433b30c7b0f34f9b8b64c9600d28c83309131198d984f79284d6e2a5dd8ffeebc05f8",
    "value": "0xcc21b03b",
    "accessList": [],
    "chainId": "0x05"
  },
  "privateKey": "0xa9e5fdc17c2302fce888f2dc9d6ec2b3d3fc06aa212ec06b07f4035f64fcc58f",
  "unsignedLegacy": "0xf89282021284bb18956c81cc948bee13b1d7e29953a7484a3ae8e344d86b4ad2c584cc21b03bb86c5a492a854c4aaeceaa35f9cd275639e2319057a18f3c4d8bf242707b08a1a2a32531d3975a4dc67b8a92f5a11adbf12b6f8d8809d1544aed6f9da9b1f5e753307165e3e85afdbd563b0433b30c7b0f34f9b8b64c9600d28c83309131198d984f79284d6e2a5dd8ffeebc05f8",
  "unsignedEip155": "0xf89582021284bb18956c81cc948bee13b1d7e29953a7484a3ae8e344d86b4ad2c584cc21b03bb86c5a492a854c4aaeceaa35f9cd275639e2319057a18f3c4d8bf242707b08a1a2a32531d3975a4dc67b8a92f5a11adbf12b6f8d8809d1544aed6f9da9b1f5e753307165e3e85afdbd563b0433b30c7b0f34f9b8b64c9600d28c83309131198d984f79284d6e2a5dd8ffeebc05f8058080",
  "unsignedBerlin": "0x01f8940582021284bb18956c81cc948bee13b1d7e29953a7484a3ae8e344d86b4ad2c584cc21b03bb86c5a492a854c4aaeceaa35f9cd275639e2319057a18f3c4d8bf242707b08a1a2a32531d3975a4dc67b8a92f5a11adbf12b6f8d8809d1544aed6f9da9b1f5e753307165e3e85afdbd563b0433b30c7b0f34f9b8b64c9600d28c83309131198d984f79284d6e2a5dd8ffeebc05f8c0",
  "unsignedLondon": "0x02f8950582021241846757f3c581cc948bee13b1d7e29953a7484a3ae8e344d86b4ad2c584cc21b03bb86c5a492a854c4aaeceaa35f9cd275639e2319057a18f3c4d8bf242707b08a1a2a32531d3975a4dc67b8a92f5a11adbf12b6f8d8809d1544aed6f9da9b1f5e753307165e3e85afdbd563b0433b30c7b0f34f9b8b64c9600d28c83309131198d984f79284d6e2a5dd8ffeebc05f8c0",
  "signedLegacy": "0xf8d582021284bb18956c81cc948bee13b1d7e29953a7484a3ae8e344d86b4ad2c584cc21b03bb86c5a492a854c4aaeceaa35f9cd275639e2319057a18f3c4d8bf242707b08a1a2a32531d3975a4dc67b8a92f5a11adbf12b6f8d8809d1544aed6f9da9b1f5e753307165e3e85afdbd563b0433b30c7b0f34f9b8b64c9600d28c83309131198d984f79284d6e2a5dd8ffeebc05f81ba0f407c7789803f05c78785a9bfb6e8e59a9ee9ac1a77239b0e9d4635d2ffb086aa03e46c884f87cd0041ef0b9edf29d1b68309a2a4d299af3b9765737aa6daebcbf",
  "signedEip155": "0xf8d582021284bb18956c81cc948bee13b1d7e29953a7484a3ae8e344d86b4ad2c584cc21b03bb86c5a492a854c4aaeceaa35f9cd275639e2319057a18f3c4d8bf242707b08a1a2a32531d3975a4dc67b8a92f5a11adbf12b6f8d8809d1544aed6f9da9b1f5e753307165e3e85afdbd563b0433b30c7b0f34f9b8b64c9600d28c83309131198d984f79284d6e2a5dd8ffeebc05f82da0196ce43521805d15baaf6b91c82cb602902c1d7b0e7ebfe8e0d2c8ae75200bfea0535bfd76153464a3478e51b7684c0be53a4980cbfb130078cf086d87f2be8d28",
  "signedBerlin": "0x01f8d70582021284bb18956c81cc948bee13b1d7e29953a7484a3ae8e344d86b4ad2c584cc21b03bb86c5a492a854c4aaeceaa35f9cd275639e2319057a18f3c4d8bf242707b08a1a2a32531d3975a4dc67b8a92f5a11adbf12b6f8d8809d1544aed6f9da9b1f5e753307165e3e85afdbd563b0433b30c7b0f34f9b8b64c9600d28c83309131198d984f79284d6e2a5dd8ffeebc05f8c080a001c9bf9efd13c416e91c57947cf33d2fc7404ee6e8250e6c347638998666ce02a03be7b5ea7b8283c357931e18c0b8fd3b29c34f923f15ae9f9f67429c345357ba",
  "signedLondon": "0x02f8d80582021241846757f3c581cc948bee13b1d7e29953a7484a3ae8e344d86b4ad2c584cc21b03bb86c5a492a854c4aaeceaa35f9cd275639e2319057a18f3c4d8bf242707b08a1a2a32531d3975a4dc67b8a92f5a11adbf12b6f8d8809d1544aed6f9da9b1f5e753307165e3e85afdbd563b0433b30c7b0f34f9b8b64c9600d28c83309131198d984f79284d6e2a5dd8ffeebc05f8c001a076623bac3d594a90efba0240920a79fdd90d8b3746d6ff32698b58aebe7ac556a02e2df1187968f452d1d3ffd35f72e4291a363b2f94e193e8f43baed38af73675"
}
