{
  "name": "random-18",
  "transaction": {
    "to": "0x0bbe326563703d26cb074ef29ed04404ab1fd0cc",
    "nonce": 503,
    "gasLimit": "0xa5cd",
    "gasPrice": "0x2f2aa852",
    "maxFeePerGas": "0xf1114c1af459",
    "maxPriorityFeePerGas": "0xad41b4",
    "data": "0xbf440adf79ace31d2590393c7bbd5c191c2e40b4523e94b9c75afce3a871528a1d0027ea6a1ab8a28e74c26235a251a4d47cbb2e3ec7eab672f3505d",
    "value": "0x26",
    "accessList": [
      {
        "address": "0x47421dbf48444b1c15748ffb721ac9b341c35347",
        "storageKeys": [
          "0x1e4e2be542b128bf053d245b5efe9be008785740189d3b5b2324a395630c3279",
          "0xed8dbc976b685b16dc203291d38dd688d247ae09d2fea99189d5171ddcd7c90e",
          "0x4ba4902e9df30d2ea5dc662cfa7887d327dc09fcd28d3dbf5c64f5e78f5e599b"
        ]
      }
    ],
    "chainId": "0x"
  },
  "privateKey": "0xea795d7cacc6025f7bd6650aedd689f688617f9d8ca86236fa8ca5e654b767c4",
  "unsignedLegacy": "0xf85f8201f7842f2aa85282a5cd940bbe326563703d26cb074ef29ed04404ab1fd0cc26b83cbf440adf79ace31d2590393c7bbd5c191c2e40b4523e94b9c75afce3a871528a1d0027ea6a1ab8a28e74c26235a251a4d47cbb2e3ec7eab672f3505d",
  "unsignedEip155": "0xf8628201f7842f2aa85282a5cd940bbe326563703d26cb074ef29ed04404ab1fd0cc26b83cbf440adf79ace31d2590393c7bbd5c191c2e40b4523e94b9c75afce3a871528a1d0027ea6a1ab8a28e74c26235a251a4d47cbb2e3ec7eab672f3505d008080",
  "unsignedBerlin": "0x01f8de808201f7842f2aa85282a5cd940bbe326563703d26cb074ef29ed04404ab1fd0cc26b83cbf440adf79ace31d2590393c7bbd5c191c2e40b4523e94b9c75afce3a871528a1d0027ea6a1ab8a28e74c26235a251a4d47cbb2e3ec7eab672f3505df87cf87a9447421dbf48444b1c15748ffb721ac9b341c35347f863a01e4e2be542b128bf053d245b5efe9be008785740189d3b5b2324a395630c3279a0ed8dbc976b685b16dc203291d38dd688d247ae09d2fea99189d5171ddcd7c90ea04ba4902e9df30d2ea5dc662cfa7887d327dc09fcd28d3dbf5c64f5e78f5e599b",
  "unsignedLondon": "0x02f8e4808201f783ad41b486f1114c1af45982a5cd940bbe326563703d26cb074ef29ed04404ab1fd0cc26b83cbf440adf79ace31d2590393c7bbd5c191c2e40b4523e94b9c75afce3a871528a1d0027ea6a1ab8a28e74c26235a251a4d47cbb2e3ec7eab672f3505df87cf87a9447421dbf48444b1c15748ffb721ac9b341c35347f863a01e4e2be542b128bf053d245b5efe9be008785740189d3b5b2324a395630c3279a0ed8dbc976b685b16dc203291d38dd688d247ae09d2fea99189d5171ddcd7c90ea04ba4902e9df30d2ea5dc662cfa7887d327dc09fcd28d3dbf5c64f5e78f5e599b",
  "signedLegacy": "0xf8a28201f7842f2aa85282a5cd940bbe326563703d26cb074ef29ed04404ab1fd0cc26b83cbf440adf79ace31d2590393c7bbd5c191c2e40b4523e94b9c75afce3a871528a1d0027ea6a1ab8a28e74c26235a251a4d47cbb2e3ec7eab672f3505d1ba0d7c81460c2eff9ed90a1dbd355e64399530718de4a2b6c33b56b89408a11762ea01fded6e97659aa10f670f8cfcf5e31bf171208e4f59287c05f423dc0c995c593",
  "signedEip155": "0xf8a28201f7842f2aa85282a5cd940bbe326563703d26cb074ef29ed04404ab1fd0cc26b83cbf440adf79ace31d2590393c7bbd5c191c2e40b4523e94b9c75afce3a871528a1d0027ea6a1ab8a28e74c26235a251a4d47cbb2e3ec7eab672f3505d23a02cff8617d5d24dff4749d8fef89f6e33a9189c4eb16f3a98875fb3a8cd403148a01ffd79d2f41f9234e2c6689c0eb44f288c8340deb26de08ee0992d3d210770f4",
  "signedBerlin": "0x01f90121808201f7842f2aa85282a5cd940bbe326563703d26cb074ef29ed04404ab1fd0cc26b83cbf440adf79ace31d2590393c7bbd5c191c2e40b4523e94b9c75afce3a871528a1d0027ea6a1ab8a28e74c26235a251a4d47cbb2e3ec7eab672f3505df87cf87a9447421dbf48444b1c15748ffb721ac9b341c35347f863a01e4e2be542b128bf053d245b5efe9be008785740189d3b5b2324a395630c3279a0ed8dbc976b685b16dc203291d38dd688d247ae09d2fea99189d5171ddcd7c90ea04ba4902e9df30d2ea5dc662cfa7887d327dc09fcd28d3dbf5c64f5e78f5e599b80a0f203df70f0fcc3cfa3c9c6f0411674c8d38ab8f7e08c26a357c6deda632ab76ea07a7a51a9a8dfd3596aca2da07ac0174fe3f4ecbfe1ecebf24e2369319fefa163",
  "signedLondon": "0x02f90127808201f783ad41b486f1114c1af45982a5cd940bbe326563703d26cb074ef29ed04404ab1fd0cc26b83cbf440adf79ace31d2590393c7bbd5c191c2e40b4523e94b9c75afce3a871528a1d0027ea6a1ab8a28e74c26235a251a4d47cbb2e3ec7eab672f3505df87cf87a9447421dbf48444b1c15748ffb721ac9b341c35347f863a01e4e2be542b128bf053d245b5efe9be008785740189d3b5b2324a395630c3279a0ed8dbc976b685b16dc203291d38dd688d247ae09d2fea99189d5171ddcd7c90ea04ba4902e9df30d2ea5dc662cfa7887d327dc09fcd28d3dbf5c64f5e78f5e599b01a060a12e058540be40b0b02e53b7e6f9bdce3af8132aefe7b60fe4b6e81b9a25c9a07b4faa9b94f000ce3d26971eefd0756692b42caee97c9a81a380d748e083ef52"
}
