{
  "name": "random-7",
  "transaction": {
    "to": "0xD6E75AAf5C27963b31DD4Ad638e4C1d07b2Cc010",
    "nonce": 667,
    "gasLimit": "0x95ead5c7",
    "gasPrice": "0x86",
    "maxFeePerGas": "0x2e54dcae",
    "maxPriorityFeePerGas": "0x0cb9",
    "data": "0xe931d4333e6bb3d32f215bfdb13209a0905f740b180cadcea26405d9c79e108e50e87b78a1e7192c313e22f09632ed2882774f8e7536b7dfa987f7d063fc8db54ad5bd8d4977910294",
    "value": "0x632af6c3",
    "accessList": [
      {
        "address": "0xD0a4e08ACDA2A8B3AE50Db94DB3246C4a2F34b60",
        "storageKeys": [
          "0xe85938a8c29ab7b82264cc2e0822673fe17637364d6b384eb49f89e1adf61a11",
          "0x2c10ec7831da9a49dbf10818882d783f6511dda96c06b8ad2999aeb9f9f82d0b"
        ]
      },
      {
        "address": "0x3e4eE3DE26502A40C8dc33886c1bB7e079916194",
        "storageKeys": [
          "0xe85938a8c29ab7b82264cc2e0822673fe17637364d6b384eb49f89e1adf61a11",
          "0x2c10ec7831da9a49dbf10818882d783f6511dda96c06b8ad2999aeb9f9f82d0b"
        ]
      },
      {
        "address": "0xe54E80bd490910C719D5F11602a97FaE4D5C0F11",
        "storageKeys": [
          "0xe85938a8c29ab7b82264cc2e0822673fe17637364d6b384eb49f89e1adf61a11",
          "0x2c10ec7831da9a49dbf10818882d783f6511dda96c06b8ad2999aeb9f9f82d0b"
        ]
      },
      {
        "address": "0x6D1fd21ed3E7D4DE1F58361cB78De7a882dEcC79",
        "storageKeys": [
          "0xe85938a8c29ab7b82264cc2e0822673fe17637364d6b384eb49f89e1adf61a11",
          "0x2c10ec7831da9a49dbf10818882d783f6511dda96c06b8ad2999aeb9f9f82d0b"
        ]
      }
    ],
    "chainId": "0x295d",
    "maxFeePerBlobGas": "0xd76e69ca95e7",
    "blobVersionedHashes": [
      "0x01a7921375f6c2798377acd9c4db7719b9980b28c49dbc0ef3962381d961d725"
    ]
  },
  "privateKey": "0xa6fe9bfe96da66b7788f98b3107c588bee30ccc844e129a7772df540c3193239",
  "unsignedLegacy": "0xf86f82029b81868495ead5c794d6e75aaf5c27963b31dd4ad638e4c1d07b2cc01084632af6c3b849e931d4333e6bb3d32f215bfdb13209a0905f740b180cadcea26405d9c79e108e50e87b78a1e7192c313e22f09632ed2882774f8e7536b7dfa987f7d063fc8db54ad5bd8d4977910294",
  "unsignedEip155": "0xf87482029b81868495ead5c794d6e75aaf5c27963b31dd4ad638e4c1d07b2cc01084632af6c3b849e931d4333e6bb3d32f215bfdb13209a0905f740b180cadcea26405d9c79e108e50e87b78a1e7192c313e22f09632ed2882774f8e7536b7dfa987f7d063fc8db54ad5bd8d497791029482295d8080",
  "unsignedBerlin": "0x01f901e182295d82029b81868495ead5c794d6e75aaf5c27963b31dd4ad638e4c1d07b2cc01084632af6c3b849e931d4333e6bb3d32f215bfdb13209a0905f740b180cadcea26405d9c79e108e50e87b78a1e7192c313e22f09632ed2882774f8e7536b7dfa987f7d063fc8db54ad5bd8d4977910294f9016cf85994d0a4e08acda2a8b3ae50db94db3246c4a2f34b60f842a0e85938a8c29ab7b82264cc2e0822673fe17637364d6b384eb49f89e1adf61a11a02c10ec7831da9a49dbf10818882d783f6511dda96c06b8ad2999aeb9f9f82d0bf859943e4ee3de26502a40c8dc33886c1bb7e079916194f842a0e85938a8c29ab7b82264cc2e0822673fe17637364d6b384eb49f89e1adf61a11a02c10ec7831da9a49dbf10818882d783f6511dda96c06b8ad2999aeb9f9f82d0bf85994e54e80bd490910c719d5f11602a97fae4d5c0f11f842a0e85938a8c29ab7b82264cc2e0822673fe17637364d6b384eb49f89e1adf61a11a02c10ec7831da9a49dbf10818882d783f6511dda96c06b8ad2999aeb9f9f82d0bf859946d1fd21ed3e7d4de1f58361cb78de7a882decc79f842a0e85938a8c29ab7b82264cc2e0822673fe17637364d6b384eb49f89e1adf61a11a02c10ec7831da9a49dbf10818882d783f6511dda96c06b8ad2999aeb9f9f82d0b",
  "unsignedLondon": "0x02f901e782295d82029b820cb9842e54dcae8495ead5c794d6e75aaf5c27963b31dd4ad638e4c1d07b2cc01084632af6c3b849e931d4333e6bb3d32f215bfdb13209a0905f740b180cadcea26405d9c79e108e50e87b78a1e7192c313e22f09632ed2882774f8e7536b7dfa987f7d063fc8db54ad5bd8d4977910294f9016cf85994d0a4e08acda2a8b3ae50db94db3246c4a2f34b60f842a0e85938a8c29ab7b82264cc2e0822673fe17637364d6b384eb49f89e1adf61a11a02c10ec7831da9a49dbf10818882d783f6511dda96c06b8ad2999aeb9f9f82d0bf859943e4ee3de26502a40c8dc33886c1bb7e079916194f842a0e85938a8c29ab7b82264cc2e0822673fe17637364d6b384eb49f89e1adf61a11a02c10ec7831da9a49dbf10818882d783f6511dda96c06b8ad2999aeb9f9f82d0bf85994e54e80bd490910c719d5f11602a97fae4d5c0f11f842a0e85938a8c29ab7b82264cc2e0822673fe17637364d6b384eb49f89e1adf61a11a02c10ec7831da9a49dbf10818882d783f6511dda96c06b8ad2999aeb9f9f82d0bf859946d1fd21ed3e7d4de1f58361cb78de7a882decc79f842a0e85938a8c29ab7b82264cc2e0822673fe17637364d6b384eb49f89e1adf61a11a02c10ec7831da9a49dbf10818882d783f6511dda96c06b8ad2999aeb9f9f82d0b",
  "unsignedCancun": "0x03f9021082295d82029b820cb9842e54dcae8495ead5c794d6e75aaf5c27963b31dd4ad638e4c1d07b2cc01084632af6c3b849e931d4333e6bb3d32f215bfdb13209a0905f740b180cadcea26405d9c79e108e50e87b78a1e7192c313e22f09632ed2882774f8e7536b7dfa987f7d063fc8db54ad5bd8d4977910294f9016cf85994d0a4e08acda2a8b3ae50db94db3246c4a2f34b60f842a0e85938a8c29ab7b82264cc2e0822673fe17637364d6b384eb49f89e1adf61a11a02c10ec7831da9a49dbf10818882d783f6511dda96c06b8ad2999aeb9f9f82d0bf859943e4ee3de26502a40c8dc33886c1bb7e079916194f842a0e85938a8c29ab7b82264cc2e0822673fe17637364d6b384eb49f89e1adf61a11a02c10ec7831da9a49dbf10818882d783f6511dda96c06b8ad2999aeb9f9f82d0bf85994e54e80bd490910c719d5f11602a97fae4d5c0f11f842a0e85938a8c29ab7b82264cc2e0822673fe17637364d6b384eb49f89e1adf61a11a02c10ec7831da9a49dbf10818882d783f6511dda96c06b8ad2999aeb9f9f82d0bf859946d1fd21ed3e7d4de1f58361cb78de7a882decc79f842a0e85938a8c29ab7b82264cc2e0822673fe17637364d6b384eb49f89e1adf61a11a02c10ec7831da9a49dbf10818882d783f6511dda96c06b8ad2999aeb9f9f82d0b86d76e69ca95e7e1a001a7921375f6c2798377acd9c4db7719b9980b28c49dbc0ef3962381d961d725",
  "signedLegacy": "0xf8b282029b81868495ead5c794d6e75aaf5c27963b31dd4ad638e4c1d07b2cc01084632af6c3b849e931d4333e6bb3d32f215bfdb13209a0905f740b180cadcea26405d9c79e108e50e87b78a1e7192c313e22f09632ed2882774f8e7536b7dfa987f7d063fc8db54ad5bd8d49779102941ca02bacdc3053183b5f2a6f56ed6c2f126a6bbb592ef64d912bc704293d5620e188a0163d3e7cb0ad4ab63d10314c24728248699e5f5acebf84e84d67ca21ebe835ca",
  "signedEip155": "0xf8b482029b81868495ead5c794d6e75aaf5c27963b31dd4ad638e4c1d07b2cc01084632af6c3b849e931d4333e6bb3d32f215bfdb13209a0905f740b180cadcea26405d9c79e108e50e87b78a1e7192c313e22f09632ed2882774f8e7536b7dfa987f7d063fc8db54ad5bd8d49779102948252dda0988356e8e6b000200035901fa00b736677e25d01022d8e7ff0c6f9a9f44cb530a01d04ca133497f2a7f07a36022a132027df576c9d53935fee792fa6a01e2d18d0",
  "signedBerlin": "0x01f9022482295d82029b81868495ead5c794d6e75aaf5c27963b31dd4ad638e4c1d07b2cc01084632af6c3b849e931d4333e6bb3d32f215bfdb13209a0905f740b180cadcea26405d9c79e108e50e87b78a1e7192c313e22f09632ed2882774f8e7536b7dfa987f7d063fc8db54ad5bd8d4977910294f9016cf85994d0a4e08acda2a8b3ae50db94db3246c4a2f34b60f842a0e85938a8c29ab7b82264cc2e0822673fe17637364d6b384eb49f89e1adf61a11a02c10ec7831da9a49dbf10818882d783f6511dda96c06b8ad2999aeb9f9f82d0bf859943e4ee3de26502a40c8dc33886c1bb7e079916194f842a0e85938a8c29ab7b82264cc2e0822673fe17637364d6b384eb49f89e1adf61a11a02c10ec7831da9a49dbf10818882d783f6511dda96c06b8ad2999aeb9f9f82d0bf85994e54e80bd490910c719d5f11602a97fae4d5c0f11f842a0e85938a8c29ab7b82264cc2e0822673fe17637364d6b384eb49f89e1adf61a11a02c10ec7831da9a49dbf10818882d783f6511dda96c06b8ad2999aeb9f9f82d0bf859946d1fd21ed3e7d4de1f58361cb78de7a882decc79f842a0e85938a8c29ab7b82264cc2e0822673fe17637364d6b384eb49f89e1adf61a11a02c10ec7831da9a49dbf10818882d783f6511dda96c06b8ad2999aeb9f9f82d0b01a0f243d534dfae5cfb18cf59a41daa31520d91f03fc9b5830ee8a512dca82bbdcda02507b456d89080c847848fa2199998ffc363cbb0d4835ce8d03621980a3f135a",
  "signedLondon": "0x02f9022a82295d82029b820cb9842e54dcae8495ead5c794d6e75aaf5c27963b31dd4ad638e4c1d07b2cc01084632af6c3b849e931d4333e6bb3d32f215bfdb13209a0905f740b180cadcea26405d9c79e108e50e87b78a1e7192c313e22f09632ed2882774f8e7536b7dfa987f7d063fc8db54ad5bd8d4977910294f9016cf85994d0a4e08acda2a8b3ae50db94db3246c4a2f34b60f842a0e85938a8c29ab7b82264cc2e0822673fe17637364d6b384eb49f89e1adf61a11a02c10ec7831da9a49dbf10818882d783f6511dda96c06b8ad2999aeb9f9f82d0bf859943e4ee3de26502a40c8dc33886c1bb7e079916194f842a0e85938a8c29ab7b82264cc2e0822673fe17637364d6b384eb49f89e1adf61a11a02c10ec7831da9a49dbf10818882d783f6511dda96c06b8ad2999aeb9f9f82d0bf85994e54e80bd490910c719d5f11602a97fae4d5c0f11f842a0e85938a8c29ab7b82264cc2e0822673fe17637364d6b384eb49f89e1adf61a11a02c10ec7831da9a49dbf10818882d783f6511dda96c06b8ad2999aeb9f9f82d0bf859946d1fd21ed3e7d4de1f58361cb78de7a882decc79f842a0e85938a8c29ab7b82264cc2e0822673fe17637364d6b384eb49f89e1adf61a11a02c10ec7831da9a49dbf10818882d783f6511dda96c06b8ad2999aeb9f9f82d0b80a08e1d67786ffd5edb50e2aff66566c76a1523e9dcabc667b92f540f536d47bccea05d6a00e50ad155e59fbba841afda7592ec16788da4cfd895b447f4c13197d1ab",
  "signedCancun": "0x03f9025382295d82029b820cb9842e54dcae8495ead5c794d6e75aaf5c27963b31dd4ad638e4c1d07b2cc01084632af6c3b849e931d4333e6bb3d32f215bfdb13209a0905f740b180cadcea26405d9c79e108e50e87b78a1e7192c313e22f09632ed2882774f8e7536b7dfa987f7d063fc8db54ad5bd8d4977910294f9016cf85994d0a4e08acda2a8b3ae50db94db3246c4a2f34b60f842a0e85938a8c29ab7b82264cc2e0822673fe17637364d6b384eb49f89e1adf61a11a02c10ec7831da9a49dbf10818882d783f6511dda96c06b8ad2999aeb9f9f82d0bf859943e4ee3de26502a40c8dc33886c1bb7e079916194f842a0e85938a8c29ab7b82264cc2e0822673fe17637364d6b384eb49f89e1adf61a11a02c10ec7831da9a49dbf10818882d783f6511dda96c06b8ad2999aeb9f9f82d0bf85994e54e80bd490910c719d5f11602a97fae4d5c0f11f842a0e85938a8c29ab7b82264cc2e0822673fe17637364d6b384eb49f89e1adf61a11a02c10ec7831da9a49dbf10818882d783f6511dda96c06b8ad2999aeb9f9f82d0bf859946d1fd21ed3e7d4de1f58361cb78de7a882decc79f842a0e85938a8c29ab7b82264cc2e0822673fe17637364d6b384eb49f89e1adf61a11a02c10ec7831da9a49dbf10818882d783f6511dda96c06b8ad2999aeb9f9f82d0b86d76e69ca95e7e1a001a7921375f6c2798377acd9c4db7719b9980b28c49dbc0ef3962381d961d72501a006f7d3d75727c212f2e3fe74af34e4b7db7825291f919e1f291a36161c4d7867a07706e6e9c6b49b83157519cb113dab63707214ad2d9d3af77c65b671bd2958d8",
  "signatureLegacy": {
    "r": "0x2bacdc3053183b5f2a6f56ed6c2f126a6bbb592ef64d912bc704293d5620e188",
    "s": "0x163d3e7cb0ad4ab63d10314c24728248699e5f5acebf84e84d67ca21ebe835ca",
    "v": "0x1c"
  },
  "signatureEip155": {
    "r": "0x988356e8e6b000200035901fa00b736677e25d01022d8e7ff0c6f9a9f44cb530",
    "s": "0x1d04ca133497f2a7f07a36022a132027df576c9d53935fee792fa6a01e2d18d0",
    "v": "0x52dd"
  },
  "signatureBerlin": {
    "r": "0xf243d534dfae5cfb18cf59a41daa31520d91f03fc9b5830ee8a512dca82bbdcd",
    "s": "0x2507b456d89080c847848fa2199998ffc363cbb0d4835ce8d03621980a3f135a",
    "v": "0x1"
  },
  "signatureLondon": {
    "r": "0x8e1d67786ffd5edb50e2aff66566c76a1523e9dcabc667b92f540f536d47bcce",
    "s": "0x5d6a00e50ad155e59fbba841afda7592ec16788da4cfd895b447f4c13197d1ab",
    "v": "0x0"
  },
  "signatureCancun": {
    "r": "0x06f7d3d75727c212f2e3fe74af34e4b7db7825291f919e1f291a36161c4d7867",
    "s": "0x7706e6e9c6b49b83157519cb113dab63707214ad2d9d3af77c65b671bd2958d8",
    "v": "0x1"
  }
}
