{
  "name": "random-6",
  "transaction": {
    "to": "0x47F8627a7925083e80e0d94dBB979ce2c44A2c74",
    "nonce": 432,
    "gasLimit": "0xa1fca9f195",
    "gasPrice": "0x39",
    "maxFeePerGas": "0x98501809f1",
    "maxPriorityFeePerGas": "0xfb",
    "data": "0xc90411dca095641b87f3229df9e7613b2e73477c57fc4e28b4c06f436f9825b5aa4d839c3d07a8",
    "value": "0x79ef27",
    "accessList": [],
    "chainId": "0xf76e64",
    "maxFeePerBlobGas": "0x50799034",
    "blobVersionedHashes": [
      "0x01b7a799435fabc095b12caf67e311027aa01ac411f8c004f4ea493a982f3995",
      "0x01ec2843771aeee34beaff5727081888ad2e7367f88c14eec961fceb476b63a1"
    ]
  },
  "privateKey": "0xd9f6e52112da85a6f822054409e83460b9da070ce6c48843e4793c5720ad6910",
  "unsignedLegacy": "0xf84b8201b03985a1fca9f1959447f8627a7925083e80e0d94dbb979ce2c44a2c748379ef27a7c90411dca095641b87f3229df9e7613b2e73477c57fc4e28b4c06f436f9825b5aa4d839c3d07a8",
  "unsignedEip155": "0xf8518201b03985a1fca9f1959447f8627a7925083e80e0d94dbb979ce2c44a2c748379ef27a7c90411dca095641b87f3229df9e7613b2e73477c57fc4e28b4c06f436f9825b5aa4d839c3d07a883f76e648080",
  "unsignedBerlin": "0x01f85083f76e648201b03985a1fca9f1959447f8627a7925083e80e0d94dbb979ce2c44a2c748379ef27a7c90411dca095641b87f3229df9e7613b2e73477c57fc4e28b4c06f436f9825b5aa4d839c3d07a8c0",
  "unsignedLondon": "0x02f85783f76e648201b081fb8598501809f185a1fca9f1959447f8627a7925083e80e0d94dbb979ce2c44a2c748379ef27a7c90411dca095641b87f3229df9e7613b2e73477c57fc4e28b4c06f436f9825b5aa4d839c3d07a8c0",
  "unsignedCancun": "0x03f8a083f76e648201b081fb8598501809f185a1fca9f1959447f8627a7925083e80e0d94dbb979ce2c44a2c748379ef27a7c90411dca095641b87f3229df9e7613b2e73477c57fc4e28b4c06f436f9825b5aa4d839c3d07a8c08450799034f842a001b7a799435fabc095b12caf67e311027aa01ac411f8c004f4ea493a982f3995a001ec2843771aeee34beaff5727081888ad2e7367f88c14eec961fceb476b63a1",
  "signedLegacy": "0xf88e8201b03985a1fca9f1959447f8627a7925083e80e0d94dbb979ce2c44a2c748379ef27a7c90411dca095641b87f3229df9e7613b2e73477c57fc4e28b4c06f436f9825b5aa4d839c3d07a81ba091ad22bc10dbc50ad469a26c6be65d65213a54b5de2ea949f8b7f47ee641d0aba03e69a58405b8bdcd6e41097b828b222b02fa2bfd6b001616a15241c41275c2df",
  "signedEip155": "0xf8928201b03985a1fca9f1959447f8627a7925083e80e0d94dbb979ce2c44a2c748379ef27a7c90411dca095641b87f3229df9e7613b2e73477c57fc4e28b4c06f436f9825b5aa4d839c3d07a88401eedceba0b19933ddedae4fae6d63ed9ea7a4df4d1e48be652394203245429ef61e2728d6a033d8ab838c3eb536725ccd32ce73e75551eb660acd0608344887e838c41d7e3f",
  "signedBerlin": "0x01f89383f76e648201b03985a1fca9f1959447f8627a7925083e80e0d94dbb979ce2c44a2c748379ef27a7c90411dca095641b87f3229df9e7613b2e73477c57fc4e28b4c06f436f9825b5aa4d839c3d07a8c001a0538d5ec11ad5bc2755057e684243d103469145984c437d317a231cd4ed7f891fa02f6051be9067d1e9322dc667dbd22f423a27354134b5070819f262eb85e8f754",
  "signedLondon": "0x02f89a83f76e648201b081fb8598501809f185a1fca9f1959447f8627a7925083e80e0d94dbb979ce2c44a2c748379ef27a7c90411dca095641b87f3229df9e7613b2e73477c57fc4e28b4c06f436f9825b5aa4d839c3d07a8c080a07e88de3723e5ed269a26ebb27c5edf39da43e0246506f7c20861c286ed2e0118a0304a806691fee1223b8b505dc97142ad8eefaf949a7d8828e0483659accecfdd",
  "signedCancun": "0x03f8e383f76e648201b081fb8598501809f185a1fca9f1959447f8627a7925083e80e0d94dbb979ce2c44a2c748379ef27a7c90411dca095641b87f3229df9e7613b2e73477c57fc4e28b4c06f436f9825b5aa4d839c3d07a8c08450799034f842a001b7a799435fabc095b12caf67e311027aa01ac411f8c004f4ea493a982f3995a001ec2843771aeee34beaff5727081888ad2e7367f88c14eec961fceb476b63a180a0b5f9efc37373be1d360b8f6a5dc88e111e4cad78b320aee3196fa8a413034a19a00747b3ad2aa3abce5b73d940d7f10990cd7ef496e6315e8143b122f83b9ae149",
  "signatureLegacy": {
    "r": "0x91ad22bc10dbc50ad469a26c6be65d65213a54b5de2ea949f8b7f47ee641d0ab",
    "s": "0x3e69a58405b8bdcd6e41097b828b222b02fa2bfd6b001616a15241c41275c2df",
    "v": "0x1b"
  },
  "signatureEip155": {
    "r": "0xb19933ddedae4fae6d63ed9ea7a4df4d1e48be652394203245429ef61e2728d6",
    "s": "0x33d8ab838c3eb536725ccd32ce73e75551eb660acd0608344887e838c41d7e3f",
    "v": "0x1eedceb"
  },
  "signatureBerlin": {
    "r": "0x538d5ec11ad5bc2755057e684243d103469145984c437d317a231cd4ed7f891f",
    "s": "0x2f6051be9067d1e9322dc667dbd22f423a27354134b5070819f262eb85e8f754",
    "v": "0x1"
  },
  "signatureLondon": {
    "r": "0x7e88de3723e5ed269a26ebb27c5edf39da43e0246506f7c20861c286ed2e0118",
    "s": "0x304a806691fee1223b8b505dc97142ad8eefaf949a7d8828e0483659accecfdd",
    "v": "0x0"
  },
  "signatureCancun": {
    "r": "0xb5f9efc37373be1d360b8f6a5dc88e111e4cad78b320aee3196fa8a413034a19",
    "s": "0x0747b3ad2aa3abce5b73d940d7f10990cd7ef496e6315e8143b122f83b9ae149",
    "v": "0x0"
  }
}
