{
  "name": "random-10",
  "transaction": {
    "to": "0xe80b2a2b7a84c886319fab83df55e63c7539d2e7",
    "nonce": 11,
    "gasLimit": "0x66745b0460",
    "gasPrice": "0x19b27a8a",
    "maxFeePerGas": "0x9bc10525",
    "maxPriorityFeePerGas": "0xde6421",
    "data": "0xc67a6a742250a5b9144dbfac7342e66a31df07bc2de714d5700d4a328600e6c274a8713cd12df6c64ca6f8088e1a49108dc171457cfcc9a4daf0625786bdf689e568fd61a63a953184",
    "value": "0x452f964f",
    "accessList": [
      {
        "address": "0x9c1010ebd297f0af2110e4be1356a99e088b70b0",
        "storageKeys": [
          "0x8f4489956d5c84285dd2337de059733fd7caff5e3bc562d2e19f4c8416f7adcd",
          "0xecacb47c7f3b429a188ae196d5f6905999bdd4909022d3d5b3566399ef44b513"
        ]
      }
    ],
    "chainId": "0x4e33268b"
  },
  "privateKey": "0x937f09851dd891844eee05f469dc776fe07a398b47ee3d064460f74fb00b8454",
  "unsignedLegacy": "0xf8710b8419b27a8a8566745b046094e80b2a2b7a84c886319fab83df55e63c7539d2e784452f964fb849c67a6a742250a5b9144dbfac7342e66a31df07bc2de714d5700d4a328600e6c274a8713cd12df6c64ca6f8088e1a49108dc171457cfcc9a4daf0625786bdf689e568fd61a63a953184",
  "unsignedEip155": "0xf8780b8419b27a8a8566745b046094e80b2a2b7a84c886319fab83df55e63c7539d2e784452f964fb849c67a6a742250a5b9144dbfac7342e66a31df07bc2de714d5700d4a328600e6c274a8713cd12df6c64ca6f8088e1a49108dc171457cfcc9a4daf0625786bdf689e568fd61a63a953184844e33268b8080",
  "unsignedBerlin": "0x01f8d3844e33268b0b8419b27a8a8566745b046094e80b2a2b7a84c886319fab83df55e63c7539d2e784452f964fb849c67a6a742250a5b9144dbfac7342e66a31df07bc2de714d5700d4a328600e6c274a8713cd12df6c64ca6f8088e1a49108dc171457cfcc9a4daf0625786bdf689e568fd61a63a953184f85bf859949c1010ebd297f0af2110e4be1356a99e088b70b0f842a08f4489956d5c84285dd2337de059733fd7caff5e3bc562d2e19f4c8416f7adcda0ecacb47c7f3b429a188ae196d5f6905999bdd4909022d3d5b3566399ef44b513",
  "unsignedLondon": "0x02f8d7844e33268b0b83de6421849bc105258566745b046094e80b2a2b7a84c886319fab83df55e63c7539d2e784452f964fb849c67a6a742250a5b9144dbfac7342e66a31df07bc2de714d5700d4a328600e6c274a8713cd12df6c64ca6f8088e1a49108dc171457cfcc9a4daf0625786bdf689e568fd61a63a953184f85bf859949c1010ebd297f0af2110e4be1356a99e088b70b0f842a08f4489956d5c84285dd2337de059733fd7caff5e3bc562d2e19f4c8416f7adcda0ecacb47c7f3b429a188ae196d5f6905999bdd4909022d3d5b3566399ef44b513",
  "signedLegacy": "0xf8b40b8419b27a8a8566745b046094e80b2a2b7a84c886319fab83df55e63c7539d2e784452f964fb849c67a6a742250a5b9144dbfac7342e66a31df07bc2de714d5700d4a328600e6c274a8713cd12df6c64ca6f8088e1a49108dc171457cfcc9a4daf0625786bdf689e568fd61a63a9531841ba0f9c1a46fcbbeaa4915050ffc5e33043e372ab5b8e55e40c99bcea824b07ae62ba03a78b26033934d062ab52ac1b527df5b27bd08ced030d392832c89ca779dcc93",
  "signedEip155": "0xf8b80b8419b27a8a8566745b046094e80b2a2b7a84c886319fab83df55e63c7539d2e784452f964fb849c67a6a742250a5b9144dbfac7342e66a31df07bc2de714d5700d4a328600e6c274a8713cd12df6c64ca6f8088e1a49108dc171457cfcc9a4daf0625786bdf689e568fd61a63a953184849c664d3aa03c3a61e29287369d8e4a94a8ffdebaae0f1d036cdaa1293e901578ce631e041ea04809666ee8ae0992b146cc0cb59b882feff93da7fc4e5d808a0afb8490db6f22",
  "signedBerlin": "0x01f90116844e33268b0b8419b27a8a8566745b046094e80b2a2b7a84c886319fab83df55e63c7539d2e784452f964fb849c67a6a742250a5b9144dbfac7342e66a31df07bc2de714d5700d4a328600e6c274a8713cd12df6c64ca6f8088e1a49108dc171457cfcc9a4daf0625786bdf689e568fd61a63a953184f85bf859949c1010ebd297f0af2110e4be1356a99e088b70b0f842a08f4489956d5c84285dd2337de059733fd7caff5e3bc562d2e19f4c8416f7adcda0ecacb47c7f3b429a188ae196d5f6905999bdd4909022d3d5b3566399ef44b51380a06cdf8c6a82f550e366235fb1bfe589a0307ba5f17966b5a6ffcc6d820278db39a05e3f00b0cbb18d61c4cc4c782d5624206008994dcdb80da0275ef01d6f37ace5",
  "signedLondon": "0x02f9011a844e33268b0b83de6421849bc105258566745b046094e80b2a2b7a84c886319fab83df55e63c7539d2e784452f964fb849c67a6a742250a5b9144dbfac7342e66a31df07bc2de714d5700d4a328600e6c274a8713cd12df6c64ca6f8088e1a49108dc171457cfcc9a4daf0625786bdf689e568fd61a63a953184f85bf859949c1010ebd297f0af2110e4be1356a99e088b70b0f842a08f4489956d5c84285dd2337de059733fd7caff5e3bc562d2e19f4c8416f7adcda0ecacb47c7f3b429a188ae196d5f6905999bdd4909022d3d5b3566399ef44b51380a00a3ba242a9a4bf15c97a6fcbd1913a052494b5f25f311a32b4f05e92d9e7d649a00722aea8ca47702aaa7cc34c850619d3d4964603c9cedaf6ff228b3b7af08172"
}
