{
  "name": "random-1",
  "transaction": {
    "to": "0x2E806e1F4B2C1Bc500E41b882213648Af39Dd4A2",
    "nonce": 613,
    "gasLimit": "0x3a",
    "gasPrice": "0xf6",
    "maxFeePerGas": "0x76cf803ef8c9",
    "maxPriorityFeePerGas": "0x45",
    "data": "0xb2f1646d",
    "value": "0x45",
    "accessList": [],
    "chainId": "0xdf",
    "maxFeePerBlobGas": "0x2e070f634f12e6",
    "blobVersionedHashes": [
      "0x0155aa189900c1c076d1a6ca7d1e65f09e62c5e4f0e929c0607c1ab2582b658a"
    ]
  },
  "privateKey": "0xdde87f54e7dc562364d8559a1777b684a9121d132c4b4237e2534bd5a090166c",
  "unsignedLegacy": "0xe182026581f63a942e806e1f4b2c1bc500e41b882213648af39dd4a24584b2f1646d",
  "unsignedEip155": "0xe582026581f63a942e806e1f4b2c1bc500e41b882213648af39dd4a24584b2f1646d81df8080",
  "unsignedBerlin": "0x01e481df82026581f63a942e806e1f4b2c1bc500e41b882213648af39dd4a24584b2f1646dc0",
  "unsignedLondon": "0x02ea81df820265458676cf803ef8c93a942e806e1f4b2c1bc500e41b882213648af39dd4a24584b2f1646dc0",
  "unsignedCancun": "0x03f85481df820265458676cf803ef8c93a942e806e1f4b2c1bc500e41b882213648af39dd4a24584b2f1646dc0872e070f634f12e6e1a00155aa189900c1c076d1a6ca7d1e65f09e62c5e4f0e929c0607c1ab2582b658a",
  "signedLegacy": "0xf86482026581f63a942e806e1f4b2c1bc500e41b882213648af39dd4a24584b2f1646d1ca0c02ac8b415eefbe6ea2437788d50774aad5eda4c66a8c146b599b08ab67fac62a0491bf160ad32783a281f77c86f12483e1ce9a661680f05e54f6836f3048338f8",
  "signedEip155": "0xf86682026581f63a942e806e1f4b2c1bc500e41b882213648af39dd4a24584b2f1646d8201e1a0f08888fa9e155e7bbab69c3c1b30f8979de3dabcfe4ee848c99c5130a2dc6628a05e9b300a85b9ca65dabfa1b4718171abbd8393e9f9f01c6b0c628b575808bc84",
  "signedBerlin": "0x01f86781df82026581f63a942e806e1f4b2c1bc500e41b882213648af39dd4a24584b2f1646dc001a0f87200f49113aac563b703d7056f0bc21961cf72d4bd16ce814bb972182d95b8a023fca36c0c37daadeb1d067efb3e574089c77aa1832f83b6e6a5d48f7900ca33",
  "signedLondon": "0x02f86d81df820265458676cf803ef8c93a942e806e1f4b2c1bc500e41b882213648af39dd4a24584b2f1646dc001a00633d97e07870e5c1fa9e4f9f8beb169396225d5c691fddcf41ce3a3ea121e1ca0057f715c06932e29d5a4d8b70019c974a34d59e44e4ded4df7f5726ec8e87780",
  "signedCancun": "0x03f89781df820265458676cf803ef8c93a942e806e1f4b2c1bc500e41b882213648af39dd4a24584b2f1646dc0872e070f634f12e6e1a00155aa189900c1c076d1a6ca7d1e65f09e62c5e4f0e929c0607c1ab2582b658a80a0392799f17b5f8c1cc8bfb7a29381a717c1b1298e4e3b9218be14c05ec32e50a3a03678448fa6438aee13af5e189fd4e45bd13b014882bc66fdcd9897e9732fb93b",
  "signatureLegacy": {
    "r": "0xc02ac8b415eefbe6ea2437788d50774aad5eda4c66a8c146b599b08ab67fac62",
    "s": "0x491bf160ad32783a281f77c86f12483e1ce9a661680f05e54f6836f3048338f8",
    "v": "0x1c"
  },
  "signatureEip155": {
    "r": "0xf08888fa9e155e7bbab69c3c1b30f8979de3dabcfe4ee848c99c5130a2dc6628",
    "s": "0x5e9b300a85b9ca65dabfa1b4718171abbd8393e9f9f01c6b0c628b575808bc84",
    "v": "0x1e1"
  },
  "signatureBerlin": {
    "r": "0xf87200f49113aac563b703d7056f0bc21961cf72d4bd16ce814bb972182d95b8",
    "s": "0x23fca36c0c37daadeb1d067efb3e574089c77aa1832f83b6e6a5d48f7900ca33",
    "v": "0x1"
  },
  "signatureLondon": {
    "r": "0x0633d97e07870e5c1fa9e4f9f8beb169396225d5c691fddcf41ce3a3ea121e1c",
    "s": "0x057f715c06932e29d5a4d8b70019c974a34d59e44e4ded4df7f5726ec8e87780",
    "v": "0x1"
  },
  "signatureCancun": {
    "r": "0x392799f17b5f8c1cc8bfb7a29381a717c1b1298e4e3b9218be14c05ec32e50a3",
    "s": "0x3678448fa6438aee13af5e189fd4e45bd13b014882bc66fdcd9897e9732fb93b",
    "v": "0x0"
  }
}
