{
  "name": "random-4",
  "transaction": {
    "to": "0xf5c58b3aC42d718024e914d90a0C17CeB4487F08",
    "nonce": 150,
    "gasLimit": "0x9b",
    "gasPrice": "0x75fa",
    "maxFeePerGas": "0x92719aae8f72c2",
    "maxPriorityFeePerGas": "0xa16d",
    "data": "0xfdcd0c62ddc8b8c99d6768d3fe3097a66b388998e8f6294b69c95751da898430b9c9e7b02602393a9dc2026918c7741f4097e1de373a5b8d884d02e66b06742b29cc539a22675f5713a1ba9d247b9c9eaabf54f9cb48cc8f7429c80c31b3cbfa8a",
    "value": "0x9c5b0d",
    "accessList": [],
    "chainId": "0x100800",
    "maxFeePerBlobGas": "0xeac37693",
    "blobVersionedHashes": [
      "0x017a6fb74091418b95e7679cdb19efd23cb1a7de4f8d818ae3206e33b8e524eb",
      "0x01e4398d25da2fec20b713fe51b4cc7f555a473c4928e7e5a0f7be47761d4d9c",
      "0x01fa7aff790b19c63de804524b5e37b459fd5b8614008d0ef4fd513dcb9361fc",
      "0x01af1c40ffd00db8e91a537456d387c8e788276b13212ce917514456bb7b69bb"
    ]
  },
  "privateKey": "0xaf7e4892d96c6cd39bb8048b699386b24539fb8fb078f67e190fd3703f972f55",
  "unsignedLegacy": "0xf88381968275fa819b94f5c58b3ac42d718024e914d90a0c17ceb4487f08839c5b0db861fdcd0c62ddc8b8c99d6768d3fe3097a66b388998e8f6294b69c95751da898430b9c9e7b02602393a9dc2026918c7741f4097e1de373a5b8d884d02e66b06742b29cc539a22675f5713a1ba9d247b9c9eaabf54f9cb48cc8f7429c80c31b3cbfa8a",
  "unsignedEip155": "0xf88981968275fa819b94f5c58b3ac42d718024e914d90a0c17ceb4487f08839c5b0db861fdcd0c62ddc8b8c99d6768d3fe3097a66b388998e8f6294b69c95751da898430b9c9e7b02602393a9dc2026918c7741f4097e1de373a5b8d884d02e66b06742b29cc539a22675f5713a1ba9d247b9c9eaabf54f9cb48cc8f7429c80c31b3cbfa8a831008008080",
  "unsignedBerlin": "0x01f8888310080081968275fa819b94f5c58b3ac42d718024e914d90a0c17ceb4487f08839c5b0db861fdcd0c62ddc8b8c99d6768d3fe3097a66b388998e8f6294b69c95751da898430b9c9e7b02602393a9dc2026918c7741f4097e1de373a5b8d884d02e66b06742b29cc539a22675f5713a1ba9d247b9c9eaabf54f9cb48cc8f7429c80c31b3cbfa8ac0",
  "unsignedLondon": "0x02f89083100800819682a16d8792719aae8f72c2819b94f5c58b3ac42d718024e914d90a0c17ceb4487f08839c5b0db861fdcd0c62ddc8b8c99d6768d3fe3097a66b388998e8f6294b69c95751da898430b9c9e7b02602393a9dc2026918c7741f4097e1de373a5b8d884d02e66b06742b29cc539a22675f5713a1ba9d247b9c9eaabf54f9cb48cc8f7429c80c31b3cbfa8ac0",
  "unsignedCancun": "0x03f9011b83100800819682a16d8792719aae8f72c2819b94f5c58b3ac42d718024e914d90a0c17ceb4487f08839c5b0db861fdcd0c62ddc8b8c99d6768d3fe3097a66b388998e8f6294b69c95751da898430b9c9e7b02602393a9dc2026918c7741f4097e1de373a5b8d884d02e66b06742b29cc539a22675f5713a1ba9d247b9c9eaabf54f9cb48cc8f7429c80c31b3cbfa8ac084eac37693f884a0017a6fb74091418b95e7679cdb19efd23cb1a7de4f8d818ae3206e33b8e524eba001e4398d25da2fec20b713fe51b4cc7f555a473c4928e7e5a0f7be47761d4d9ca001fa7aff790b19c63de804524b5e37b459fd5b8614008d0ef4fd513dcb9361fca001af1c40ffd00db8e91a537456d387c8e788276b13212ce917514456bb7b69bb",
  "signedLegacy": "0xf8c681968275fa819b94f5c58b3ac42d718024e914d90a0c17ceb4487f08839c5b0db861fdcd0c62ddc8b8c99d6768d3fe3097a66b388998e8f6294b69c95751da898430b9c9e7b02602393a9dc2026918c7741f4097e1de373a5b8d884d02e66b06742b29cc539a22675f5713a1ba9d247b9c9eaabf54f9cb48cc8f7429c80c31b3cbfa8a1ba079230da6c89f320a59fe2f291f51e758e1e642851e2c6b6b8c4b3a32b1a75c4ba04a160e0e100e4244596580586abe09d7d3423e967ca417d3d3980a6609e94030",
  "signedEip155": "0xf8c981968275fa819b94f5c58b3ac42d718024e914d90a0c17ceb4487f08839c5b0db861fdcd0c62ddc8b8c99d6768d3fe3097a66b388998e8f6294b69c95751da898430b9c9e7b02602393a9dc2026918c7741f4097e1de373a5b8d884d02e66b06742b29cc539a22675f5713a1ba9d247b9c9eaabf54f9cb48cc8f7429c80c31b3cbfa8a83201023a08cbd6e5a98913d543e56fc8b8865adb020e081501c3549d54bfa5f1250666e84a04c364c7a1fdbc76a890b4468e2f7957fb340c78ea98793c304141a449adfa9b0",
  "signedBerlin": "0x01f8cb8310080081968275fa819b94f5c58b3ac42d718024e914d90a0c17ceb4487f08839c5b0db861fdcd0c62ddc8b8c99d6768d3fe3097a66b388998e8f6294b69c95751da898430b9c9e7b02602393a9dc2026918c7741f4097e1de373a5b8d884d02e66b06742b29cc539a22675f5713a1ba9d247b9c9eaabf54f9cb48cc8f7429c80c31b3cbfa8ac080a05c5fd1ac646c437d17e22ea102147265371d1358814c57346d1448ed6703d042a01e525dbe3024c1ac10b1229c7d69b4af119c60ae3b45eab73ee9c61926dbd91a",
  "signedLondon": "0x02f8d383100800819682a16d8792719aae8f72c2819b94f5c58b3ac42d718024e914d90a0c17ceb4487f08839c5b0db861fdcd0c62ddc8b8c99d6768d3fe3097a66b388998e8f6294b69c95751da898430b9c9e7b02602393a9dc2026918c7741f4097e1de373a5b8d884d02e66b06742b29cc539a22675f5713a1ba9d247b9c9eaabf54f9cb48cc8f7429c80c31b3cbfa8ac080a0c5817c5fca256b8084f994686f21a22e815f49049c1d7126dba60578a8dcecfba07756dd3accb21c6994c079795e3edc068e1c434c33109580215073701958f29d",
  "signedCancun": "0x03f9015e83100800819682a16d8792719aae8f72c2819b94f5c58b3ac42d718024e914d90a0c17ceb4487f08839c5b0db861fdcd0c62ddc8b8c99d6768d3fe3097a66b388998e8f6294b69c95751da898430b9c9e7b02602393a9dc2026918c7741f4097e1de373a5b8d884d02e66b06742b29cc539a22675f5713a1ba9d247b9c9eaabf54f9cb48cc8f7429c80c31b3cbfa8ac084eac37693f884a0017a6fb74091418b95e7679cdb19efd23cb1a7de4f8d818ae3206e33b8e524eba001e4398d25da2fec20b713fe51b4cc7f555a473c4928e7e5a0f7be47761d4d9ca001fa7aff790b19c63de804524b5e37b459fd5b8614008d0ef4fd513dcb9361fca001af1c40ffd00db8e91a537456d387c8e788276b13212ce917514456bb7b69bb01a0b96f5303bcbb749f5fbf6c1d918eb08bfefe05242bfd2c4b9a9a55efb5b686ffa050b83d2a4dfcaa66b0339df55910ea553bbce6f22d4ab5e8c8562ddb15a03999",
  "signatureLegacy": {
    "r": "0x79230da6c89f320a59fe2f291f51e758e1e642851e2c6b6b8c4b3a32b1a75c4b",
    "s": "0x4a160e0e100e4244596580586abe09d7d3423e967ca417d3d3980a6609e94030",
    "v": "0x1b"
  },
  "signatureEip155": {
    "r": "0x8cbd6e5a98913d543e56fc8b8865adb020e081501c3549d54bfa5f1250666e84",
    "s": "0x4c364c7a1fdbc76a890b4468e2f7957fb340c78ea98793c304141a449adfa9b0",
    "v": "0x201023"
  },
  "signatureBerlin": {
    "r": "0x5c5fd1ac646c437d17e22ea102147265371d1358814c57346d1448ed6703d042",
    "s": "0x1e525dbe3024c1ac10b1229c7d69b4af119c60ae3b45eab73ee9c61926dbd91a",
    "v": "0x0"
  },
  "signatureLondon": {
    "r": "0xc5817c5fca256b8084f994686f21a22e815f49049c1d7126dba60578a8dcecfb",
    "s": "0x7756dd3accb21c6994c079795e3edc068e1c434c33109580215073701958f29d",
    "v": "0x0"
  },
  "signatureCancun": {
    "r": "0xb96f5303bcbb749f5fbf6c1d918eb08bfefe05242bfd2c4b9a9a55efb5b686ff",
    "s": "0x50b83d2a4dfcaa66b0339df55910ea553bbce6f22d4ab5e8c8562ddb15a03999",
    "v": "0x1"
  }
}
