{
  "name": "random-14",
  "transaction": {
    "to": "0xd4ed79414a9f8bf363e9caaa5a74380716f7dbe0",
    "nonce": 355,
    "gasLimit": "0xc3393abf",
    "gasPrice": "0xa0530f",
    "maxFeePerGas": "0x6b7bc455",
    "maxPriorityFeePerGas": "0x",
    "data": "0xe284f9fe599421f8e15d313f08424f56798539e338ff345b530bef1256810200922813e50a176ca7e987dbedb94917acfe82dc5590f0f87b3d602af7e61327d8d776edb622070325084d4e3cba54d4df",
    "value": "0xf3501e2229",
    "accessList": [
      {
        "address": "0x3ace6cc41a8df5b6518b24e6ecd490c13acfc677",
        "storageKeys": []
      },
      {
        "address": "0x65f3540a4a7aa93d074a77313622786513f0199d",
        "storageKeys": []
      },
      {
        "address": "0x0dad5e012c02f680fb256bf6b0e0d9999c8c74a0",
        "storageKeys": []
      }
    ],
    "chainId": "0x"
  },
  "privateKey": "0x6c268eef2efdb15a96ae69774e732b9214a3ebb03c0fd01602bc7a5fcd21c060",
  "unsignedLegacy": "0xf87982016383a0530f84c3393abf94d4ed79414a9f8bf363e9caaa5a74380716f7dbe085f3501e2229b850e284f9fe599421f8e15d313f08424f56798539e338ff345b530bef1256810200922813e50a176ca7e987dbedb94917acfe82dc5590f0f87b3d602af7e61327d8d776edb622070325084d4e3cba54d4df",
  "unsignedEip155": "0xf87c82016383a0530f84c3393abf94d4ed79414a9f8bf363e9caaa5a74380716f7dbe085f3501e2229b850e284f9fe599421f8e15d313f08424f56798539e338ff345b530bef1256810200922813e50a176ca7e987dbedb94917acfe82dc5590f0f87b3d602af7e61327d8d776edb622070325084d4e3cba54d4df008080",
  "unsignedBerlin": "0x01f8c18082016383a0530f84c3393abf94d4ed79414a9f8bf363e9caaa5a74380716f7dbe085f3501e2229b850e284f9fe599421f8e15d313f08424f56798539e338ff345b530bef1256810200922813e50a176ca7e987dbedb94917acfe82dc5590f0f87b3d602af7e61327d8d776edb622070325084d4e3cba54d4dff845d6943ace6cc41a8df5b6518b24e6ecd490c13acfc677c0d69465f3540a4a7aa93d074a77313622786513f0199dc0d6940dad5e012c02f680fb256bf6b0e0d9999c8c74a0c0",
  "unsignedLondon": "0x02f8c38082016380846b7bc45584c3393abf94d4ed79414a9f8bf363e9caaa5a74380716f7dbe085f3501e2229b850e284f9fe599421f8e15d313f08424f56798539e338ff345b530bef1256810200922813e50a176ca7e987dbedb94917acfe82dc5590f0f87b3d602af7e61327d8d776edb622070325084d4e3cba54d4dff845d6943ace6cc41a8df5b6518b24e6ecd490c13acfc677c0d69465f3540a4a7aa93d074a77313622786513f0199dc0d6940dad5e012c02f680fb256bf6b0e0d9999c8c74a0c0",
  "signedLegacy": "0xf8bc82016383a0530f84c3393abf94d4ed79414a9f8bf363e9caaa5a74380716f7dbe085f3501e2229b850e284f9fe599421f8e15d313f08424f56798539e338ff345b530bef1256810200922813e50a176ca7e987dbedb94917acfe82dc5590f0f87b3d602af7e61327d8d776edb622070325084d4e3cba54d4df1ca0f9a312ad0b108afe12e9d05a05e95097cf14d31d2a2a3a58c34ad7cc5756364fa062da1a5e95c0764ffa56c2f516ed3dcf49981c3265dd8f76f077bda2f25fe8a3",
  "signedEip155": "0xf8bc82016383a0530f84c3393abf94d4ed79414a9f8bf363e9caaa5a74380716f7dbe085f3501e2229b850e284f9fe599421f8e15d313f08424f56798539e338ff345b530bef1256810200922813e50a176ca7e987dbedb94917acfe82dc5590f0f87b3d602af7e61327d8d776edb622070325084d4e3cba54d4df23a086de2b9d24e4e443197a4eb299b180221c96734e776f0184f9cb715605aa2650a044fa881004426da6cf65aac838390be0f45d273fdc88f4beb4eaf917ba78260d",
  "signedBerlin": "0x01f901048082016383a0530f84c3393abf94d4ed79414a9f8bf363e9caaa5a74380716f7dbe085f3501e2229b850e284f9fe599421f8e15d313f08424f56798539e338ff345b530bef1256810200922813e50a176ca7e987dbedb94917acfe82dc5590f0f87b3d602af7e61327d8d776edb622070325084d4e3cba54d4dff845d6943ace6cc41a8df5b6518b24e6ecd490c13acfc677c0d69465f3540a4a7aa93d074a77313622786513f0199dc0d6940dad5e012c02f680fb256bf6b0e0d9999c8c74a0c080a0c92ddf69a2e4ca97cc9595baa4cfbd656767fed9633013498d78b631a68bb6bda00825acc235bfcfa56e48771d03edbf88477761e75e09cb69dde2e3ba1f76453c",
  "signedLondon": "0x02f901068082016380846b7bc45584c3393abf94d4ed79414a9f8bf363e9caaa5a74380716f7dbe085f3501e2229b850e284f9fe599421f8e15d313f08424f56798539e338ff345b530bef1256810200922813e50a176ca7e987dbedb94917acfe82dc5590f0f87b3d602af7e61327d8d776edb622070325084d4e3cba54d4dff845d6943ace6cc41a8df5b6518b24e6ecd490c13acfc677c0d69465f3540a4a7aa93d074a77313622786513f0199dc0d6940dad5e012c02f680fb256bf6b0e0d9999c8c74a0c080a0c54317affd400c8de9172c4ece1417ebe69f34d5e3a44b23fa2bf38059eddf25a00553865869e63ca1db405e5a52bea49193b9cc707192dd313c32acf58eb2416e"
}
