{
  "name": "random-6",
  "transaction": {
    "to": "0x47f8627a7925083e80e0d94dbb979ce2c44a2c74",
    "nonce": 432,
    "gasLimit": "0xa1fca9f1",
    "gasPrice": "0x01394a",
    "maxFeePerGas": "0x501809f11ffb",
    "maxPriorityFeePerGas": "0xc9",
    "data": "0x11dc",
    "value": "0x95641b",
    "accessList": [],
    "chainId": "0xf3229d"
  },
  "privateKey": "0xd9f6e52112da85a6f822054409e83460b9da070ce6c48843e4793c5720ad6910",
  "unsignedLegacy": "0xe88201b08301394a84a1fca9f19447f8627a7925083e80e0d94dbb979ce2c44a2c748395641b8211dc",
  "unsignedEip155": "0xee8201b08301394a84a1fca9f19447f8627a7925083e80e0d94dbb979ce2c44a2c748395641b8211dc83f3229d8080",
  "unsignedBerlin": "0x01ed83f3229d8201b08301394a84a1fca9f19447f8627a7925083e80e0d94dbb979ce2c44a2c748395641b8211dcc0",
  "unsignedLondon": "0x02f283f3229d8201b081c986501809f11ffb84a1fca9f19447f8627a7925083e80e0d94dbb979ce2c44a2c748395641b8211dcc0",
  "signedLegacy": "0xf86b8201b08301394a84a1fca9f19447f8627a7925083e80e0d94dbb979ce2c44a2c748395641b8211dc1ba0ddbdaa5c35f7c9045af73258701be23efa1b174b336cb157af71ebd55b11dbe9a04b7c058246cc10c30b024b8a1877c0943ea59538bd2284d2b9adf132dd7742ba",
  "signedEip155": "0xf86f8201b08301394a84a1fca9f19447f8627a7925083e80e0d94dbb979ce2c44a2c748395641b8211dc8401e6455da0f04193a7f2b3fcac55535cf245e8903354d7ce64648170a244a7d4b3463b6c41a00f5d4bbed0bb3a8cd577e66e9a1bdf0a29e3737484af8cbadca0dd5c0d2144ef",
  "signedBerlin": "0x01f87083f3229d8201b08301394a84a1fca9f19447f8627a7925083e80e0d94dbb979ce2c44a2c748395641b8211dcc080a0e2cea061585f69c1d01e91871e5c90f05e434d728339fd3c5141258655283b53a05509cb30aef15757624e39d955f444fd92f686d7ee2a8dc1d43ec2fffe2b1ebd",
  "signedLondon": "0x02f87583f3229d8201b081c986501809f11ffb84a1fca9f19447f8627a7925083e80e0d94dbb979ce2c44a2c748395641b8211dcc001a0d7b4874abc349ddfc3ebef094a08e1fff1180ac6fd423cd41f0eb7f845da966ba027dd9c941a95141643b28dc17686c06fe277647f5aed89e1a1afd96cf1176170"
}
