{
  "name": "random-9",
  "transaction": {
    "to": "0x671a63481F6AdF6E231296c3ec838D21919b5Ec0",
    "nonce": 776,
    "gasLimit": "0x905469",
    "gasPrice": "0xe8",
    "maxFeePerGas": "0x64b085b92ba07f",
    "maxPriorityFeePerGas": "0xbe",
    "data": "0x6e8a5785fbcffa9d6303b7a22818c0c67aa5e3b1c097aa35af45f95038224f7b1e0724b14a2de88e07469fa80c6c1e172353269d5bd75af8c91b77585a6aa1b99c462b9fbf7010a9b8f4194260bfb307da9ba5b6202da6f0ef6f",
    "value": "0x4f88",
    "accessList": [],
    "chainId": "0x348f3fcb",
    "maxFeePerBlobGas": "0xb8cc0be94a",
    "blobVersionedHashes": [
      "0x0134b8b105e49b6c97a9aade76ec97bd4357053c030b7f4370241fca10ab6ef3",
      "0x0198df85d8142d33554e7369ed5695dc0a351b38741626e573f918812fa994ae"
    ]
  },
  "privateKey": "0x63dd633e51d725e1f444b9a724729fb8bd052ec4737eceba804e846a32b4530c",
  "unsignedLegacy": "0xf87d82030881e88390546994671a63481f6adf6e231296c3ec838d21919b5ec0824f88b85a6e8a5785fbcffa9d6303b7a22818c0c67aa5e3b1c097aa35af45f95038224f7b1e0724b14a2de88e07469fa80c6c1e172353269d5bd75af8c91b77585a6aa1b99c462b9fbf7010a9b8f4194260bfb307da9ba5b6202da6f0ef6f",
  "unsignedEip155": "0xf88482030881e88390546994671a63481f6adf6e231296c3ec838d21919b5ec0824f88b85a6e8a5785fbcffa9d6303b7a22818c0c67aa5e3b1c097aa35af45f95038224f7b1e0724b14a2de88e07469fa80c6c1e172353269d5bd75af8c91b77585a6aa1b99c462b9fbf7010a9b8f4194260bfb307da9ba5b6202da6f0ef6f84348f3fcb8080",
  "unsignedBerlin": "0x01f88384348f3fcb82030881e88390546994671a63481f6adf6e231296c3ec838d21919b5ec0824f88b85a6e8a5785fbcffa9d6303b7a22818c0c67aa5e3b1c097aa35af45f95038224f7b1e0724b14a2de88e07469fa80c6c1e172353269d5bd75af8c91b77585a6aa1b99c462b9fbf7010a9b8f4194260bfb307da9ba5b6202da6f0ef6fc0",
  "unsignedLondon": "0x02f88b84348f3fcb82030881be8764b085b92ba07f8390546994671a63481f6adf6e231296c3ec838d21919b5ec0824f88b85a6e8a5785fbcffa9d6303b7a22818c0c67aa5e3b1c097aa35af45f95038224f7b1e0724b14a2de88e07469fa80c6c1e172353269d5bd75af8c91b77585a6aa1b99c462b9fbf7010a9b8f4194260bfb307da9ba5b6202da6f0ef6fc0",
  "unsignedCancun": "0x03f8d584348f3fcb82030881be8764b085b92ba07f8390546994671a63481f6adf6e231296c3ec838d21919b5ec0824f88b85a6e8a5785fbcffa9d6303b7a22818c0c67aa5e3b1c097aa35af45f95038224f7b1e0724b14a2de88e07469fa80c6c1e172353269d5bd75af8c91b77585a6aa1b99c462b9fbf7010a9b8f4194260bfb307da9ba5b6202da6f0ef6fc085b8cc0be94af842a00134b8b105e49b6c97a9aade76ec97bd4357053c030b7f4370241fca10ab6ef3a00198df85d8142d33554e7369ed5695dc0a351b38741626e573f918812fa994ae",
  "signedLegacy": "0xf8c082030881e88390546994671a63481f6adf6e231296c3ec838d21919b5ec0824f88b85a6e8a5785fbcffa9d6303b7a22818c0c67aa5e3b1c097aa35af45f95038224f7b1e0724b14a2de88e07469fa80c6c1e172353269d5bd75af8c91b77585a6aa1b99c462b9fbf7010a9b8f4194260bfb307da9ba5b6202da6f0ef6f1ba0d567c29e1775043d150df4e740d0e581d723f4950b2d35a5adb5a3a1b527686ea00fbcddbd1e8f33eb73a957c985b1ab85c333a42074c8801fe230ace1f246f826",
  "signedEip155": "0xf8c482030881e88390546994671a63481f6adf6e231296c3ec838d21919b5ec0824f88b85a6e8a5785fbcffa9d6303b7a22818c0c67aa5e3b1c097aa35af45f95038224f7b1e0724b14a2de88e07469fa80c6c1e172353269d5bd75af8c91b77585a6aa1b99c462b9fbf7010a9b8f4194260bfb307da9ba5b6202da6f0ef6f84691e7fb9a0900464b1bcd8e581911e8761960913c5b23ef063886533b4a9759c74ffcd4d80a0319be70fd62d7b2722aa1572b456755ae71fc7d1d3c02cdaafebbf4941033409",
  "signedBerlin": "0x01f8c684348f3fcb82030881e88390546994671a63481f6adf6e231296c3ec838d21919b5ec0824f88b85a6e8a5785fbcffa9d6303b7a22818c0c67aa5e3b1c097aa35af45f95038224f7b1e0724b14a2de88e07469fa80c6c1e172353269d5bd75af8c91b77585a6aa1b99c462b9fbf7010a9b8f4194260bfb307da9ba5b6202da6f0ef6fc080a0d2418f0ef98efb8120c5f35803fcc2b0def21e7bad27537fa8be144169393df7a0561b3ee3efe7f4cc07ff4289897c8b316eb6d4de32f60eddd71833d70c13c488",
  "signedLondon": "0x02f8ce84348f3fcb82030881be8764b085b92ba07f8390546994671a63481f6adf6e231296c3ec838d21919b5ec0824f88b85a6e8a5785fbcffa9d6303b7a22818c0c67aa5e3b1c097aa35af45f95038224f7b1e0724b14a2de88e07469fa80c6c1e172353269d5bd75af8c91b77585a6aa1b99c462b9fbf7010a9b8f4194260bfb307da9ba5b6202da6f0ef6fc080a04dfe6f43e3da767dcb2d717d7555f67448a47d8329ba40ba0b25e19ef217837da01612656de7ebf9929a66b7479a63927bb895b225af797adf3d32a890b279ab82",
  "signedCancun": "0x03f9011884348f3fcb82030881be8764b085b92ba07f8390546994671a63481f6adf6e231296c3ec838d21919b5ec0824f88b85a6e8a5785fbcffa9d6303b7a22818c0c67aa5e3b1c097aa35af45f95038224f7b1e0724b14a2de88e07469fa80c6c1e172353269d5bd75af8c91b77585a6aa1b99c462b9fbf7010a9b8f4194260bfb307da9ba5b6202da6f0ef6fc085b8cc0be94af842a00134b8b105e49b6c97a9aade76ec97bd4357053c030b7f4370241fca10ab6ef3a00198df85d8142d33554e7369ed5695dc0a351b38741626e573f918812fa994ae01a051e0cac495af080a3d0777ccd5d6a514edfbcc156c0aa4f4218a8bb9259a5e3da00c17cfe7183fd3a1df95478e37f1b75442f4229f9f8ed61e364cfd5407b1a6d2",
  "signatureLegacy": {
    "r": "0xd567c29e1775043d150df4e740d0e581d723f4950b2d35a5adb5a3a1b527686e",
    "s": "0x0fbcddbd1e8f33eb73a957c985b1ab85c333a42074c8801fe230ace1f246f826",
    "v": "0x1b"
  },
  "signatureEip155": {
    "r": "0x900464b1bcd8e581911e8761960913c5b23ef063886533b4a9759c74ffcd4d80",
    "s": "0x319be70fd62d7b2722aa1572b456755ae71fc7d1d3c02cdaafebbf4941033409",
    "v": "0x691e7fb9"
  },
  "signatureBerlin": {
    "r": "0xd2418f0ef98efb8120c5f35803fcc2b0def21e7bad27537fa8be144169393df7",
    "s": "0x561b3ee3efe7f4cc07ff4289897c8b316eb6d4de32f60eddd71833d70c13c488",
    "v": "0x0"
  },
  "signatureLondon": {
    "r": "0x4dfe6f43e3da767dcb2d717d7555f67448a47d8329ba40ba0b25e19ef217837d",
    "s": "0x1612656de7ebf9929a66b7479a63927bb895b225af797adf3d32a890b279ab82",
    "v": "0x0"
  },
  "signatureCancun": {
    "r": "0x51e0cac495af080a3d0777ccd5d6a514edfbcc156c0aa4f4218a8bb9259a5e3d",
    "s": "0x0c17cfe7183fd3a1df95478e37f1b75442f4229f9f8ed61e364cfd5407b1a6d2",
    "v": "0x1"
  }
}
