{
  "name": "random-7",
  "transaction": {
    "to": "0xd6e75aaf5c27963b31dd4ad638e4c1d07b2cc010",
    "nonce": 667,
    "gasLimit": "0x95ead5",
    "gasPrice": "0x2386372e",
    "maxFeePerGas": "0xdcae710cb9",
    "maxPriorityFeePerGas": "0xe931",
    "data": "0x333e6bb3d32f215bfdb13209a0905f740b180cadcea26405d9c79e108e50e87b78a1e7192c313e22f09632ed2882774f8e7536b7dfa987f7d063fc8db54ad5bd8d49779102949b632af6c358295dbcd76e69ca95e73ba7921375f6c2798377acd9c4db7719b9980b28c49d",
    "value": "0x0ef39623",
    "accessList": [
      {
        "address": "0xd0a4e08acda2a8b3ae50db94db3246c4a2f34b60",
        "storageKeys": [
          "0xe85938a8c29ab7b82264cc2e0822673fe17637364d6b384eb49f89e1adf61a11",
          "0x2c10ec7831da9a49dbf10818882d783f6511dda96c06b8ad2999aeb9f9f82d0b"
        ]
      },
      {
        "address": "0x3e4ee3de26502a40c8dc33886c1bb7e079916194",
        "storageKeys": [
          "0xe85938a8c29ab7b82264cc2e0822673fe17637364d6b384eb49f89e1adf61a11",
          "0x2c10ec7831da9a49dbf10818882d783f6511dda96c06b8ad2999aeb9f9f82d0b"
        ]
      },
      {
        "address": "0xe54e80bd490910c719d5f11602a97fae4d5c0f11",
        "storageKeys": [
          "0xe85938a8c29ab7b82264cc2e0822673fe17637364d6b384eb49f89e1adf61a11",
          "0x2c10ec7831da9a49dbf10818882d783f6511dda96c06b8ad2999aeb9f9f82d0b"
        ]
      },
      {
        "address": "0x6d1fd21ed3e7d4de1f58361cb78de7a882decc79",
        "storageKeys": [
          "0xe85938a8c29ab7b82264cc2e0822673fe17637364d6b384eb49f89e1adf61a11",
          "0x2c10ec7831da9a49dbf10818882d783f6511dda96c06b8ad2999aeb9f9f82d0b"
        ]
      }
    ],
    "chainId": "0xd961d7"
  },
  "privateKey": "0xa6fe9bfe96da66b7788f98b3107c588bee30ccc844e129a7772df540c3193239",
  "unsignedLegacy": "0xf89382029b842386372e8395ead594d6e75aaf5c27963b31dd4ad638e4c1d07b2cc010840ef39623b86b333e6bb3d32f215bfdb13209a0905f740b180cadcea26405d9c79e108e50e87b78a1e7192c313e22f09632ed2882774f8e7536b7dfa987f7d063fc8db54ad5bd8d49779102949b632af6c358295dbcd76e69ca95e73ba7921375f6c2798377acd9c4db7719b9980b28c49d",
  "unsignedEip155": "0xf89982029b842386372e8395ead594d6e75aaf5c27963b31dd4ad638e4c1d07b2cc010840ef39623b86b333e6bb3d32f215bfdb13209a0905f740b180cadcea26405d9c79e108e50e87b78a1e7192c313e22f09632ed2882774f8e7536b7dfa987f7d063fc8db54ad5bd8d49779102949b632af6c358295dbcd76e69ca95e73ba7921375f6c2798377acd9c4db7719b9980b28c49d83d961d78080",
  "unsignedBerlin": "0x01f9020683d961d782029b842386372e8395ead594d6e75aaf5c27963b31dd4ad638e4c1d07b2cc010840ef39623b86b333e6bb3d32f215bfdb13209a0905f740b180cadcea26405d9c79e108e50e87b78a1e7192c313e22f09632ed2882774f8e7536b7dfa987f7d063fc8db54ad5bd8d49779102949b632af6c358295dbcd76e69ca95e73ba7921375f6c2798377acd9c4db7719b9980b28c49df9016cf85994d0a4e08acda2a8b3ae50db94db3246c4a2f34b60f842a0e85938a8c29ab7b82264cc2e0822673fe17637364d6b384eb49f89e1adf61a11a02c10ec7831da9a49dbf10818882d783f6511dda96c06b8ad2999aeb9f9f82d0bf859943e4ee3de26502a40c8dc33886c1bb7e079916194f842a0e85938a8c29ab7b82264cc2e0822673fe17637364d6b384eb49f89e1adf61a11a02c10ec7831da9a49dbf10818882d783f6511dda96c06b8ad2999aeb9f9f82d0bf85994e54e80bd490910c719d5f11602a97fae4d5c0f11f842a0e85938a8c29ab7b82264cc2e0822673fe17637364d6b384eb49f89e1adf61a11a02c10ec7831da9a49dbf10818882d783f6511dda96c06b8ad2999aeb9f9f82d0bf859946d1fd21ed3e7d4de1f58361cb78de7a882decc79f842a0e85938a8c29ab7b82264cc2e0822673fe17637364d6b384eb49f89e1adf61a11a02c10ec7831da9a49dbf10818882d783f6511dda96c06b8ad2999aeb9f9f82d0b",
  "unsignedLondon": "0x02f9020a83d961d782029b82e93185dcae710cb98395ead594d6e75aaf5c27963b31dd4ad638e4c1d07b2cc010840ef39623b86b333e6bb3d32f215bfdb13209a0905f740b180cadcea26405d9c79e108e50e87b78a1e7192c313e22f09632ed2882774f8e7536b7dfa987f7d063fc8db54ad5bd8d49779102949b632af6c358295dbcd76e69ca95e73ba7921375f6c2798377acd9c4db7719b9980b28c49df9016cf85994d0a4e08acda2a8b3ae50db94db3246c4a2f34b60f842a0e85938a8c29ab7b82264cc2e0822673fe17637364d6b384eb49f89e1adf61a11a02c10ec7831da9a49dbf10818882d783f6511dda96c06b8ad2999aeb9f9f82d0bf859943e4ee3de26502a40c8dc33886c1bb7e079916194f842a0e85938a8c29ab7b82264cc2e0822673fe17637364d6b384eb49f89e1adf61a11a02c10ec7831da9a49dbf10818882d783f6511dda96c06b8ad2999aeb9f9f82d0bf85994e54e80bd490910c719d5f11602a97fae4d5c0f11f842a0e85938a8c29ab7b82264cc2e0822673fe17637364d6b384eb49f89e1adf61a11a02c10ec7831da9a49dbf10818882d783f6511dda96c06b8ad2999aeb9f9f82d0bf859946d1fd21ed3e7d4de1f58361cb78de7a882decc79f842a0e85938a8c29ab7b82264cc2e0822673fe17637364d6b384eb49f89e1adf61a11a02c10ec7831da9a49dbf10818882d783f6511dda96c06b8ad2999aeb9f9f82d0b",
  "signedLegacy": "0xf8d682029b842386372e8395ead594d6e75aaf5c27963b31dd4ad638e4c1d07b2cc010840ef39623b86b333e6bb3d32f215bfdb13209a0905f740b180cadcea26405d9c79e108e50e87b78a1e7192c313e22f09632ed2882774f8e7536b7dfa987f7d063fc8db54ad5bd8d49779102949b632af6c358295dbcd76e69ca95e73ba7921375f6c2798377acd9c4db7719b9980b28c49d1ca0e6ed84a5ac74d8f91fefe1da4c94daa5a3a2d096b38581ac798149480bd98d3ca0587b659cc80d5c512014b40c8ac13243d2a76a79b7cb626c47dbaa8c4ca09560",
  "signedEip155": "0xf8da82029b842386372e8395ead594d6e75aaf5c27963b31dd4ad638e4c1d07b2cc010840ef39623b86b333e6bb3d32f215bfdb13209a0905f740b180cadcea26405d9c79e108e50e87b78a1e7192c313e22f09632ed2882774f8e7536b7dfa987f7d063fc8db54ad5bd8d49779102949b632af6c358295dbcd76e69ca95e73ba7921375f6c2798377acd9c4db7719b9980b28c49d8401b2c3d1a027f0c58006dc7d7aa418634d3a82500811a105d6595e7d9097be9f7d2dedbca4a02f5519ec51aa55a8648ece6647187634a71ccc069c9e2cfa33e1e59e00fff717",
  "signedBerlin": "0x01f9024983d961d782029b842386372e8395ead594d6e75aaf5c27963b31dd4ad638e4c1d07b2cc010840ef39623b86b333e6bb3d32f215bfdb13209a0905f740b180cadcea26405d9c79e108e50e87b78a1e7192c313e22f09632ed2882774f8e7536b7dfa987f7d063fc8db54ad5bd8d49779102949b632af6c358295dbcd76e69ca95e73ba7921375f6c2798377acd9c4db7719b9980b28c49df9016cf85994d0a4e08acda2a8b3ae50db94db3246c4a2f34b60f842a0e85938a8c29ab7b82264cc2e0822673fe17637364d6b384eb49f89e1adf61a11a02c10ec7831da9a49dbf10818882d783f6511dda96c06b8ad2999aeb9f9f82d0bf859943e4ee3de26502a40c8dc33886c1bb7e079916194f842a0e85938a8c29ab7b82264cc2e0822673fe17637364d6b384eb49f89e1adf61a11a02c10ec7831da9a49dbf10818882d783f6511dda96c06b8ad2999aeb9f9f82d0bf85994e54e80bd490910c719d5f11602a97fae4d5c0f11f842a0e85938a8c29ab7b82264cc2e0822673fe17637364d6b384eb49f89e1adf61a11a02c10ec7831da9a49dbf10818882d783f6511dda96c06b8ad2999aeb9f9f82d0bf859946d1fd21ed3e7d4de1f58361cb78de7a882decc79f842a0e85938a8c29ab7b82264cc2e0822673fe17637364d6b384eb49f89e1adf61a11a02c10ec7831da9a49dbf10818882d783f6511dda96c06b8ad2999aeb9f9f82d0b01a071b1771a98047b3bc9b195eb389eb35c71d8e19bc3d9e3221b2709e88515153ba07707be5eb2726f7b2ef18aeac8dbc663794aa9ecca9adba7f23456f632ffb329",
  "signedLondon": "0x02f9024d83d961d782029b82e93185dcae710cb98395ead594d6e75aaf5c27963b31dd4ad638e4c1d07b2cc010840ef39623b86b333e6bb3d32f215bfdb13209a0905f740b180cadcea26405d9c79e108e50e87b78a1e7192c313e22f09632ed2882774f8e7536b7dfa987f7d063fc8db54ad5bd8d49779102949b632af6c358295dbcd76e69ca95e73ba7921375f6c2798377acd9c4db7719b9980b28c49df9016cf85994d0a4e08acda2a8b3ae50db94db3246c4a2f34b60f842a0e85938a8c29ab7b82264cc2e0822673fe17637364d6b384eb49f89e1adf61a11a02c10ec7831da9a49dbf10818882d783f6511dda96c06b8ad2999aeb9f9f82d0bf859943e4ee3de26502a40c8dc33886c1bb7e079916194f842a0e85938a8c29ab7b82264cc2e0822673fe17637364d6b384eb49f89e1adf61a11a02c10ec7831da9a49dbf10818882d783f6511dda96c06b8ad2999aeb9f9f82d0bf85994e54e80bd490910c719d5f11602a97fae4d5c0f11f842a0e85938a8c29ab7b82264cc2e0822673fe17637364d6b384eb49f89e1adf61a11a02c10ec7831da9a49dbf10818882d783f6511dda96c06b8ad2999aeb9f9f82d0bf859946d1fd21ed3e7d4de1f58361cb78de7a882decc79f842a0e85938a8c29ab7b82264cc2e0822673fe17637364d6b384eb49f89e1adf61a11a02c10ec7831da9a49dbf10818882d783f6511dda96c06b8ad2999aeb9f9f82d0b80a03e34f30d596ddf4d5c8f4d41a424679f2297b8b648baf332e9347e779ed3e0a1a025ab302e4080b0400d284babaca626419a2985c122f0bcbccd652d56f3fb457e"
}
