{
  "name": "random-2",
  "transaction": {
    "to": "0xd0f118afa9c2c9cc50f10d94ccc1cbdda2758b36",
    "nonce": 15,
    "gasLimit": "0x331bce0f",
    "gasPrice": "0x67e15a",
    "maxFeePerGas": "0x5a58e8d1",
    "maxPriorityFeePerGas": "0xa1ca91",
    "data": "0xff16e0d1a7227d34c2ca72e3c0d391e32e2f5ac1ac9f74e35ab301566e1bfbffa0354a85a918e71cda7e37145c0a2f7c6fb1f10ff992ef1de8ebe3c40fd5cf50b584016c19732d845cc9c8d3a43ce413626a4f67acb98ccb3b2f1843cdd391",
    "value": "0x",
    "accessList": [
      {
        "address": "0x032f5546f1b932555cb43e2b16c844d118078430",
        "storageKeys": []
      }
    ],
    "chainId": "0x7989"
  },
  "privateKey": "0xa248ca1e9bd9c10fb163baefd567da6658f7419f3b7ec8bb13800ef2c546cdc9",
  "unsignedLegacy": "0xf8810f8367e15a84331bce0f94d0f118afa9c2c9cc50f10d94ccc1cbdda2758b3680b85fff16e0d1a7227d34c2ca72e3c0d391e32e2f5ac1ac9f74e35ab301566e1bfbffa0354a85a918e71cda7e37145c0a2f7c6fb1f10ff992ef1de8ebe3c40fd5cf50b584016c19732d845cc9c8d3a43ce413626a4f67acb98ccb3b2f1843cdd391",
  "unsignedEip155": "0xf8860f8367e15a84331bce0f94d0f118afa9c2c9cc50f10d94ccc1cbdda2758b3680b85fff16e0d1a7227d34c2ca72e3c0d391e32e2f5ac1ac9f74e35ab301566e1bfbffa0354a85a918e71cda7e37145c0a2f7c6fb1f10ff992ef1de8ebe3c40fd5cf50b584016c19732d845cc9c8d3a43ce413626a4f67acb98ccb3b2f1843cdd3918279898080",
  "unsignedBerlin": "0x01f89c8279890f8367e15a84331bce0f94d0f118afa9c2c9cc50f10d94ccc1cbdda2758b3680b85fff16e0d1a7227d34c2ca72e3c0d391e32e2f5ac1ac9f74e35ab301566e1bfbffa0354a85a918e71cda7e37145c0a2f7c6fb1f10ff992ef1de8ebe3c40fd5cf50b584016c19732d845cc9c8d3a43ce413626a4f67acb98ccb3b2f1843cdd391d7d694032f5546f1b932555cb43e2b16c844d118078430c0",
  "unsignedLondon": "0x02f8a18279890f83a1ca91845a58e8d184331bce0f94d0f118afa9c2c9cc50f10d94ccc1cbdda2758b3680b85fff16e0d1a7227d34c2ca72e3c0d391e32e2f5ac1ac9f74e35ab301566e1bfbffa0354a85a918e71cda7e37145c0a2f7c6fb1f10ff992ef1de8ebe3c40fd5cf50b584016c19732d845cc9c8d3a43ce413626a4f67acb98ccb3b2f1843cdd391d7d694032f5546f1b932555cb43e2b16c844d118078430c0",
  "signedLegacy": "0xf8c40f8367e15a84331bce0f94d0f118afa9c2c9cc50f10d94ccc1cbdda2758b3680b85fff16e0d1a7227d34c2ca72e3c0d391e32e2f5ac1ac9f74e35ab301566e1bfbffa0354a85a918e71cda7e37145c0a2f7c6fb1f10ff992ef1de8ebe3c40fd5cf50b584016c19732d845cc9c8d3a43ce413626a4f67acb98ccb3b2f1843cdd3911ca0fd9a661c28d43f4dcda324ed3e15a2a30b5da8b8272cd445c286902e7a524a84a03dbc8b597417fbd8f3ec0e3a669c012556b704fc5ff7fa5c3bb4cc8586c593db",
  "signedEip155": "0xf8c60f8367e15a84331bce0f94d0f118afa9c2c9cc50f10d94ccc1cbdda2758b3680b85fff16e0d1a7227d34c2ca72e3c0d391e32e2f5ac1ac9f74e35ab301566e1bfbffa0354a85a918e71cda7e37145c0a2f7c6fb1f10ff992ef1de8ebe3c40fd5cf50b584016c19732d845cc9c8d3a43ce413626a4f67acb98ccb3b2f1843cdd39182f335a03cdbbfd6f2e0ae448fce32dbfa8b394fa9a17abac8280138bd4daf33fcabb18ca01a507c2aee8fb073a95f9ba51569ed55ca60067ca344b957dd4499a8c6fd23b1",
  "signedBerlin": "0x01f8df8279890f8367e15a84331bce0f94d0f118afa9c2c9cc50f10d94ccc1cbdda2758b3680b85fff16e0d1a7227d34c2ca72e3c0d391e32e2f5ac1ac9f74e35ab301566e1bfbffa0354a85a918e71cda7e37145c0a2f7c6fb1f10ff992ef1de8ebe3c40fd5cf50b584016c19732d845cc9c8d3a43ce413626a4f67acb98ccb3b2f1843cdd391d7d694032f5546f1b932555cb43e2b16c844d118078430c080a02ac4d01211f0473086ad8cce0fc5dab450b473581d569403a55e7e90b6b5230da0057809a5c98e9839864beabde2f5f312de8130a810706f5c1e5e9289ef0242ec",
  "signedLondon": "0x02f8e48279890f83a1ca91845a58e8d184331bce0f94d0f118afa9c2c9cc50f10d94ccc1cbdda2758b3680b85fff16e0d1a7227d34c2ca72e3c0d391e32e2f5ac1ac9f74e35ab301566e1bfbffa0354a85a918e71cda7e37145c0a2f7c6fb1f10ff992ef1de8ebe3c40fd5cf50b584016c19732d845cc9c8d3a43ce413626a4f67acb98ccb3b2f1843cdd391d7d694032f5546f1b932555cb43e2b16c844d118078430c001a02da63748834496f033646ceda1d8238e1d6b11626c8b78df85a7e550b9a6021da053674b3a67b9da78c8238501fb7e35fffa4124bf074d3e419c47eaa6c85137de"
}
