{
  "name": "random-15",
  "transaction": {
    "to": "0x2c4ad0e9a08dd6fe31ba497fd4a893a0c1fc6b34",
    "nonce": 252,
    "gasLimit": "0x50ef84",
    "gasPrice": "0x8b",
    "maxFeePerGas": "0xca73b4280244cd",
    "maxPriorityFeePerGas": "0xab",
    "data": "0x143b176659a1b826916e4a012ffaaf5e21251e27317a1f565a716b8ff184d8c689f93f5a7359abcbffd18d7bea36ee123ce5cddbbdd92d4a6f9f9418314cdb81ec2df3d713c48fd63574eb4fd029b67d6233aeae60815e225597f647de565b8050",
    "value": "0xb5a876b3",
    "accessList": [
      {
        "address": "0x3266ce0ab053240ce5d95993d420c6b9a1da1fdc",
        "storageKeys": [
          "0xa0568d48a6cc9e0c92080dec2155382a276181f25c746da97f8199f3a8464211",
          "0x80b165a49183e897da692ca460c5c88a0597e5e4ad7b43471bac25bfd9a780e0",
          "0xa628e4d1cfbcc69964473b21b3df585f15eca27bdd2e0c0d7e2f1db3e2c0a1f8",
          "0x35167ab9f9061b5f986f5c960aebe912340a5a72935aa334afa8fbfe586d05b1"
        ]
      },
      {
        "address": "0xf199b9f871065e2e18291cdec3bf7c1ed32fba0a",
        "storageKeys": [
          "0xa0568d48a6cc9e0c92080dec2155382a276181f25c746da97f8199f3a8464211",
          "0x80b165a49183e897da692ca460c5c88a0597e5e4ad7b43471bac25bfd9a780e0",
          "0xa628e4d1cfbcc69964473b21b3df585f15eca27bdd2e0c0d7e2f1db3e2c0a1f8",
          "0x35167ab9f9061b5f986f5c960aebe912340a5a72935aa334afa8fbfe586d05b1"
        ]
      }
    ],
    "chainId": "0x"
  },
  "privateKey": "0xffe260f37af5da6e4a18799bc6b7f0fab7d57bc456346bca7261a53cb04fb48d",
  "unsignedLegacy": "0xf88581fc818b8350ef84942c4ad0e9a08dd6fe31ba497fd4a893a0c1fc6b3484b5a876b3b861143b176659a1b826916e4a012ffaaf5e21251e27317a1f565a716b8ff184d8c689f93f5a7359abcbffd18d7bea36ee123ce5cddbbdd92d4a6f9f9418314cdb81ec2df3d713c48fd63574eb4fd029b67d6233aeae60815e225597f647de565b8050",
  "unsignedEip155": "0xf88881fc818b8350ef84942c4ad0e9a08dd6fe31ba497fd4a893a0c1fc6b3484b5a876b3b861143b176659a1b826916e4a012ffaaf5e21251e27317a1f565a716b8ff184d8c689f93f5a7359abcbffd18d7bea36ee123ce5cddbbdd92d4a6f9f9418314cdb81ec2df3d713c48fd63574eb4fd029b67d6233aeae60815e225597f647de565b8050008080",
  "unsignedBerlin": "0x01f901c38081fc818b8350ef84942c4ad0e9a08dd6fe31ba497fd4a893a0c1fc6b3484b5a876b3b861143b176659a1b826916e4a012ffaaf5e21251e27317a1f565a716b8ff184d8c689f93f5a7359abcbffd18d7bea36ee123ce5cddbbdd92d4a6f9f9418314cdb81ec2df3d713c48fd63574eb4fd029b67d6233aeae60815e225597f647de565b8050f9013af89b943266ce0ab053240ce5d95993d420c6b9a1da1fdcf884a0a0568d48a6cc9e0c92080dec2155382a276181f25c746da97f8199f3a8464211a080b165a49183e897da692ca460c5c88a0597e5e4ad7b43471bac25bfd9a780e0a0a628e4d1cfbcc69964473b21b3df585f15eca27bdd2e0c0d7e2f1db3e2c0a1f8a035167ab9f9061b5f986f5c960aebe912340a5a72935aa334afa8fbfe586d05b1f89b94f199b9f871065e2e18291cdec3bf7c1ed32fba0af884a0a0568d48a6cc9e0c92080dec2155382a276181f25c746da97f8199f3a8464211a080b165a49183e897da692ca460c5c88a0597e5e4ad7b43471bac25bfd9a780e0a0a628e4d1cfbcc69964473b21b3df585f15eca27bdd2e0c0d7e2f1db3e2c0a1f8a035167ab9f9061b5f986f5c960aebe912340a5a72935aa334afa8fbfe586d05b1",
  "unsignedLondon": "0x02f901cb8081fc81ab87ca73b4280244cd8350ef84942c4ad0e9a08dd6fe31ba497fd4a893a0c1fc6b3484b5a876b3b861143b176659a1b826916e4a012ffaaf5e21251e27317a1f565a716b8ff184d8c689f93f5a7359abcbffd18d7bea36ee123ce5cddbbdd92d4a6f9f9418314cdb81ec2df3d713c48fd63574eb4fd029b67d6233aeae60815e225597f647de565b8050f9013af89b943266ce0ab053240ce5d95993d420c6b9a1da1fdcf884a0a0568d48a6cc9e0c92080dec2155382a276181f25c746da97f8199f3a8464211a080b165a49183e897da692ca460c5c88a0597e5e4ad7b43471bac25bfd9a780e0a0a628e4d1cfbcc69964473b21b3df585f15eca27bdd2e0c0d7e2f1db3e2c0a1f8a035167ab9f9061b5f986f5c960aebe912340a5a72935aa334afa8fbfe586d05b1f89b94f199b9f871065e2e18291cdec3bf7c1ed32fba0af884a0a0568d48a6cc9e0c92080dec2155382a276181f25c746da97f8199f3a8464211a080b165a49183e897da692ca460c5c88a0597e5e4ad7b43471bac25bfd9a780e0a0a628e4d1cfbcc69964473b21b3df585f15eca27bdd2e0c0d7e2f1db3e2c0a1f8a035167ab9f9061b5f986f5c960aebe912340a5a72935aa334afa8fbfe586d05b1",
  "signedLegacy": "0xf8c881fc818b8350ef84942c4ad0e9a08dd6fe31ba497fd4a893a0c1fc6b3484b5a876b3b861143b176659a1b826916e4a012ffaaf5e21251e27317a1f565a716b8ff184d8c689f93f5a7359abcbffd18d7bea36ee123ce5cddbbdd92d4a6f9f9418314cdb81ec2df3d713c48fd63574eb4fd029b67d6233aeae60815e225597f647de565b80501ca0ae8977e1d8d2844093c1e86e103fa06ce8b7bad3334a3c9c905cd94c682b272da0310c0aba4b8b5f539ed3a40ef704d826b6584ca8cedba6e610d00da7db03a98a",
  "signedEip155": "0xf8c881fc818b8350ef84942c4ad0e9a08dd6fe31ba497fd4a893a0c1fc6b3484b5a876b3b861143b176659a1b826916e4a012ffaaf5e21251e27317a1f565a716b8ff184d8c689f93f5a7359abcbffd18d7bea36ee123ce5cddbbdd92d4a6f9f9418314cdb81ec2df3d713c48fd63574eb4fd029b67d6233aeae60815e225597f647de565b805023a0ea7f76ac137b396fec28b369da906f952b8fb650b3f4dfea235296232e4f4f0ca070c4ba37be580e9e9808c3b5cf1d59cc7ee568e327b6dff8632efad36b7036e8",
  "signedBerlin": "0x01f902068081fc818b8350ef84942c4ad0e9a08dd6fe31ba497fd4a893a0c1fc6b3484b5a876b3b861143b176659a1b826916e4a012ffaaf5e21251e27317a1f565a716b8ff184d8c689f93f5a7359abcbffd18d7bea36ee123ce5cddbbdd92d4a6f9f9418314cdb81ec2df3d713c48fd63574eb4fd029b67d6233aeae60815e225597f647de565b8050f9013af89b943266ce0ab053240ce5d95993d420c6b9a1da1fdcf884a0a0568d48a6cc9e0c92080dec2155382a276181f25c746da97f8199f3a8464211a080b165a49183e897da692ca460c5c88a0597e5e4ad7b43471bac25bfd9a780e0a0a628e4d1cfbcc69964473b21b3df585f15eca27bdd2e0c0d7e2f1db3e2c0a1f8a035167ab9f9061b5f986f5c960aebe912340a5a72935aa334afa8fbfe586d05b1f89b94f199b9f871065e2e18291cdec3bf7c1ed32fba0af884a0a0568d48a6cc9e0c92080dec2155382a276181f25c746da97f8199f3a8464211a080b165a49183e897da692ca460c5c88a0597e5e4ad7b43471bac25bfd9a780e0a0a628e4d1cfbcc69964473b21b3df585f15eca27bdd2e0c0d7e2f1db3e2c0a1f8a035167ab9f9061b5f986f5c960aebe912340a5a72935aa334afa8fbfe586d05b180a0101535c5f9ce270cf1e42508046a3b6eaa4750b5cbc79e6175ab8ef99d7ff2efa06790caebc3ffa97346a428233086b862c4b7f67047ea38d3019176f33bb6be0e",
  "signedLondon": "0x02f9020e8081fc81ab87ca73b4280244cd8350ef84942c4ad0e9a08dd6fe31ba497fd4a893a0c1fc6b3484b5a876b3b861143b176659a1b826916e4a012ffaaf5e21251e27317a1f565a716b8ff184d8c689f93f5a7359abcbffd18d7bea36ee123ce5cddbbdd92d4a6f9f9418314cdb81ec2df3d713c48fd63574eb4fd029b67d6233aeae60815e225597f647de565b8050f9013af89b943266ce0ab053240ce5d95993d420c6b9a1da1fdcf884a0a0568d48a6cc9e0c92080dec2155382a276181f25c746da97f8199f3a8464211a080b165a49183e897da692ca460c5c88a0597e5e4ad7b43471bac25bfd9a780e0a0a628e4d1cfbcc69964473b21b3df585f15eca27bdd2e0c0d7e2f1db3e2c0a1f8a035167ab9f9061b5f986f5c960aebe912340a5a72935aa334afa8fbfe586d05b1f89b94f199b9f871065e2e18291cdec3bf7c1ed32fba0af884a0a0568d48a6cc9e0c92080dec2155382a276181f25c746da97f8199f3a8464211a080b165a49183e897da692ca460c5c88a0597e5e4ad7b43471bac25bfd9a780e0a0a628e4d1cfbcc69964473b21b3df585f15eca27bdd2e0c0d7e2f1db3e2c0a1f8a035167ab9f9061b5f986f5c960aebe912340a5a72935aa334afa8fbfe586d05b101a053ba7c3694c9fbe542dbc0cc204b981f01ff9889e4ea84e944c10488194a0d5ea055155b06280e7793d3144432df100d81cae7bbabbbc0e74a187396400712ff8a"
}
