{
  "name": "random-8",
  "transaction": {
    "to": "0x74A3Ddaa5CD03Ba0e9B7cd5535BDa1E23F691932",
    "nonce": 965,
    "gasLimit": "0x35",
    "gasPrice": "0x11ac8f05",
    "maxFeePerGas": "0xae07efb83ed7ae",
    "maxPriorityFeePerGas": "0xdeb8",
    "data": "0xb7c4964ed0cebae0f12c2cbb2adadd2b7ef1b2183c1d5df71354ba8da3bff86e14975031ee08b2239ded1369a235c68a72cc994af2744f70a7214babec31160cd6f142",
    "value": "0xa62ec77a",
    "accessList": [
      {
        "address": "0xE125F9D848135f52ecc65FcF216146541688f4ec",
        "storageKeys": []
      }
    ],
    "chainId": "0x473eafa7",
    "maxFeePerBlobGas": "0x1a6c2938773134",
    "blobVersionedHashes": [
      "0x01244e9f27106e77da21d39868d5400854a0cf90e2f58a1134b655704acb213e"
    ]
  },
  "privateKey": "0xbcc0a8d59a4ebe22dbcc8a52e2975f634f6e3095716602f08e214e4017684180",
  "unsignedLegacy": "0xf8688203c58411ac8f05359474a3ddaa5cd03ba0e9b7cd5535bda1e23f69193284a62ec77ab843b7c4964ed0cebae0f12c2cbb2adadd2b7ef1b2183c1d5df71354ba8da3bff86e14975031ee08b2239ded1369a235c68a72cc994af2744f70a7214babec31160cd6f142",
  "unsignedEip155": "0xf86f8203c58411ac8f05359474a3ddaa5cd03ba0e9b7cd5535bda1e23f69193284a62ec77ab843b7c4964ed0cebae0f12c2cbb2adadd2b7ef1b2183c1d5df71354ba8da3bff86e14975031ee08b2239ded1369a235c68a72cc994af2744f70a7214babec31160cd6f14284473eafa78080",
  "unsignedBerlin": "0x01f88584473eafa78203c58411ac8f05359474a3ddaa5cd03ba0e9b7cd5535bda1e23f69193284a62ec77ab843b7c4964ed0cebae0f12c2cbb2adadd2b7ef1b2183c1d5df71354ba8da3bff86e14975031ee08b2239ded1369a235c68a72cc994af2744f70a7214babec31160cd6f142d7d694e125f9d848135f52ecc65fcf216146541688f4ecc0",
  "unsignedLondon": "0x02f88b84473eafa78203c582deb887ae07efb83ed7ae359474a3ddaa5cd03ba0e9b7cd5535bda1e23f69193284a62ec77ab843b7c4964ed0cebae0f12c2cbb2adadd2b7ef1b2183c1d5df71354ba8da3bff86e14975031ee08b2239ded1369a235c68a72cc994af2744f70a7214babec31160cd6f142d7d694e125f9d848135f52ecc65fcf216146541688f4ecc0",
  "unsignedCancun": "0x03f8b584473eafa78203c582deb887ae07efb83ed7ae359474a3ddaa5cd03ba0e9b7cd5535bda1e23f69193284a62ec77ab843b7c4964ed0cebae0f12c2cbb2adadd2b7ef1b2183c1d5df71354ba8da3bff86e14975031ee08b2239ded1369a235c68a72cc994af2744f70a7214babec31160cd6f142d7d694e125f9d848135f52ecc65fcf216146541688f4ecc0871a6c2938773134e1a001244e9f27106e77da21d39868d5400854a0cf90e2f58a1134b655704acb213e",
  "signedLegacy": "0xf8ab8203c58411ac8f05359474a3ddaa5cd03ba0e9b7cd5535bda1e23f69193284a62ec77ab843b7c4964ed0cebae0f12c2cbb2adadd2b7ef1b2183c1d5df71354ba8da3bff86e14975031ee08b2239ded1369a235c68a72cc994af2744f70a7214babec31160cd6f1421ba049a9667e37b4619f39fb925cac786d8ec36b44f7f524cf936ce36cc97ebb04eda074679d25c7bd881450bb623002cb1d5b09b45e9435ebc469b9cea2d05feae86a",
  "signedEip155": "0xf8af8203c58411ac8f05359474a3ddaa5cd03ba0e9b7cd5535bda1e23f69193284a62ec77ab843b7c4964ed0cebae0f12c2cbb2adadd2b7ef1b2183c1d5df71354ba8da3bff86e14975031ee08b2239ded1369a235c68a72cc994af2744f70a7214babec31160cd6f142848e7d5f72a0e211ba6a21a4ae8bf4cafb29b98d2382bcee9435181a5261964f517ca91b33ffa038351fa3cfe37c88b2bd3aa16421bd37abf6356491f05789624c9f0e25682a38",
  "signedBerlin": "0x01f8c884473eafa78203c58411ac8f05359474a3ddaa5cd03ba0e9b7cd5535bda1e23f69193284a62ec77ab843b7c4964ed0cebae0f12c2cbb2adadd2b7ef1b2183c1d5df71354ba8da3bff86e14975031ee08b2239ded1369a235c68a72cc994af2744f70a7214babec31160cd6f142d7d694e125f9d848135f52ecc65fcf216146541688f4ecc001a0cf7dfd4507fb9331f4344fe787ecdbfb74d5c09cf71f2fcccb84d12be2a11f5fa07359816992767a631758506f7000bd4cb576cc62388bc490922ab96ee353cc82",
  "signedLondon": "0x02f8ce84473eafa78203c582deb887ae07efb83ed7ae359474a3ddaa5cd03ba0e9b7cd5535bda1e23f69193284a62ec77ab843b7c4964ed0cebae0f12c2cbb2adadd2b7ef1b2183c1d5df71354ba8da3bff86e14975031ee08b2239ded1369a235c68a72cc994af2744f70a7214babec31160cd6f142d7d694e125f9d848135f52ecc65fcf216146541688f4ecc080a04b1e128faa1365b45eacf1da245d78a3c6c10619a265e268657bd8db50c2ac3ea02538dcbc52e6648a320c641268b5eef3bd9eb24d5f17aa1a3535c194b1404e58",
  "signedCancun": "0x03f8f884473eafa78203c582deb887ae07efb83ed7ae359474a3ddaa5cd03ba0e9b7cd5535bda1e23f69193284a62ec77ab843b7c4964ed0cebae0f12c2cbb2adadd2b7ef1b2183c1d5df71354ba8da3bff86e14975031ee08b2239ded1369a235c68a72cc994af2744f70a7214babec31160cd6f142d7d694e125f9d848135f52ecc65fcf216146541688f4ecc0871a6c2938773134e1a001244e9f27106e77da21d39868d5400854a0cf90e2f58a1134b655704acb213e80a0e0e7119acfae63aabe8754ff93738fba1714ef044cbf0cf00bb155e5fd32a629a064c04c7a22c0070cc3f6fa061677be23c3336359cdb428f02f53945d73fd4e77",
  "signatureLegacy": {
    "r": "0x49a9667e37b4619f39fb925cac786d8ec36b44f7f524cf936ce36cc97ebb04ed",
    "s": "0x74679d25c7bd881450bb623002cb1d5b09b45e9435ebc469b9cea2d05feae86a",
    "v": "0x1b"
  },
  "signatureEip155": {
    "r": "0xe211ba6a21a4ae8bf4cafb29b98d2382bcee9435181a5261964f517ca91b33ff",
    "s": "0x38351fa3cfe37c88b2bd3aa16421bd37abf6356491f05789624c9f0e25682a38",
    "v": "0x8e7d5f72"
  },
  "signatureBerlin": {
    "r": "0xcf7dfd4507fb9331f4344fe787ecdbfb74d5c09cf71f2fcccb84d12be2a11f5f",
    "s": "0x7359816992767a631758506f7000bd4cb576cc62388bc490922ab96ee353cc82",
    "v": "0x1"
  },
  "signatureLondon": {
    "r": "0x4b1e128faa1365b45eacf1da245d78a3c6c10619a265e268657bd8db50c2ac3e",
    "s": "0x2538dcbc52e6648a320c641268b5eef3bd9eb24d5f17aa1a3535c194b1404e58",
    "v": "0x0"
  },
  "signatureCancun": {
    "r": "0xe0e7119acfae63aabe8754ff93738fba1714ef044cbf0cf00bb155e5fd32a629",
    "s": "0x64c04c7a22c0070cc3f6fa061677be23c3336359cdb428f02f53945d73fd4e77",
    "v": "0x0"
  }
}
