{
  "name": "random-20",
  "transaction": {
    "to": "0x60fC630156D46bF9b1BF5B7d251C6CbE64702BF3",
    "nonce": 812,
    "gasLimit": "0xe010b5",
    "gasPrice": "0x41f1af255d",
    "maxFeePerGas": "0xc2214fa5",
    "maxPriorityFeePerGas": "0x4a",
    "data": "0x647daf6b789306d2daeb51be942c40d66194d5e0e9dca946aa830d686d493c1d1a07090d9cde8d73c6b982f5d00161b6ee0b302cdc24f29ebd146e99149adc7666f4d1d12146f077cc6e7f78addae71d399b445a14ff15a67efb8f39dcfd32af41968639dd3665d282e4065caef58441e6ac3ebc4b8d94",
    "value": "0x6e7b",
    "accessList": [
      {
        "address": "0x36aAaa454aAB9A9409b890C32E9304C42EC8b05A",
        "storageKeys": []
      },
      {
        "address": "0x7F7Ac0f60Be35f1e8F7c70A7AA5d596bC7648745",
        "storageKeys": []
      },
      {
        "address": "0xf9Fb9Bb09b08C0Fa137E76615BBd50B5cc63BCc4",
        "storageKeys": []
      },
      {
        "address": "0x69C6c93f57A0C11a765F2B9076a9575c4b015d03",
        "storageKeys": []
      }
    ],
    "chainId": "0x08454b",
    "maxFeePerBlobGas": "0xdd2ab7977e4979",
    "blobVersionedHashes": [
      "0x013b327d88c9e88e3e246eeca1cc70db85b0bb0f98984ad796047d4baaea4373",
      "0x01b7bd6841fda1dfb6cebfe85366cedd754408fdf1431865ab3a5744a4e17507",
      "0x01136b560d707867f29fdaa25db50e2b926bb89e032a28fbd78f06a995088288",
      "0x01d5dc7ebc9a67d8b006f15c809dfb1e4dfc5298eb1ba049d24847314bb3ac62"
    ]
  },
  "privateKey": "0x6efb2ce4981ad5555974b8b6b4f767d774c32f9e09e0009d5d914e29614ec739",
  "unsignedLegacy": "0xf89e82032c8541f1af255d83e010b59460fc630156d46bf9b1bf5b7d251c6cbe64702bf3826e7bb877647daf6b789306d2daeb51be942c40d66194d5e0e9dca946aa830d686d493c1d1a07090d9cde8d73c6b982f5d00161b6ee0b302cdc24f29ebd146e99149adc7666f4d1d12146f077cc6e7f78addae71d399b445a14ff15a67efb8f39dcfd32af41968639dd3665d282e4065caef58441e6ac3ebc4b8d94",
  "unsignedEip155": "0xf8a482032c8541f1af255d83e010b59460fc630156d46bf9b1bf5b7d251c6cbe64702bf3826e7bb877647daf6b789306d2daeb51be942c40d66194d5e0e9dca946aa830d686d493c1d1a07090d9cde8d73c6b982f5d00161b6ee0b302cdc24f29ebd146e99149adc7666f4d1d12146f077cc6e7f78addae71d399b445a14ff15a67efb8f39dcfd32af41968639dd3665d282e4065caef58441e6ac3ebc4b8d948308454b8080",
  "unsignedBerlin": "0x01f901008308454b82032c8541f1af255d83e010b59460fc630156d46bf9b1bf5b7d251c6cbe64702bf3826e7bb877647daf6b789306d2daeb51be942c40d66194d5e0e9dca946aa830d686d493c1d1a07090d9cde8d73c6b982f5d00161b6ee0b302cdc24f29ebd146e99149adc7666f4d1d12146f077cc6e7f78addae71d399b445a14ff15a67efb8f39dcfd32af41968639dd3665d282e4065caef58441e6ac3ebc4b8d94f85cd69436aaaa454aab9a9409b890c32e9304c42ec8b05ac0d6947f7ac0f60be35f1e8f7c70a7aa5d596bc7648745c0d694f9fb9bb09b08c0fa137e76615bbd50b5cc63bcc4c0d69469c6c93f57a0c11a765f2b9076a9575c4b015d03c0",
  "unsignedLondon": "0x02f901008308454b82032c4a84c2214fa583e010b59460fc630156d46bf9b1bf5b7d251c6cbe64702bf3826e7bb877647daf6b789306d2daeb51be942c40d66194d5e0e9dca946aa830d686d493c1d1a07090d9cde8d73c6b982f5d00161b6ee0b302cdc24f29ebd146e99149adc7666f4d1d12146f077cc6e7f78addae71d399b445a14ff15a67efb8f39dcfd32af41968639dd3665d282e4065caef58441e6ac3ebc4b8d94f85cd69436aaaa454aab9a9409b890c32e9304c42ec8b05ac0d6947f7ac0f60be35f1e8f7c70a7aa5d596bc7648745c0d694f9fb9bb09b08c0fa137e76615bbd50b5cc63bcc4c0d69469c6c93f57a0c11a765f2b9076a9575c4b015d03c0",
  "unsignedCancun": "0x03f9018e8308454b82032c4a84c2214fa583e010b59460fc630156d46bf9b1bf5b7d251c6cbe64702bf3826e7bb877647daf6b789306d2daeb51be942c40d66194d5e0e9dca946aa830d686d493c1d1a07090d9cde8d73c6b982f5d00161b6ee0b302cdc24f29ebd146e99149adc7666f4d1d12146f077cc6e7f78addae71d399b445a14ff15a67efb8f39dcfd32af41968639dd3665d282e4065caef58441e6ac3ebc4b8d94f85cd69436aaaa454aab9a9409b890c32e9304c42ec8b05ac0d6947f7ac0f60be35f1e8f7c70a7aa5d596bc7648745c0d694f9fb9bb09b08c0fa137e76615bbd50b5cc63bcc4c0d69469c6c93f57a0c11a765f2b9076a9575c4b015d03c087dd2ab7977e4979f884a0013b327d88c9e88e3e246eeca1cc70db85b0bb0f98984ad796047d4baaea4373a001b7bd6841fda1dfb6cebfe85366cedd754408fdf1431865ab3a5744a4e17507a001136b560d707867f29fdaa25db50e2b926bb89e032a28fbd78f06a995088288a001d5dc7ebc9a67d8b006f15c809dfb1e4dfc5298eb1ba049d24847314bb3ac62",
  "signedLegacy": "0xf8e182032c8541f1af255d83e010b59460fc630156d46bf9b1bf5b7d251c6cbe64702bf3826e7bb877647daf6b789306d2daeb51be942c40d66194d5e0e9dca946aa830d686d493c1d1a07090d9cde8d73c6b982f5d00161b6ee0b302cdc24f29ebd146e99149adc7666f4d1d12146f077cc6e7f78addae71d399b445a14ff15a67efb8f39dcfd32af41968639dd3665d282e4065caef58441e6ac3ebc4b8d941ca0707fd3dbc3b260752493e64be389a2689bf3b8b181a4e7baa7eeb0176ba84283a04868672b9d487c34906166770fd51f0598b026b3368bb5f4d0a99ca4fc0706e9",
  "signedEip155": "0xf8e482032c8541f1af255d83e010b59460fc630156d46bf9b1bf5b7d251c6cbe64702bf3826e7bb877647daf6b789306d2daeb51be942c40d66194d5e0e9dca946aa830d686d493c1d1a07090d9cde8d73c6b982f5d00161b6ee0b302cdc24f29ebd146e99149adc7666f4d1d12146f077cc6e7f78addae71d399b445a14ff15a67efb8f39dcfd32af41968639dd3665d282e4065caef58441e6ac3ebc4b8d9483108abaa014c49179d7be5caf2590610b76eeace610c536ff3e1d1eab3b43c164fe90e472a06bb4caad9a679371ce6527da4f3a404d3cd1b36712a47774112f19add1ca4d2e",
  "signedBerlin": "0x01f901438308454b82032c8541f1af255d83e010b59460fc630156d46bf9b1bf5b7d251c6cbe64702bf3826e7bb877647daf6b789306d2daeb51be942c40d66194d5e0e9dca946aa830d686d493c1d1a07090d9cde8d73c6b982f5d00161b6ee0b302cdc24f29ebd146e99149adc7666f4d1d12146f077cc6e7f78addae71d399b445a14ff15a67efb8f39dcfd32af41968639dd3665d282e4065caef58441e6ac3ebc4b8d94f85cd69436aaaa454aab9a9409b890c32e9304c42ec8b05ac0d6947f7ac0f60be35f1e8f7c70a7aa5d596bc7648745c0d694f9fb9bb09b08c0fa137e76615bbd50b5cc63bcc4c0d69469c6c93f57a0c11a765f2b9076a9575c4b015d03c001a0b445c3c80cfa7df6401a7f0c46094a0fcb63749ff073b44d72c6d1f88f5212a6a07d418e8c1f5bb3a928ea11e3049943f7c60bacbaef1c78c90f9899331574336e",
  "signedLondon": "0x02f901438308454b82032c4a84c2214fa583e010b59460fc630156d46bf9b1bf5b7d251c6cbe64702bf3826e7bb877647daf6b789306d2daeb51be942c40d66194d5e0e9dca946aa830d686d493c1d1a07090d9cde8d73c6b982f5d00161b6ee0b302cdc24f29ebd146e99149adc7666f4d1d12146f077cc6e7f78addae71d399b445a14ff15a67efb8f39dcfd32af41968639dd3665d282e4065caef58441e6ac3ebc4b8d94f85cd69436aaaa454aab9a9409b890c32e9304c42ec8b05ac0d6947f7ac0f60be35f1e8f7c70a7aa5d596bc7648745c0d694f9fb9bb09b08c0fa137e76615bbd50b5cc63bcc4c0d69469c6c93f57a0c11a765f2b9076a9575c4b015d03c080a0dafce44a782685fd338895386a5b13b4183706b3621c55b92dc0e43b3dd947d0a0697a9b17a80710efd85c62104a68156c67399c69b50bc951c4888a2f6446cad4",
  "signedCancun": "0x03f901d18308454b82032c4a84c2214fa583e010b59460fc630156d46bf9b1bf5b7d251c6cbe64702bf3826e7bb877647daf6b789306d2daeb51be942c40d66194d5e0e9dca946aa830d686d493c1d1a07090d9cde8d73c6b982f5d00161b6ee0b302cdc24f29ebd146e99149adc7666f4d1d12146f077cc6e7f78addae71d399b445a14ff15a67efb8f39dcfd32af41968639dd3665d282e4065caef58441e6ac3ebc4b8d94f85cd69436aaaa454aab9a9409b890c32e9304c42ec8b05ac0d6947f7ac0f60be35f1e8f7c70a7aa5d596bc7648745c0d694f9fb9bb09b08c0fa137e76615bbd50b5cc63bcc4c0d69469c6c93f57a0c11a765f2b9076a9575c4b015d03c087dd2ab7977e4979f884a0013b327d88c9e88e3e246eeca1cc70db85b0bb0f98984ad796047d4baaea4373a001b7bd6841fda1dfb6cebfe85366cedd754408fdf1431865ab3a5744a4e17507a001136b560d707867f29fdaa25db50e2b926bb89e032a28fbd78f06a995088288a001d5dc7ebc9a67d8b006f15c809dfb1e4dfc5298eb1ba049d24847314bb3ac6201a0ffd7654221802fa30c1c1be235fb78ca7b16d538a395476d890f0ff4132e852da05977fdaa1bf697432d5c6533adb63e77251c2ca149b2b2a629c752838a36f749",
  "signatureLegacy": {
    "r": "0x707fd3dbc3b260752493e64be389a2689bf3b8b181a4e7baa7eeb0176ba84283",
    "s": "0x4868672b9d487c34906166770fd51f0598b026b3368bb5f4d0a99ca4fc0706e9",
    "v": "0x1c"
  },
  "signatureEip155": {
    "r": "0x14c49179d7be5caf2590610b76eeace610c536ff3e1d1eab3b43c164fe90e472",
    "s": "0x6bb4caad9a679371ce6527da4f3a404d3cd1b36712a47774112f19add1ca4d2e",
    "v": "0x108aba"
  },
  "signatureBerlin": {
    "r": "0xb445c3c80cfa7df6401a7f0c46094a0fcb63749ff073b44d72c6d1f88f5212a6",
    "s": "0x7d418e8c1f5bb3a928ea11e3049943f7c60bacbaef1c78c90f9899331574336e",
    "v": "0x1"
  },
  "signatureLondon": {
    "r": "0xdafce44a782685fd338895386a5b13b4183706b3621c55b92dc0e43b3dd947d0",
    "s": "0x697a9b17a80710efd85c62104a68156c67399c69b50bc951c4888a2f6446cad4",
    "v": "0x0"
  },
  "signatureCancun": {
    "r": "0xffd7654221802fa30c1c1be235fb78ca7b16d538a395476d890f0ff4132e852d",
    "s": "0x5977fdaa1bf697432d5c6533adb63e77251c2ca149b2b2a629c752838a36f749",
    "v": "0x1"
  }
}
