{
  "name": "random-0",
  "transaction": {
    "to": "0x6Eb893e3466931517a04a17D153a6330c3f2f1dD",
    "nonce": 648,
    "gasLimit": "0x9d",
    "gasPrice": "0x237e",
    "maxFeePerGas": "0x346d9246",
    "maxPriorityFeePerGas": "0x2c7e63",
    "data": "0x889e365e59664fb881554ba1175519b5195b1d20390beb806d8f2cda7893e6f79848195dba4c905db6d7257ffb5eefea35f18ae33c",
    "value": "0xc854",
    "accessList": [],
    "chainId": "0x8404bf1f",
    "maxFeePerBlobGas": "0x2ddc4988",
    "blobVersionedHashes": [
      "0x01ecbc98026bec75cc99701e9dbf9d1a7edf9db4106e01c171822da8b1f7f392",
      "0x016b567cab2d2fa35658d3bac34b81cf3cc667b9a9fbae9ed58ac961dfc5d96b"
    ]
  },
  "privateKey": "0x2bf558dce44ca98616ee629199215ae5401c97040664637c48e3b74e66bcb3ae",
  "unsignedLegacy": "0xf85682028882237e819d946eb893e3466931517a04a17d153a6330c3f2f1dd82c854b5889e365e59664fb881554ba1175519b5195b1d20390beb806d8f2cda7893e6f79848195dba4c905db6d7257ffb5eefea35f18ae33c",
  "unsignedEip155": "0xf85d82028882237e819d946eb893e3466931517a04a17d153a6330c3f2f1dd82c854b5889e365e59664fb881554ba1175519b5195b1d20390beb806d8f2cda7893e6f79848195dba4c905db6d7257ffb5eefea35f18ae33c848404bf1f8080",
  "unsignedBerlin": "0x01f85c848404bf1f82028882237e819d946eb893e3466931517a04a17d153a6330c3f2f1dd82c854b5889e365e59664fb881554ba1175519b5195b1d20390beb806d8f2cda7893e6f79848195dba4c905db6d7257ffb5eefea35f18ae33cc0",
  "unsignedLondon": "0x02f862848404bf1f820288832c7e6384346d9246819d946eb893e3466931517a04a17d153a6330c3f2f1dd82c854b5889e365e59664fb881554ba1175519b5195b1d20390beb806d8f2cda7893e6f79848195dba4c905db6d7257ffb5eefea35f18ae33cc0",
  "unsignedCancun": "0x03f8ab848404bf1f820288832c7e6384346d9246819d946eb893e3466931517a04a17d153a6330c3f2f1dd82c854b5889e365e59664fb881554ba1175519b5195b1d20390beb806d8f2cda7893e6f79848195dba4c905db6d7257ffb5eefea35f18ae33cc0842ddc4988f842a001ecbc98026bec75cc99701e9dbf9d1a7edf9db4106e01c171822da8b1f7f392a0016b567cab2d2fa35658d3bac34b81cf3cc667b9a9fbae9ed58ac961dfc5d96b",
  "signedLegacy": "0xf89982028882237e819d946eb893e3466931517a04a17d153a6330c3f2f1dd82c854b5889e365e59664fb881554ba1175519b5195b1d20390beb806d8f2cda7893e6f79848195dba4c905db6d7257ffb5eefea35f18ae33c1ba0ba61344dc955b2f0e5dbc3c65e023e1c718539465131acb8a51b2ef75620114aa03366e9f2294bf2eca7322f3954b9b38745c40602239e3d7fa693667206907518",
  "signedEip155": "0xf89e82028882237e819d946eb893e3466931517a04a17d153a6330c3f2f1dd82c854b5889e365e59664fb881554ba1175519b5195b1d20390beb806d8f2cda7893e6f79848195dba4c905db6d7257ffb5eefea35f18ae33c850108097e62a0f141fe1b7e2fc1ed5d2b6ea4f04f92053e18f07274e2bda1c6852438c1895229a075553a7ae158a3fd46f75b547e847b59e2876f9a42de7a26d016db33232516de",
  "signedBerlin": "0x01f89f848404bf1f82028882237e819d946eb893e3466931517a04a17d153a6330c3f2f1dd82c854b5889e365e59664fb881554ba1175519b5195b1d20390beb806d8f2cda7893e6f79848195dba4c905db6d7257ffb5eefea35f18ae33cc080a0775f29642af1045b40e5beae8e6bce2dc9e222023b7a50372be6824dbb7434fba05dacfff85752a0b9fd860bc751c17235a670d318a8b9494d664c1b87e33ac8dd",
  "signedLondon": "0x02f8a5848404bf1f820288832c7e6384346d9246819d946eb893e3466931517a04a17d153a6330c3f2f1dd82c854b5889e365e59664fb881554ba1175519b5195b1d20390beb806d8f2cda7893e6f79848195dba4c905db6d7257ffb5eefea35f18ae33cc080a0f1003f96c6c6620dd46db36d2ae9f12d363947eb0db088c678b6ad1cf494aa6fa06085b5abbf448de5d622dc820da590cfdb6bb77b41c6650962b998a941f8d701",
  "signedCancun": "0x03f8ee848404bf1f820288832c7e6384346d9246819d946eb893e3466931517a04a17d153a6330c3f2f1dd82c854b5889e365e59664fb881554ba1175519b5195b1d20390beb806d8f2cda7893e6f79848195dba4c905db6d7257ffb5eefea35f18ae33cc0842ddc4988f842a001ecbc98026bec75cc99701e9dbf9d1a7edf9db4106e01c171822da8b1f7f392a0016b567cab2d2fa35658d3bac34b81cf3cc667b9a9fbae9ed58ac961dfc5d96b01a092109dabedb5dcd157eddaee3ce39c4c467589b338878b3434181d93ea09c099a0015f8b0ca76ad70e4a69a15078232b77871b8c59b30b2279066064dff3afef47",
  "signatureLegacy": {
    "r": "0xba61344dc955b2f0e5dbc3c65e023e1c718539465131acb8a51b2ef75620114a",
    "s": "0x3366e9f2294bf2eca7322f3954b9b38745c40602239e3d7fa693667206907518",
    "v": "0x1b"
  },
  "signatureEip155": {
    "r": "0xf141fe1b7e2fc1ed5d2b6ea4f04f92053e18f07274e2bda1c6852438c1895229",
    "s": "0x75553a7ae158a3fd46f75b547e847b59e2876f9a42de7a26d016db33232516de",
    "v": "0x108097e62"
  },
  "signatureBerlin": {
    "r": "0x775f29642af1045b40e5beae8e6bce2dc9e222023b7a50372be6824dbb7434fb",
    "s": "0x5dacfff85752a0b9fd860bc751c17235a670d318a8b9494d664c1b87e33ac8dd",
    "v": "0x0"
  },
  "signatureLondon": {
    "r": "0xf1003f96c6c6620dd46db36d2ae9f12d363947eb0db088c678b6ad1cf494aa6f",
    "s": "0x6085b5abbf448de5d622dc820da590cfdb6bb77b41c6650962b998a941f8d701",
    "v": "0x0"
  },
  "signatureCancun": {
    "r": "0x92109dabedb5dcd157eddaee3ce39c4c467589b338878b3434181d93ea09c099",
    "s": "0x015f8b0ca76ad70e4a69a15078232b77871b8c59b30b2279066064dff3afef47",
    "v": "0x1"
  }
}
