{
  "name": "random-11",
  "transaction": {
    "to": "0x84c0ab0b0bb392fc645293fd9f88ce734f520c3d",
    "nonce": 152,
    "gasLimit": "0x",
    "gasPrice": "0x",
    "maxFeePerGas": "0x5d0f93b5b02a59",
    "maxPriorityFeePerGas": "0xbb",
    "data": "0x6e5017160c5c6b4f63948ee9bd3027e46e555229e2e1db4137d4994c1ba30e349815d1f4bf15c10b1fca3c62924fe498f049b9e38b4ed11cde6ccc9425c6b18a0120f19a442a10b1f476095be68ccc57160395",
    "value": "0xdb3e",
    "accessList": [
      {
        "address": "0x43b314a73dd9368a2c0227f3cc1315818db914d8",
        "storageKeys": [
          "0xe0e82939483d467088aae991d873c23719321b29648506c612ad2a06194051ef"
        ]
      },
      {
        "address": "0x4ea79a74f60b6bf2688b46fa9ba5db593098740b",
        "storageKeys": [
          "0xe0e82939483d467088aae991d873c23719321b29648506c612ad2a06194051ef"
        ]
      },
      {
        "address": "0x6eb7fd5fdfd7f48e137da1b368287f2c6cc12b45",
        "storageKeys": [
          "0xe0e82939483d467088aae991d873c23719321b29648506c612ad2a06194051ef"
        ]
      },
      {
        "address": "0xb8ece452e0840b0b30d0bcb4d1400b545cfb746f",
        "storageKeys": [
          "0xe0e82939483d467088aae991d873c23719321b29648506c612ad2a06194051ef"
        ]
      }
    ],
    "chainId": "0x"
  },
  "privateKey": "0x335dca53da48dba1ac89b63618acd056621774dd60a7ef7f891f64c8c659e7b3",
  "unsignedLegacy": "0xf871819880809484c0ab0b0bb392fc645293fd9f88ce734f520c3d82db3eb8536e5017160c5c6b4f63948ee9bd3027e46e555229e2e1db4137d4994c1ba30e349815d1f4bf15c10b1fca3c62924fe498f049b9e38b4ed11cde6ccc9425c6b18a0120f19a442a10b1f476095be68ccc57160395",
  "unsignedEip155": "0xf874819880809484c0ab0b0bb392fc645293fd9f88ce734f520c3d82db3eb8536e5017160c5c6b4f63948ee9bd3027e46e555229e2e1db4137d4994c1ba30e349815d1f4bf15c10b1fca3c62924fe498f049b9e38b4ed11cde6ccc9425c6b18a0120f19a442a10b1f476095be68ccc57160395008080",
  "unsignedBerlin": "0x01f9015480819880809484c0ab0b0bb392fc645293fd9f88ce734f520c3d82db3eb8536e5017160c5c6b4f63948ee9bd3027e46e555229e2e1db4137d4994c1ba30e349815d1f4bf15c10b1fca3c62924fe498f049b9e38b4ed11cde6ccc9425c6b18a0120f19a442a10b1f476095be68ccc57160395f8e0f79443b314a73dd9368a2c0227f3cc1315818db914d8e1a0e0e82939483d467088aae991d873c23719321b29648506c612ad2a06194051eff7944ea79a74f60b6bf2688b46fa9ba5db593098740be1a0e0e82939483d467088aae991d873c23719321b29648506c612ad2a06194051eff7946eb7fd5fdfd7f48e137da1b368287f2c6cc12b45e1a0e0e82939483d467088aae991d873c23719321b29648506c612ad2a06194051eff794b8ece452e0840b0b30d0bcb4d1400b545cfb746fe1a0e0e82939483d467088aae991d873c23719321b29648506c612ad2a06194051ef",
  "unsignedLondon": "0x02f9015d80819881bb875d0f93b5b02a59809484c0ab0b0bb392fc645293fd9f88ce734f520c3d82db3eb8536e5017160c5c6b4f63948ee9bd3027e46e555229e2e1db4137d4994c1ba30e349815d1f4bf15c10b1fca3c62924fe498f049b9e38b4ed11cde6ccc9425c6b18a0120f19a442a10b1f476095be68ccc57160395f8e0f79443b314a73dd9368a2c0227f3cc1315818db914d8e1a0e0e82939483d467088aae991d873c23719321b29648506c612ad2a06194051eff7944ea79a74f60b6bf2688b46fa9ba5db593098740be1a0e0e82939483d467088aae991d873c23719321b29648506c612ad2a06194051eff7946eb7fd5fdfd7f48e137da1b368287f2c6cc12b45e1a0e0e82939483d467088aae991d873c23719321b29648506c612ad2a06194051eff794b8ece452e0840b0b30d0bcb4d1400b545cfb746fe1a0e0e82939483d467088aae991d873c23719321b29648506c612ad2a06194051ef",
  "signedLegacy": "0xf8b4819880809484c0ab0b0bb392fc645293fd9f88ce734f520c3d82db3eb8536e5017160c5c6b4f63948ee9bd3027e46e555229e2e1db4137d4994c1ba30e349815d1f4bf15c10b1fca3c62924fe498f049b9e38b4ed11cde6ccc9425c6b18a0120f19a442a10b1f476095be68ccc571603951ba0c93576774d087ce9621f25424bd6d3116e98699355fdf423d08fa0534e79c79da06692b3c7c0e7ce79b43131db1a3015451a77bac35e1d0f3151d9da742257b2f0",
  "signedEip155": "0xf8b4819880809484c0ab0b0bb392fc645293fd9f88ce734f520c3d82db3eb8536e5017160c5c6b4f63948ee9bd3027e46e555229e2e1db4137d4994c1ba30e349815d1f4bf15c10b1fca3c62924fe498f049b9e38b4ed11cde6ccc9425c6b18a0120f19a442a10b1f476095be68ccc5716039523a034f45f7551d4ec9b3e673efea66ccaaddd3d2a7702ed478410f5ade6b44d904ca0794002db599d23fd2f43678076d04437a7bf70334e3cbd46ead7adead247755a",
  "signedBerlin": "0x01f9019780819880809484c0ab0b0bb392fc645293fd9f88ce734f520c3d82db3eb8536e5017160c5c6b4f63948ee9bd3027e46e555229e2e1db4137d4994c1ba30e349815d1f4bf15c10b1fca3c62924fe498f049b9e38b4ed11cde6ccc9425c6b18a0120f19a442a10b1f476095be68ccc57160395f8e0f79443b314a73dd9368a2c0227f3cc1315818db914d8e1a0e0e82939483d467088aae991d873c23719321b29648506c612ad2a06194051eff7944ea79a74f60b6bf2688b46fa9ba5db593098740be1a0e0e82939483d467088aae991d873c23719321b29648506c612ad2a06194051eff7946eb7fd5fdfd7f48e137da1b368287f2c6cc12b45e1a0e0e82939483d467088aae991d873c23719321b29648506c612ad2a06194051eff794b8ece452e0840b0b30d0bcb4d1400b545cfb746fe1a0e0e82939483d467088aae991d873c23719321b29648506c612ad2a06194051ef01a02959403b47b4988723f4c402b9802f3bf055c351ff9dc91e735aebdb675b670ea0609888fcb96e0820a453d86a1f72c7b0adb6885f89e02885c9dbc5c4a579e24c",
  "signedLondon": "0x02f901a080819881bb875d0f93b5b02a59809484c0ab0b0bb392fc645293fd9f88ce734f520c3d82db3eb8536e5017160c5c6b4f63948ee9bd3027e46e555229e2e1db4137d4994c1ba30e349815d1f4bf15c10b1fca3c62924fe498f049b9e38b4ed11cde6ccc9425c6b18a0120f19a442a10b1f476095be68ccc57160395f8e0f79443b314a73dd9368a2c0227f3cc1315818db914d8e1a0e0e82939483d467088aae991d873c23719321b29648506c612ad2a06194051eff7944ea79a74f60b6bf2688b46fa9ba5db593098740be1a0e0e82939483d467088aae991d873c23719321b29648506c612ad2a06194051eff7946eb7fd5fdfd7f48e137da1b368287f2c6cc12b45e1a0e0e82939483d467088aae991d873c23719321b29648506c612ad2a06194051eff794b8ece452e0840b0b30d0bcb4d1400b545cfb746fe1a0e0e82939483d467088aae991d873c23719321b29648506c612ad2a06194051ef01a05d6818ebcf048f2f568db73dc58481dbcb6a9c7474a829943e68a12b5b8f8189a022ec138573a79a34ebf12a03fd7c68e1b3e642e2020d9a480048b1d500128fa0"
}
