{
  "name": "random-19",
  "transaction": {
    "to": "0x6d9186ad35ba39086d341c03b212a22dad55a70c",
    "nonce": 47,
    "gasLimit": "0x8e2d",
    "gasPrice": "0x",
    "maxFeePerGas": "0xaf8f001cace664",
    "maxPriorityFeePerGas": "0x86495d",
    "data": "0xa6e0079be77374ee2617550eadd15e206a8c7eb76eca2de96d48c4824b4646206720dfeb24956f1e712b58b9ef96fc92e637cf4c30614d86532d3110f670c5a70e5bdeef3dc5cf94ef8d3afffc50151c00a5ad1289fae8168bb120e9dbdb24c422eacfc4d8291c6dc942a872545c76b5c697806c84f478d361026a2ad9",
    "value": "0x4028",
    "accessList": [
      {
        "address": "0x27cbc99f4161665fc37a013015b0b99a959f6fcb",
        "storageKeys": []
      },
      {
        "address": "0x296e9be34584a14761c7b4ce82e99d4394a5f109",
        "storageKeys": []
      },
      {
        "address": "0xed1c55cde477e627081ac4d17376f4bf9a2dc51e",
        "storageKeys": []
      },
      {
        "address": "0x7a46971171aa87e7ef026c381053940714f4ad91",
        "storageKeys": []
      }
    ],
    "chainId": "0xf9bf"
  },
  "privateKey": "0x1b01010d8955e5cecc6705b73064baa37a703d65cb970a5b97c1cc9b76aa9473",
  "unsignedLegacy": "0xf89c2f80828e2d946d9186ad35ba39086d341c03b212a22dad55a70c824028b87da6e0079be77374ee2617550eadd15e206a8c7eb76eca2de96d48c4824b4646206720dfeb24956f1e712b58b9ef96fc92e637cf4c30614d86532d3110f670c5a70e5bdeef3dc5cf94ef8d3afffc50151c00a5ad1289fae8168bb120e9dbdb24c422eacfc4d8291c6dc942a872545c76b5c697806c84f478d361026a2ad9",
  "unsignedEip155": "0xf8a12f80828e2d946d9186ad35ba39086d341c03b212a22dad55a70c824028b87da6e0079be77374ee2617550eadd15e206a8c7eb76eca2de96d48c4824b4646206720dfeb24956f1e712b58b9ef96fc92e637cf4c30614d86532d3110f670c5a70e5bdeef3dc5cf94ef8d3afffc50151c00a5ad1289fae8168bb120e9dbdb24c422eacfc4d8291c6dc942a872545c76b5c697806c84f478d361026a2ad982f9bf8080",
  "unsignedBerlin": "0x01f8fd82f9bf2f80828e2d946d9186ad35ba39086d341c03b212a22dad55a70c824028b87da6e0079be77374ee2617550eadd15e206a8c7eb76eca2de96d48c4824b4646206720dfeb24956f1e712b58b9ef96fc92e637cf4c30614d86532d3110f670c5a70e5bdeef3dc5cf94ef8d3afffc50151c00a5ad1289fae8168bb120e9dbdb24c422eacfc4d8291c6dc942a872545c76b5c697806c84f478d361026a2ad9f85cd69427cbc99f4161665fc37a013015b0b99a959f6fcbc0d694296e9be34584a14761c7b4ce82e99d4394a5f109c0d694ed1c55cde477e627081ac4d17376f4bf9a2dc51ec0d6947a46971171aa87e7ef026c381053940714f4ad91c0",
  "unsignedLondon": "0x02f9010882f9bf2f8386495d87af8f001cace664828e2d946d9186ad35ba39086d341c03b212a22dad55a70c824028b87da6e0079be77374ee2617550eadd15e206a8c7eb76eca2de96d48c4824b4646206720dfeb24956f1e712b58b9ef96fc92e637cf4c30614d86532d3110f670c5a70e5bdeef3dc5cf94ef8d3afffc50151c00a5ad1289fae8168bb120e9dbdb24c422eacfc4d8291c6dc942a872545c76b5c697806c84f478d361026a2ad9f85cd69427cbc99f4161665fc37a013015b0b99a959f6fcbc0d694296e9be34584a14761c7b4ce82e99d4394a5f109c0d694ed1c55cde477e627081ac4d17376f4bf9a2dc51ec0d6947a46971171aa87e7ef026c381053940714f4ad91c0",
  "signedLegacy": "0xf8df2f80828e2d946d9186ad35ba39086d341c03b212a22dad55a70c824028b87da6e0079be77374ee2617550eadd15e206a8c7eb76eca2de96d48c4824b4646206720dfeb24956f1e712b58b9ef96fc92e637cf4c30614d86532d3110f670c5a70e5bdeef3dc5cf94ef8d3afffc50151c00a5ad1289fae8168bb120e9dbdb24c422eacfc4d8291c6dc942a872545c76b5c697806c84f478d361026a2ad91ba0d355c1bea6c06e17c78c571eac0d70d609f5d6b8f3993739ea7ccdeb0555528fa071cafb16bd3a67961dd72b48fdd6f0dca459bd7af8c09362b16c22e7fbd7b5ca",
  "signedEip155": "0xf8e22f80828e2d946d9186ad35ba39086d341c03b212a22dad55a70c824028b87da6e0079be77374ee2617550eadd15e206a8c7eb76eca2de96d48c4824b4646206720dfeb24956f1e712b58b9ef96fc92e637cf4c30614d86532d3110f670c5a70e5bdeef3dc5cf94ef8d3afffc50151c00a5ad1289fae8168bb120e9dbdb24c422eacfc4d8291c6dc942a872545c76b5c697806c84f478d361026a2ad98301f3a1a07de435eb1806802e6ccff537f6f5a1c1e558495f78ad99a0a185bef26c2ddc38a055d68e827df557db2c914e4cab9ad23b2cae0e2327328e5925a0ba3b636b5be7",
  "signedBerlin": "0x01f9014082f9bf2f80828e2d946d9186ad35ba39086d341c03b212a22dad55a70c824028b87da6e0079be77374ee2617550eadd15e206a8c7eb76eca2de96d48c4824b4646206720dfeb24956f1e712b58b9ef96fc92e637cf4c30614d86532d3110f670c5a70e5bdeef3dc5cf94ef8d3afffc50151c00a5ad1289fae8168bb120e9dbdb24c422eacfc4d8291c6dc942a872545c76b5c697806c84f478d361026a2ad9f85cd69427cbc99f4161665fc37a013015b0b99a959f6fcbc0d694296e9be34584a14761c7b4ce82e99d4394a5f109c0d694ed1c55cde477e627081ac4d17376f4bf9a2dc51ec0d6947a46971171aa87e7ef026c381053940714f4ad91c080a0373ed33e4f42c9517a3834eb700b4e14f5435cb79d05d75ab6b82071b7b6a3bda00d0e43b42c36999a2b156376cecd25a636f45e66d44cde74c2e7ce6f80f60b26",
  "signedLondon": "0x02f9014b82f9bf2f8386495d87af8f001cace664828e2d946d9186ad35ba39086d341c03b212a22dad55a70c824028b87da6e0079be77374ee2617550eadd15e206a8c7eb76eca2de96d48c4824b4646206720dfeb24956f1e712b58b9ef96fc92e637cf4c30614d86532d3110f670c5a70e5bdeef3dc5cf94ef8d3afffc50151c00a5ad1289fae8168bb120e9dbdb24c422eacfc4d8291c6dc942a872545c76b5c697806c84f478d361026a2ad9f85cd69427cbc99f4161665fc37a013015b0b99a959f6fcbc0d694296e9be34584a14761c7b4ce82e99d4394a5f109c0d694ed1c55cde477e627081ac4d17376f4bf9a2dc51ec0d6947a46971171aa87e7ef026c381053940714f4ad91c080a08ee05bfab253ef919f04cc94aa1012778925720c5a0b40f0db2fa27f1715f32ca032706fe70263611dbfb38af699242cd306b198a8364d2585615c47434d5c3c13"
}
