{
  "name": "random-16",
  "transaction": {
    "to": "0xb26832f9eebe1bb94cb67d5c6babf358d15f834e",
    "nonce": 306,
    "gasLimit": "0xfb38",
    "gasPrice": "0x7029692f45",
    "maxFeePerGas": "0xf631d7b0a81f",
    "maxPriorityFeePerGas": "0x",
    "data": "0xd43c5c6cbe06f0c46868590f0951afc1b55f38598f5caf4d2f811ed3bbb8a87de83f074bc2cf19ca7225a65533cbe03aed1f43fa7cd1ef178e1ec2de6076d3ec1a22729c8645de5442bc8e3c3c7781d68293d34ae667c247189089",
    "value": "0x959ef7",
    "accessList": [
      {
        "address": "0x820a408021ed575bd94e89af5672c9c4faaa93ad",
        "storageKeys": []
      }
    ],
    "chainId": "0xd35e4600"
  },
  "privateKey": "0x504264c14141b98fdad31cff441c443d69458e4033c11eeb0b4928ce9452c5a1",
  "unsignedLegacy": "0xf882820132857029692f4582fb3894b26832f9eebe1bb94cb67d5c6babf358d15f834e83959ef7b85bd43c5c6cbe06f0c46868590f0951afc1b55f38598f5caf4d2f811ed3bbb8a87de83f074bc2cf19ca7225a65533cbe03aed1f43fa7cd1ef178e1ec2de6076d3ec1a22729c8645de5442bc8e3c3c7781d68293d34ae667c247189089",
  "unsignedEip155": "0xf889820132857029692f4582fb3894b26832f9eebe1bb94cb67d5c6babf358d15f834e83959ef7b85bd43c5c6cbe06f0c46868590f0951afc1b55f38598f5caf4d2f811ed3bbb8a87de83f074bc2cf19ca7225a65533cbe03aed1f43fa7cd1ef178e1ec2de6076d3ec1a22729c8645de5442bc8e3c3c7781d68293d34ae667c24718908984d35e46008080",
  "unsignedBerlin": "0x01f89f84d35e4600820132857029692f4582fb3894b26832f9eebe1bb94cb67d5c6babf358d15f834e83959ef7b85bd43c5c6cbe06f0c46868590f0951afc1b55f38598f5caf4d2f811ed3bbb8a87de83f074bc2cf19ca7225a65533cbe03aed1f43fa7cd1ef178e1ec2de6076d3ec1a22729c8645de5442bc8e3c3c7781d68293d34ae667c247189089d7d694820a408021ed575bd94e89af5672c9c4faaa93adc0",
  "unsignedLondon": "0x02f8a184d35e46008201328086f631d7b0a81f82fb3894b26832f9eebe1bb94cb67d5c6babf358d15f834e83959ef7b85bd43c5c6cbe06f0c46868590f0951afc1b55f38598f5caf4d2f811ed3bbb8a87de83f074bc2cf19ca7225a65533cbe03aed1f43fa7cd1ef178e1ec2de6076d3ec1a22729c8645de5442bc8e3c3c7781d68293d34ae667c247189089d7d694820a408021ed575bd94e89af5672c9c4faaa93adc0",
  "signedLegacy": "0xf8c5820132857029692f4582fb3894b26832f9eebe1bb94cb67d5c6babf358d15f834e83959ef7b85bd43c5c6cbe06f0c46868590f0951afc1b55f38598f5caf4d2f811ed3bbb8a87de83f074bc2cf19ca7225a65533cbe03aed1f43fa7cd1ef178e1ec2de6076d3ec1a22729c8645de5442bc8e3c3c7781d68293d34ae667c2471890891ba0c2ed8abfcbdab7da28753c418f5c13abc4a9ececf343b2a798a5140d0d19fccea04d29f6aa392629af6460371b10194074f2b086708cde023d104f596067adf064",
  "signedEip155": "0xf8ca820132857029692f4582fb3894b26832f9eebe1bb94cb67d5c6babf358d15f834e83959ef7b85bd43c5c6cbe06f0c46868590f0951afc1b55f38598f5caf4d2f811ed3bbb8a87de83f074bc2cf19ca7225a65533cbe03aed1f43fa7cd1ef178e1ec2de6076d3ec1a22729c8645de5442bc8e3c3c7781d68293d34ae667c2471890898501a6bc8c23a07cd3ed3998f45d3f32fe6b43ed82d924f9386db234d17517ec32396dfed62beda02b568e9a0a730d545ed42c3ba2f0555a8c3721d42c9966b1b299e9ea584e403d",
  "signedBerlin": "0x01f8e284d35e4600820132857029692f4582fb3894b26832f9eebe1bb94cb67d5c6babf358d15f834e83959ef7b85bd43c5c6cbe06f0c46868590f0951afc1b55f38598f5caf4d2f811ed3bbb8a87de83f074bc2cf19ca7225a65533cbe03aed1f43fa7cd1ef178e1ec2de6076d3ec1a22729c8645de5442bc8e3c3c7781d68293d34ae667c247189089d7d694820a408021ed575bd94e89af5672c9c4faaa93adc001a0bb6dfaaa257109a691496a1b5356ca86a628c9199ab25b48ac950e4c8dfe4725a01bf22100e5420cb7af88cb600bbe82842058d44ad6a1ef998f5abcbdca9cc47e",
  "signedLondon": "0x02f8e484d35e46008201328086f631d7b0a81f82fb3894b26832f9eebe1bb94cb67d5c6babf358d15f834e83959ef7b85bd43c5c6cbe06f0c46868590f0951afc1b55f38598f5caf4d2f811ed3bbb8a87de83f074bc2cf19ca7225a65533cbe03aed1f43fa7cd1ef178e1ec2de6076d3ec1a22729c8645de5442bc8e3c3c7781d68293d34ae667c247189089d7d694820a408021ed575bd94e89af5672c9c4faaa93adc001a08b382dcb084b59f88bcaddc3c2d1ddc55263849ba968885de3af289e630e51f1a0062f7368a9c25bdd3611705b5aa2767b9ad06cafd364e333f794f10f57c4168f"
}
