{
  "name": "random-2",
  "transaction": {
    "to": "0xD0F118AFa9C2c9cc50F10d94cCC1cbDda2758b36",
    "nonce": 15,
    "gasLimit": "0x331bce0f90",
    "gasPrice": "0xe15a1b",
    "maxFeePerGas": "0x58e8d1dda1",
    "maxPriorityFeePerGas": "0x91bcff",
    "data": "0xe0d1a7227d34c2ca72e3c0",
    "value": "0x91e32e2f5a",
    "accessList": [
      {
        "address": "0x032f5546f1B932555cB43e2b16C844d118078430",
        "storageKeys": []
      }
    ],
    "chainId": "0xac9f74e3",
    "maxFeePerBlobGas": "0xb301566e1b",
    "blobVersionedHashes": [
      "0x01ffa0354a85a918e71cda7e37145c0a2f7c6fb1f10ff992ef1de8ebe3c40fd5",
      "0x01cf50b584016c19732d845cc9c8d3a43ce413626a4f67acb98ccb3b2f1843cd",
      "0x01d391295779890c162f2833ea186b025e6808b615b03854e2ec2664686711bc",
      "0x01eac2c29509cb2843deba916c97d9607d460eb0cd6e58744d823f568ab4e89e",
      "0x01873bc19156620621a96fe8bc4a0038cbac0737aa0453777816cc6ba916e9c2"
    ]
  },
  "privateKey": "0xa248ca1e9bd9c10fb163baefd567da6658f7419f3b7ec8bb13800ef2c546cdc9",
  "unsignedLegacy": "0xf20f83e15a1b85331bce0f9094d0f118afa9c2c9cc50f10d94ccc1cbdda2758b368591e32e2f5a8be0d1a7227d34c2ca72e3c0",
  "unsignedEip155": "0xf8390f83e15a1b85331bce0f9094d0f118afa9c2c9cc50f10d94ccc1cbdda2758b368591e32e2f5a8be0d1a7227d34c2ca72e3c084ac9f74e38080",
  "unsignedBerlin": "0x01f84f84ac9f74e30f83e15a1b85331bce0f9094d0f118afa9c2c9cc50f10d94ccc1cbdda2758b368591e32e2f5a8be0d1a7227d34c2ca72e3c0d7d694032f5546f1b932555cb43e2b16c844d118078430c0",
  "unsignedLondon": "0x02f85584ac9f74e30f8391bcff8558e8d1dda185331bce0f9094d0f118afa9c2c9cc50f10d94ccc1cbdda2758b368591e32e2f5a8be0d1a7227d34c2ca72e3c0d7d694032f5546f1b932555cb43e2b16c844d118078430c0",
  "unsignedCancun": "0x03f9010284ac9f74e30f8391bcff8558e8d1dda185331bce0f9094d0f118afa9c2c9cc50f10d94ccc1cbdda2758b368591e32e2f5a8be0d1a7227d34c2ca72e3c0d7d694032f5546f1b932555cb43e2b16c844d118078430c085b301566e1bf8a5a001ffa0354a85a918e71cda7e37145c0a2f7c6fb1f10ff992ef1de8ebe3c40fd5a001cf50b584016c19732d845cc9c8d3a43ce413626a4f67acb98ccb3b2f1843cda001d391295779890c162f2833ea186b025e6808b615b03854e2ec2664686711bca001eac2c29509cb2843deba916c97d9607d460eb0cd6e58744d823f568ab4e89ea001873bc19156620621a96fe8bc4a0038cbac0737aa0453777816cc6ba916e9c2",
  "signedLegacy": "0xf8750f83e15a1b85331bce0f9094d0f118afa9c2c9cc50f10d94ccc1cbdda2758b368591e32e2f5a8be0d1a7227d34c2ca72e3c01ba0bde01f2c9907b076015708bff05e24058fd153bfc2f551a0adafcd7d61a088a0a01035bfd65df2799749536217c832d8d81b915448ac0ab31935d50917136e4c18",
  "signedEip155": "0xf87a0f83e15a1b85331bce0f9094d0f118afa9c2c9cc50f10d94ccc1cbdda2758b368591e32e2f5a8be0d1a7227d34c2ca72e3c08501593ee9e9a0f42dbeea4337d8b48ed8f2bc257c83eb16725af6f3077e99fba6bac48c5e65f8a01869eaf77bc621843ba6c8b23919f7c9ebf0ac0001a840045609e1e96f14ab5a",
  "signedBerlin": "0x01f89284ac9f74e30f83e15a1b85331bce0f9094d0f118afa9c2c9cc50f10d94ccc1cbdda2758b368591e32e2f5a8be0d1a7227d34c2ca72e3c0d7d694032f5546f1b932555cb43e2b16c844d118078430c080a05cc5457e6561e9831b8e52fb09765dc00eaa07ba68f05dc7558ad0dab2d2b8c3a020c19425fafafdc458dd119f6a59780fc4dd3bbd7ae65f351d3adf5b217d2f4e",
  "signedLondon": "0x02f89884ac9f74e30f8391bcff8558e8d1dda185331bce0f9094d0f118afa9c2c9cc50f10d94ccc1cbdda2758b368591e32e2f5a8be0d1a7227d34c2ca72e3c0d7d694032f5546f1b932555cb43e2b16c844d118078430c001a0e97853a3f394ebb19b1a152324c7f3f7ffde2e2a0dfa295dc61f8788dcfebe00a02f0c9626e967c4494ccd02f4e60c840ecce64216438f051efa95f0b8f196f7c9",
  "signedCancun": "0x03f9014584ac9f74e30f8391bcff8558e8d1dda185331bce0f9094d0f118afa9c2c9cc50f10d94ccc1cbdda2758b368591e32e2f5a8be0d1a7227d34c2ca72e3c0d7d694032f5546f1b932555cb43e2b16c844d118078430c085b301566e1bf8a5a001ffa0354a85a918e71cda7e37145c0a2f7c6fb1f10ff992ef1de8ebe3c40fd5a001cf50b584016c19732d845cc9c8d3a43ce413626a4f67acb98ccb3b2f1843cda001d391295779890c162f2833ea186b025e6808b615b03854e2ec2664686711bca001eac2c29509cb2843deba916c97d9607d460eb0cd6e58744d823f568ab4e89ea001873bc19156620621a96fe8bc4a0038cbac0737aa0453777816cc6ba916e9c201a0840ee8400c949196bddbf386e82d5479a7607e5356f03a03360af4c466b309eaa026456727b69c25a095f29fed6375752693270a9989bfa3bb45fa01df37faf4dd",
  "signatureLegacy": {
    "r": "0xbde01f2c9907b076015708bff05e24058fd153bfc2f551a0adafcd7d61a088a0",
    "s": "0x1035bfd65df2799749536217c832d8d81b915448ac0ab31935d50917136e4c18",
    "v": "0x1b"
  },
  "signatureEip155": {
    "r": "0xf42dbeea4337d8b48ed8f2bc257c83eb16725af6f3077e99fba6bac48c5e65f8",
    "s": "0x1869eaf77bc621843ba6c8b23919f7c9ebf0ac0001a840045609e1e96f14ab5a",
    "v": "0x1593ee9e9"
  },
  "signatureBerlin": {
    "r": "0x5cc5457e6561e9831b8e52fb09765dc00eaa07ba68f05dc7558ad0dab2d2b8c3",
    "s": "0x20c19425fafafdc458dd119f6a59780fc4dd3bbd7ae65f351d3adf5b217d2f4e",
    "v": "0x0"
  },
  "signatureLondon": {
    "r": "0xe97853a3f394ebb19b1a152324c7f3f7ffde2e2a0dfa295dc61f8788dcfebe00",
    "s": "0x2f0c9626e967c4494ccd02f4e60c840ecce64216438f051efa95f0b8f196f7c9",
    "v": "0x1"
  },
  "signatureCancun": {
    "r": "0x840ee8400c949196bddbf386e82d5479a7607e5356f03a03360af4c466b309ea",
    "s": "0x26456727b69c25a095f29fed6375752693270a9989bfa3bb45fa01df37faf4dd",
    "v": "0x1"
  }
}
