{
  "name": "random-5",
  "transaction": {
    "to": "0x4d1060d970674619005137921969b4bfe3eea6b8",
    "nonce": 577,
    "gasLimit": "0xbe431918",
    "gasPrice": "0xb3b1aaeb58",
    "maxFeePerGas": "0x6bb02a65c7",
    "maxPriorityFeePerGas": "0x",
    "data": "0xe07f2239c398167e747939f64b2ed9458db8aa10eb367bfab1976a0bc6693cf152dd8d13aa16e4d655a38d6ac64eae0932e13d649f9516fca834cd5a49c7b6e5ba1286a30eea1ac2e89c78441c5418250f8e30",
    "value": "0xc72c",
    "accessList": [
      {
        "address": "0x8a632c23bf807681570c3fb6632ce99fd98bdb23",
        "storageKeys": [
          "0x1c3124f271ea52d9e881bdd52c63020fb7c08a1b96263030415e4bc8146db25c",
          "0x2b6d4aa754fa44f0e86e6fa0a936048674ffc4fef24c5a2b317c740630901919",
          "0xc266c51508b93a8f933e2e64505e458ac26cdb93e8e0bc7bd1609552b6210aa5",
          "0xf49934500a155bedea4f0bf25bfc62161fcb74fbf17ca480333f4747d5ad824e"
        ]
      },
      {
        "address": "0x2d78b31ba09e8a2888d655e3d000fe95c63789c4",
        "storageKeys": [
          "0x1c3124f271ea52d9e881bdd52c63020fb7c08a1b96263030415e4bc8146db25c",
          "0x2b6d4aa754fa44f0e86e6fa0a936048674ffc4fef24c5a2b317c740630901919",
          "0xc266c51508b93a8f933e2e64505e458ac26cdb93e8e0bc7bd1609552b6210aa5",
          "0xf49934500a155bedea4f0bf25bfc62161fcb74fbf17ca480333f4747d5ad824e"
        ]
      },
      {
        "address": "0x3199b3433ee7f3edcae901cbce64c4e81125f7da",
        "storageKeys": [
          "0x1c3124f271ea52d9e881bdd52c63020fb7c08a1b96263030415e4bc8146db25c",
          "0x2b6d4aa754fa44f0e86e6fa0a936048674ffc4fef24c5a2b317c740630901919",
          "0xc266c51508b93a8f933e2e64505e458ac26cdb93e8e0bc7bd1609552b6210aa5",
          "0xf49934500a155bedea4f0bf25bfc62161fcb74fbf17ca480333f4747d5ad824e"
        ]
      },
      {
        "address": "0xb8d669949683a728f76919fe2cc9896216e00a81",
        "storageKeys": [
          "0x1c3124f271ea52d9e881bdd52c63020fb7c08a1b96263030415e4bc8146db25c",
          "0x2b6d4aa754fa44f0e86e6fa0a936048674ffc4fef24c5a2b317c740630901919",
          "0xc266c51508b93a8f933e2e64505e458ac26cdb93e8e0bc7bd1609552b6210aa5",
          "0xf49934500a155bedea4f0bf25bfc62161fcb74fbf17ca480333f4747d5ad824e"
        ]
      }
    ],
    "chainId": "0xef36a8"
  },
  "privateKey": "0x77065b8ddb2f89d3d2d83f46d0147efc081e3a3f1012406c698a9ce364b324e9",
  "unsignedLegacy": "0xf87b82024185b3b1aaeb5884be431918944d1060d970674619005137921969b4bfe3eea6b882c72cb853e07f2239c398167e747939f64b2ed9458db8aa10eb367bfab1976a0bc6693cf152dd8d13aa16e4d655a38d6ac64eae0932e13d649f9516fca834cd5a49c7b6e5ba1286a30eea1ac2e89c78441c5418250f8e30",
  "unsignedEip155": "0xf88182024185b3b1aaeb5884be431918944d1060d970674619005137921969b4bfe3eea6b882c72cb853e07f2239c398167e747939f64b2ed9458db8aa10eb367bfab1976a0bc6693cf152dd8d13aa16e4d655a38d6ac64eae0932e13d649f9516fca834cd5a49c7b6e5ba1286a30eea1ac2e89c78441c5418250f8e3083ef36a88080",
  "unsignedBerlin": "0x01f902f683ef36a882024185b3b1aaeb5884be431918944d1060d970674619005137921969b4bfe3eea6b882c72cb853e07f2239c398167e747939f64b2ed9458db8aa10eb367bfab1976a0bc6693cf152dd8d13aa16e4d655a38d6ac64eae0932e13d649f9516fca834cd5a49c7b6e5ba1286a30eea1ac2e89c78441c5418250f8e30f90274f89b948a632c23bf807681570c3fb6632ce99fd98bdb23f884a01c3124f271ea52d9e881bdd52c63020fb7c08a1b96263030415e4bc8146db25ca02b6d4aa754fa44f0e86e6fa0a936048674ffc4fef24c5a2b317c740630901919a0c266c51508b93a8f933e2e64505e458ac26cdb93e8e0bc7bd1609552b6210aa5a0f49934500a155bedea4f0bf25bfc62161fcb74fbf17ca480333f4747d5ad824ef89b942d78b31ba09e8a2888d655e3d000fe95c63789c4f884a01c3124f271ea52d9e881bdd52c63020fb7c08a1b96263030415e4bc8146db25ca02b6d4aa754fa44f0e86e6fa0a936048674ffc4fef24c5a2b317c740630901919a0c266c51508b93a8f933e2e64505e458ac26cdb93e8e0bc7bd1609552b6210aa5a0f49934500a155bedea4f0bf25bfc62161fcb74fbf17ca480333f4747d5ad824ef89b943199b3433ee7f3edcae901cbce64c4e81125f7daf884a01c3124f271ea52d9e881bdd52c63020fb7c08a1b96263030415e4bc8146db25ca02b6d4aa754fa44f0e86e6fa0a936048674ffc4fef24c5a2b317c740630901919a0c266c51508b93a8f933e2e64505e458ac26cdb93e8e0bc7bd1609552b6210aa5a0f49934500a155bedea4f0bf25bfc62161fcb74fbf17ca480333f4747d5ad824ef89b94b8d669949683a728f76919fe2cc9896216e00a81f884a01c3124f271ea52d9e881bdd52c63020fb7c08a1b96263030415e4bc8146db25ca02b6d4aa754fa44f0e86e6fa0a936048674ffc4fef24c5a2b317c740630901919a0c266c51508b93a8f933e2e64505e458ac26cdb93e8e0bc7bd1609552b6210aa5a0f49934500a155bedea4f0bf25bfc62161fcb74fbf17ca480333f4747d5ad824e",
  "unsignedLondon": "0x02f902f783ef36a882024180856bb02a65c784be431918944d1060d970674619005137921969b4bfe3eea6b882c72cb853e07f2239c398167e747939f64b2ed9458db8aa10eb367bfab1976a0bc6693cf152dd8d13aa16e4d655a38d6ac64eae0932e13d649f9516fca834cd5a49c7b6e5ba1286a30eea1ac2e89c78441c5418250f8e30f90274f89b948a632c23bf807681570c3fb6632ce99fd98bdb23f884a01c3124f271ea52d9e881bdd52c63020fb7c08a1b96263030415e4bc8146db25ca02b6d4aa754fa44f0e86e6fa0a936048674ffc4fef24c5a2b317c740630901919a0c266c51508b93a8f933e2e64505e458ac26cdb93e8e0bc7bd1609552b6210aa5a0f49934500a155bedea4f0bf25bfc62161fcb74fbf17ca480333f4747d5ad824ef89b942d78b31ba09e8a2888d655e3d000fe95c63789c4f884a01c3124f271ea52d9e881bdd52c63020fb7c08a1b96263030415e4bc8146db25ca02b6d4aa754fa44f0e86e6fa0a936048674ffc4fef24c5a2b317c740630901919a0c266c51508b93a8f933e2e64505e458ac26cdb93e8e0bc7bd1609552b6210aa5a0f49934500a155bedea4f0bf25bfc62161fcb74fbf17ca480333f4747d5ad824ef89b943199b3433ee7f3edcae901cbce64c4e81125f7daf884a01c3124f271ea52d9e881bdd52c63020fb7c08a1b96263030415e4bc8146db25ca02b6d4aa754fa44f0e86e6fa0a936048674ffc4fef24c5a2b317c740630901919a0c266c51508b93a8f933e2e64505e458ac26cdb93e8e0bc7bd1609552b6210aa5a0f49934500a155bedea4f0bf25bfc62161fcb74fbf17ca480333f4747d5ad824ef89b94b8d669949683a728f76919fe2cc9896216e00a81f884a01c3124f271ea52d9e881bdd52c63020fb7c08a1b96263030415e4bc8146db25ca02b6d4aa754fa44f0e86e6fa0a936048674ffc4fef24c5a2b317c740630901919a0c266c51508b93a8f933e2e64505e458ac26cdb93e8e0bc7bd1609552b6210aa5a0f49934500a155bedea4f0bf25bfc62161fcb74fbf17ca480333f4747d5ad824e",
  "signedLegacy": "0xf8be82024185b3b1aaeb5884be431918944d1060d970674619005137921969b4bfe3eea6b882c72cb853e07f2239c398167e747939f64b2ed9458db8aa10eb367bfab1976a0bc6693cf152dd8d13aa16e4d655a38d6ac64eae0932e13d649f9516fca834cd5a49c7b6e5ba1286a30eea1ac2e89c78441c5418250f8e301ca080a562a9b8f81f1dd3bf0f017926809fcc37e8fd9899400b7d4595bc8f0fdeeaa06e5ba501a10fd9817a37d467a0c212552c90d0b9ee840dae9bea5647110e6d7c",
  "signedEip155": "0xf8c282024185b3b1aaeb5884be431918944d1060d970674619005137921969b4bfe3eea6b882c72cb853e07f2239c398167e747939f64b2ed9458db8aa10eb367bfab1976a0bc6693cf152dd8d13aa16e4d655a38d6ac64eae0932e13d649f9516fca834cd5a49c7b6e5ba1286a30eea1ac2e89c78441c5418250f8e308401de6d73a0378501b89c2a7f3b8df7cf5e6d74b649fd30c1b4a2c05ff576335d051ba00fa8a0162e2ed47606338964844b28ec86ef295f382ded73068e8ff1561aca68d2e086",
  "signedBerlin": "0x01f9033983ef36a882024185b3b1aaeb5884be431918944d1060d970674619005137921969b4bfe3eea6b882c72cb853e07f2239c398167e747939f64b2ed9458db8aa10eb367bfab1976a0bc6693cf152dd8d13aa16e4d655a38d6ac64eae0932e13d649f9516fca834cd5a49c7b6e5ba1286a30eea1ac2e89c78441c5418250f8e30f90274f89b948a632c23bf807681570c3fb6632ce99fd98bdb23f884a01c3124f271ea52d9e881bdd52c63020fb7c08a1b96263030415e4bc8146db25ca02b6d4aa754fa44f0e86e6fa0a936048674ffc4fef24c5a2b317c740630901919a0c266c51508b93a8f933e2e64505e458ac26cdb93e8e0bc7bd1609552b6210aa5a0f49934500a155bedea4f0bf25bfc62161fcb74fbf17ca480333f4747d5ad824ef89b942d78b31ba09e8a2888d655e3d000fe95c63789c4f884a01c3124f271ea52d9e881bdd52c63020fb7c08a1b96263030415e4bc8146db25ca02b6d4aa754fa44f0e86e6fa0a936048674ffc4fef24c5a2b317c740630901919a0c266c51508b93a8f933e2e64505e458ac26cdb93e8e0bc7bd1609552b6210aa5a0f49934500a155bedea4f0bf25bfc62161fcb74fbf17ca480333f4747d5ad824ef89b943199b3433ee7f3edcae901cbce64c4e81125f7daf884a01c3124f271ea52d9e881bdd52c63020fb7c08a1b96263030415e4bc8146db25ca02b6d4aa754fa44f0e86e6fa0a936048674ffc4fef24c5a2b317c740630901919a0c266c51508b93a8f933e2e64505e458ac26cdb93e8e0bc7bd1609552b6210aa5a0f49934500a155bedea4f0bf25bfc62161fcb74fbf17ca480333f4747d5ad824ef89b94b8d669949683a728f76919fe2cc9896216e00a81f884a01c3124f271ea52d9e881bdd52c63020fb7c08a1b96263030415e4bc8146db25ca02b6d4aa754fa44f0e86e6fa0a936048674ffc4fef24c5a2b317c740630901919a0c266c51508b93a8f933e2e64505e458ac26cdb93e8e0bc7bd1609552b6210aa5a0f49934500a155bedea4f0bf25bfc62161fcb74fbf17ca480333f4747d5ad824e80a0512308d1c72f697a25785a9c2ce00a55ba530c49a024f46f0cc26dd0e8358576a0574f05518fc3f6ba63cfb917242f2220fb470c8166135079c7bb7fc36054d5d7",
  "signedLondon": "0x02f9033a83ef36a882024180856bb02a65c784be431918944d1060d970674619005137921969b4bfe3eea6b882c72cb853e07f2239c398167e747939f64b2ed9458db8aa10eb367bfab1976a0bc6693cf152dd8d13aa16e4d655a38d6ac64eae0932e13d649f9516fca834cd5a49c7b6e5ba1286a30eea1ac2e89c78441c5418250f8e30f90274f89b948a632c23bf807681570c3fb6632ce99fd98bdb23f884a01c3124f271ea52d9e881bdd52c63020fb7c08a1b96263030415e4bc8146db25ca02b6d4aa754fa44f0e86e6fa0a936048674ffc4fef24c5a2b317c740630901919a0c266c51508b93a8f933e2e64505e458ac26cdb93e8e0bc7bd1609552b6210aa5a0f49934500a155bedea4f0bf25bfc62161fcb74fbf17ca480333f4747d5ad824ef89b942d78b31ba09e8a2888d655e3d000fe95c63789c4f884a01c3124f271ea52d9e881bdd52c63020fb7c08a1b96263030415e4bc8146db25ca02b6d4aa754fa44f0e86e6fa0a936048674ffc4fef24c5a2b317c740630901919a0c266c51508b93a8f933e2e64505e458ac26cdb93e8e0bc7bd1609552b6210aa5a0f49934500a155bedea4f0bf25bfc62161fcb74fbf17ca480333f4747d5ad824ef89b943199b3433ee7f3edcae901cbce64c4e81125f7daf884a01c3124f271ea52d9e881bdd52c63020fb7c08a1b96263030415e4bc8146db25ca02b6d4aa754fa44f0e86e6fa0a936048674ffc4fef24c5a2b317c740630901919a0c266c51508b93a8f933e2e64505e458ac26cdb93e8e0bc7bd1609552b6210aa5a0f49934500a155bedea4f0bf25bfc62161fcb74fbf17ca480333f4747d5ad824ef89b94b8d669949683a728f76919fe2cc9896216e00a81f884a01c3124f271ea52d9e881bdd52c63020fb7c08a1b96263030415e4bc8146db25ca02b6d4aa754fa44f0e86e6fa0a936048674ffc4fef24c5a2b317c740630901919a0c266c51508b93a8f933e2e64505e458ac26cdb93e8e0bc7bd1609552b6210aa5a0f49934500a155bedea4f0bf25bfc62161fcb74fbf17ca480333f4747d5ad824e01a055e980ff0ede25944687a518e0dfa31ec548ea218d5865006da844601165a409a06528354d9306e118362d3552eda16161f9bacc53f006a5b2fba9c5501eaffe3e"
}
