{
  "name": "random-10",
  "transaction": {
    "to": "0xe80B2a2b7a84c886319faB83dF55E63C7539D2E7",
    "nonce": 11,
    "gasLimit": "0x66745b0460",
    "gasPrice": "0x19b27a8a",
    "maxFeePerGas": "0x9bc10525",
    "maxPriorityFeePerGas": "0xde6421",
    "data": "0xc67a6a742250a5b9144dbfac7342e66a31df07bc2de714d5700d4a328600e6c274a8713cd12df6c64ca6f8088e1a49108dc171457cfcc9a4daf0625786bdf689e568fd61a63a953184",
    "value": "0x452f964f",
    "accessList": [
      {
        "address": "0x9C1010eBD297f0af2110e4Be1356a99e088B70b0",
        "storageKeys": [
          "0x8f4489956d5c84285dd2337de059733fd7caff5e3bc562d2e19f4c8416f7adcd",
          "0xecacb47c7f3b429a188ae196d5f6905999bdd4909022d3d5b3566399ef44b513"
        ]
      }
    ],
    "chainId": "0x4e33268bd8",
    "maxFeePerBlobGas": "0x5b8180c72d",
    "blobVersionedHashes": [
      "0x01fe39328d1867749d23972d03954f13d7025f6c7db432c678156c81b87ca044"
    ]
  },
  "privateKey": "0x937f09851dd891844eee05f469dc776fe07a398b47ee3d064460f74fb00b8454",
  "unsignedLegacy": "0xf8710b8419b27a8a8566745b046094e80b2a2b7a84c886319fab83df55e63c7539d2e784452f964fb849c67a6a742250a5b9144dbfac7342e66a31df07bc2de714d5700d4a328600e6c274a8713cd12df6c64ca6f8088e1a49108dc171457cfcc9a4daf0625786bdf689e568fd61a63a953184",
  "unsignedEip155": "0xf8790b8419b27a8a8566745b046094e80b2a2b7a84c886319fab83df55e63c7539d2e784452f964fb849c67a6a742250a5b9144dbfac7342e66a31df07bc2de714d5700d4a328600e6c274a8713cd12df6c64ca6f8088e1a49108dc171457cfcc9a4daf0625786bdf689e568fd61a63a953184854e33268bd88080",
  "unsignedBerlin": "0x01f8d4854e33268bd80b8419b27a8a8566745b046094e80b2a2b7a84c886319fab83df55e63c7539d2e784452f964fb849c67a6a742250a5b9144dbfac7342e66a31df07bc2de714d5700d4a328600e6c274a8713cd12df6c64ca6f8088e1a49108dc171457cfcc9a4daf0625786bdf689e568fd61a63a953184f85bf859949c1010ebd297f0af2110e4be1356a99e088b70b0f842a08f4489956d5c84285dd2337de059733fd7caff5e3bc562d2e19f4c8416f7adcda0ecacb47c7f3b429a188ae196d5f6905999bdd4909022d3d5b3566399ef44b513",
  "unsignedLondon": "0x02f8d8854e33268bd80b83de6421849bc105258566745b046094e80b2a2b7a84c886319fab83df55e63c7539d2e784452f964fb849c67a6a742250a5b9144dbfac7342e66a31df07bc2de714d5700d4a328600e6c274a8713cd12df6c64ca6f8088e1a49108dc171457cfcc9a4daf0625786bdf689e568fd61a63a953184f85bf859949c1010ebd297f0af2110e4be1356a99e088b70b0f842a08f4489956d5c84285dd2337de059733fd7caff5e3bc562d2e19f4c8416f7adcda0ecacb47c7f3b429a188ae196d5f6905999bdd4909022d3d5b3566399ef44b513",
  "unsignedCancun": "0x03f90100854e33268bd80b83de6421849bc105258566745b046094e80b2a2b7a84c886319fab83df55e63c7539d2e784452f964fb849c67a6a742250a5b9144dbfac7342e66a31df07bc2de714d5700d4a328600e6c274a8713cd12df6c64ca6f8088e1a49108dc171457cfcc9a4daf0625786bdf689e568fd61a63a953184f85bf859949c1010ebd297f0af2110e4be1356a99e088b70b0f842a08f4489956d5c84285dd2337de059733fd7caff5e3bc562d2e19f4c8416f7adcda0ecacb47c7f3b429a188ae196d5f6905999bdd4909022d3d5b3566399ef44b513855b8180c72de1a001fe39328d1867749d23972d03954f13d7025f6c7db432c678156c81b87ca044",
  "signedLegacy": "0xf8b40b8419b27a8a8566745b046094e80b2a2b7a84c886319fab83df55e63c7539d2e784452f964fb849c67a6a742250a5b9144dbfac7342e66a31df07bc2de714d5700d4a328600e6c274a8713cd12df6c64ca6f8088e1a49108dc171457cfcc9a4daf0625786bdf689e568fd61a63a9531841ba0f9c1a46fcbbeaa4915050ffc5e33043e372ab5b8e55e40c99bcea824b07ae62ba03a78b26033934d062ab52ac1b527df5b27bd08ced030d392832c89ca779dcc93",
  "signedEip155": "0xf8b90b8419b27a8a8566745b046094e80b2a2b7a84c886319fab83df55e63c7539d2e784452f964fb849c67a6a742250a5b9144dbfac7342e66a31df07bc2de714d5700d4a328600e6c274a8713cd12df6c64ca6f8088e1a49108dc171457cfcc9a4daf0625786bdf689e568fd61a63a953184859c664d17d4a008a210072105a1ad68dc2b2811abd43dcd1dabaa2c2d2a2f669fb0dea7903535a028817f47aa0014375ed11fde0b733a5b3b648e5ffb2f66e3b4a0fc8db3000bcf",
  "signedBerlin": "0x01f90117854e33268bd80b8419b27a8a8566745b046094e80b2a2b7a84c886319fab83df55e63c7539d2e784452f964fb849c67a6a742250a5b9144dbfac7342e66a31df07bc2de714d5700d4a328600e6c274a8713cd12df6c64ca6f8088e1a49108dc171457cfcc9a4daf0625786bdf689e568fd61a63a953184f85bf859949c1010ebd297f0af2110e4be1356a99e088b70b0f842a08f4489956d5c84285dd2337de059733fd7caff5e3bc562d2e19f4c8416f7adcda0ecacb47c7f3b429a188ae196d5f6905999bdd4909022d3d5b3566399ef44b51380a0a972d4365dac9b214ae1c1cdbdb70d5c10877eac1edaee2398012e6f084b99fca0184054b4a0b98483664b9469564eb21a28439982883f61bb1e538e968f74ce9d",
  "signedLondon": "0x02f9011b854e33268bd80b83de6421849bc105258566745b046094e80b2a2b7a84c886319fab83df55e63c7539d2e784452f964fb849c67a6a742250a5b9144dbfac7342e66a31df07bc2de714d5700d4a328600e6c274a8713cd12df6c64ca6f8088e1a49108dc171457cfcc9a4daf0625786bdf689e568fd61a63a953184f85bf859949c1010ebd297f0af2110e4be1356a99e088b70b0f842a08f4489956d5c84285dd2337de059733fd7caff5e3bc562d2e19f4c8416f7adcda0ecacb47c7f3b429a188ae196d5f6905999bdd4909022d3d5b3566399ef44b51301a0abb1f9fd744bd588e3cc73caf61ea9a023aa8b486356f5bc97910ca01fe6453ca062ae4642f50df606c7587957e497e3867510554f88ba57a2bb93a4f8883329e5",
  "signedCancun": "0x03f90143854e33268bd80b83de6421849bc105258566745b046094e80b2a2b7a84c886319fab83df55e63c7539d2e784452f964fb849c67a6a742250a5b9144dbfac7342e66a31df07bc2de714d5700d4a328600e6c274a8713cd12df6c64ca6f8088e1a49108dc171457cfcc9a4daf0625786bdf689e568fd61a63a953184f85bf859949c1010ebd297f0af2110e4be1356a99e088b70b0f842a08f4489956d5c84285dd2337de059733fd7caff5e3bc562d2e19f4c8416f7adcda0ecacb47c7f3b429a188ae196d5f6905999bdd4909022d3d5b3566399ef44b513855b8180c72de1a001fe39328d1867749d23972d03954f13d7025f6c7db432c678156c81b87ca04480a042db40cd1ebb1117bc52c8a9d2d467b008203571b1be9ad32db67ba24758cd27a024ac6a399e3a135a5986333a933bd431df1969ca12fdc5217aa7cc778110898b",
  "signatureLegacy": {
    "r": "0xf9c1a46fcbbeaa4915050ffc5e33043e372ab5b8e55e40c99bcea824b07ae62b",
    "s": "0x3a78b26033934d062ab52ac1b527df5b27bd08ced030d392832c89ca779dcc93",
    "v": "0x1b"
  },
  "signatureEip155": {
    "r": "0x08a210072105a1ad68dc2b2811abd43dcd1dabaa2c2d2a2f669fb0dea7903535",
    "s": "0x28817f47aa0014375ed11fde0b733a5b3b648e5ffb2f66e3b4a0fc8db3000bcf",
    "v": "0x9c664d17d4"
  },
  "signatureBerlin": {
    "r": "0xa972d4365dac9b214ae1c1cdbdb70d5c10877eac1edaee2398012e6f084b99fc",
    "s": "0x184054b4a0b98483664b9469564eb21a28439982883f61bb1e538e968f74ce9d",
    "v": "0x0"
  },
  "signatureLondon": {
    "r": "0xabb1f9fd744bd588e3cc73caf61ea9a023aa8b486356f5bc97910ca01fe6453c",
    "s": "0x62ae4642f50df606c7587957e497e3867510554f88ba57a2bb93a4f8883329e5",
    "v": "0x1"
  },
  "signatureCancun": {
    "r": "0x42db40cd1ebb1117bc52c8a9d2d467b008203571b1be9ad32db67ba24758cd27",
    "s": "0x24ac6a399e3a135a5986333a933bd431df1969ca12fdc5217aa7cc778110898b",
    "v": "0x0"
  }
}
