{
  "name": "random-13",
  "transaction": {
    "to": "0x02ca24bf68010e087c89fbbbba726265f75f453f",
    "nonce": 230,
    "gasLimit": "0x",
    "gasPrice": "0xbfee0c",
    "maxFeePerGas": "0xda446911bd",
    "maxPriorityFeePerGas": "0x11",
    "data": "0x8dc99057177cbea0fcc2e52f03fd99ae750c",
    "value": "0xe1df00a8",
    "accessList": [
      {
        "address": "0x9a39070f38d75e2c56dbb0f5992f87d4b8c4516f",
        "storageKeys": [
          "0x5a2edcbe00c7f2a4054eb642539fc70f3b18e636eee4a800a307d1b38bf2cf6f",
          "0xbb923a5c3ae3b14becbfc2ce1f9bcac3ac7f9e529bf121ebe45589f97ea7a5d6",
          "0x573a0bef0d2674001e858247d3fe613ca0c17a6b733979e6516af7fa8ef3ab63"
        ]
      },
      {
        "address": "0x727e5f27d18f70fda8f234082421872b68c3dda0",
        "storageKeys": [
          "0x5a2edcbe00c7f2a4054eb642539fc70f3b18e636eee4a800a307d1b38bf2cf6f",
          "0xbb923a5c3ae3b14becbfc2ce1f9bcac3ac7f9e529bf121ebe45589f97ea7a5d6",
          "0x573a0bef0d2674001e858247d3fe613ca0c17a6b733979e6516af7fa8ef3ab63"
        ]
      },
      {
        "address": "0x81df03f5cd0f415eab92e0593998dd288b02d583",
        "storageKeys": [
          "0x5a2edcbe00c7f2a4054eb642539fc70f3b18e636eee4a800a307d1b38bf2cf6f",
          "0xbb923a5c3ae3b14becbfc2ce1f9bcac3ac7f9e529bf121ebe45589f97ea7a5d6",
          "0x573a0bef0d2674001e858247d3fe613ca0c17a6b733979e6516af7fa8ef3ab63"
        ]
      },
      {
        "address": "0x3c465948c080239deecabc2b8a7fccbe4130b3e6",
        "storageKeys": [
          "0x5a2edcbe00c7f2a4054eb642539fc70f3b18e636eee4a800a307d1b38bf2cf6f",
          "0xbb923a5c3ae3b14becbfc2ce1f9bcac3ac7f9e529bf121ebe45589f97ea7a5d6",
          "0x573a0bef0d2674001e858247d3fe613ca0c17a6b733979e6516af7fa8ef3ab63"
        ]
      }
    ],
    "chainId": "0xae7cc0"
  },
  "privateKey": "0x70dae63ff96bc4831355131fc24468c3e57dbac4c0a82334953baa752df10cff",
  "unsignedLegacy": "0xf481e683bfee0c809402ca24bf68010e087c89fbbbba726265f75f453f84e1df00a8928dc99057177cbea0fcc2e52f03fd99ae750c",
  "unsignedEip155": "0xf83a81e683bfee0c809402ca24bf68010e087c89fbbbba726265f75f453f84e1df00a8928dc99057177cbea0fcc2e52f03fd99ae750c83ae7cc08080",
  "unsignedBerlin": "0x01f9022b83ae7cc081e683bfee0c809402ca24bf68010e087c89fbbbba726265f75f453f84e1df00a8928dc99057177cbea0fcc2e52f03fd99ae750cf901f0f87a949a39070f38d75e2c56dbb0f5992f87d4b8c4516ff863a05a2edcbe00c7f2a4054eb642539fc70f3b18e636eee4a800a307d1b38bf2cf6fa0bb923a5c3ae3b14becbfc2ce1f9bcac3ac7f9e529bf121ebe45589f97ea7a5d6a0573a0bef0d2674001e858247d3fe613ca0c17a6b733979e6516af7fa8ef3ab63f87a94727e5f27d18f70fda8f234082421872b68c3dda0f863a05a2edcbe00c7f2a4054eb642539fc70f3b18e636eee4a800a307d1b38bf2cf6fa0bb923a5c3ae3b14becbfc2ce1f9bcac3ac7f9e529bf121ebe45589f97ea7a5d6a0573a0bef0d2674001e858247d3fe613ca0c17a6b733979e6516af7fa8ef3ab63f87a9481df03f5cd0f415eab92e0593998dd288b02d583f863a05a2edcbe00c7f2a4054eb642539fc70f3b18e636eee4a800a307d1b38bf2cf6fa0bb923a5c3ae3b14becbfc2ce1f9bcac3ac7f9e529bf121ebe45589f97ea7a5d6a0573a0bef0d2674001e858247d3fe613ca0c17a6b733979e6516af7fa8ef3ab63f87a943c465948c080239deecabc2b8a7fccbe4130b3e6f863a05a2edcbe00c7f2a4054eb642539fc70f3b18e636eee4a800a307d1b38bf2cf6fa0bb923a5c3ae3b14becbfc2ce1f9bcac3ac7f9e529bf121ebe45589f97ea7a5d6a0573a0bef0d2674001e858247d3fe613ca0c17a6b733979e6516af7fa8ef3ab63",
  "unsignedLondon": "0x02f9022e83ae7cc081e61185da446911bd809402ca24bf68010e087c89fbbbba726265f75f453f84e1df00a8928dc99057177cbea0fcc2e52f03fd99ae750cf901f0f87a949a39070f38d75e2c56dbb0f5992f87d4b8c4516ff863a05a2edcbe00c7f2a4054eb642539fc70f3b18e636eee4a800a307d1b38bf2cf6fa0bb923a5c3ae3b14becbfc2ce1f9bcac3ac7f9e529bf121ebe45589f97ea7a5d6a0573a0bef0d2674001e858247d3fe613ca0c17a6b733979e6516af7fa8ef3ab63f87a94727e5f27d18f70fda8f234082421872b68c3dda0f863a05a2edcbe00c7f2a4054eb642539fc70f3b18e636eee4a800a307d1b38bf2cf6fa0bb923a5c3ae3b14becbfc2ce1f9bcac3ac7f9e529bf121ebe45589f97ea7a5d6a0573a0bef0d2674001e858247d3fe613ca0c17a6b733979e6516af7fa8ef3ab63f87a9481df03f5cd0f415eab92e0593998dd288b02d583f863a05a2edcbe00c7f2a4054eb642539fc70f3b18e636eee4a800a307d1b38bf2cf6fa0bb923a5c3ae3b14becbfc2ce1f9bcac3ac7f9e529bf121ebe45589f97ea7a5d6a0573a0bef0d2674001e858247d3fe613ca0c17a6b733979e6516af7fa8ef3ab63f87a943c465948c080239deecabc2b8a7fccbe4130b3e6f863a05a2edcbe00c7f2a4054eb642539fc70f3b18e636eee4a800a307d1b38bf2cf6fa0bb923a5c3ae3b14becbfc2ce1f9bcac3ac7f9e529bf121ebe45589f97ea7a5d6a0573a0bef0d2674001e858247d3fe613ca0c17a6b733979e6516af7fa8ef3ab63",
  "signedLegacy": "0xf87781e683bfee0c809402ca24bf68010e087c89fbbbba726265f75f453f84e1df00a8928dc99057177cbea0fcc2e52f03fd99ae750c1ba0f0b748dc27847f12a844001945a8cf34c1404462440f203b1e7534d05a8c4466a00ddc1d8f11ef62a45d2c10a025e60f992cd5b43ac5186a9ce5892fb5dd3e6c73",
  "signedEip155": "0xf87b81e683bfee0c809402ca24bf68010e087c89fbbbba726265f75f453f84e1df00a8928dc99057177cbea0fcc2e52f03fd99ae750c84015cf9a4a0c6fb08481e35237059a08ce63ae7bcd2fc04bb5a192cb3199a1b1dc3ada4dad7a02c1349b7525869ca8d4c196c275b25cb1deb85c562d027643da2754f182c2295",
  "signedBerlin": "0x01f9026e83ae7cc081e683bfee0c809402ca24bf68010e087c89fbbbba726265f75f453f84e1df00a8928dc99057177cbea0fcc2e52f03fd99ae750cf901f0f87a949a39070f38d75e2c56dbb0f5992f87d4b8c4516ff863a05a2edcbe00c7f2a4054eb642539fc70f3b18e636eee4a800a307d1b38bf2cf6fa0bb923a5c3ae3b14becbfc2ce1f9bcac3ac7f9e529bf121ebe45589f97ea7a5d6a0573a0bef0d2674001e858247d3fe613ca0c17a6b733979e6516af7fa8ef3ab63f87a94727e5f27d18f70fda8f234082421872b68c3dda0f863a05a2edcbe00c7f2a4054eb642539fc70f3b18e636eee4a800a307d1b38bf2cf6fa0bb923a5c3ae3b14becbfc2ce1f9bcac3ac7f9e529bf121ebe45589f97ea7a5d6a0573a0bef0d2674001e858247d3fe613ca0c17a6b733979e6516af7fa8ef3ab63f87a9481df03f5cd0f415eab92e0593998dd288b02d583f863a05a2edcbe00c7f2a4054eb642539fc70f3b18e636eee4a800a307d1b38bf2cf6fa0bb923a5c3ae3b14becbfc2ce1f9bcac3ac7f9e529bf121ebe45589f97ea7a5d6a0573a0bef0d2674001e858247d3fe613ca0c17a6b733979e6516af7fa8ef3ab63f87a943c465948c080239deecabc2b8a7fccbe4130b3e6f863a05a2edcbe00c7f2a4054eb642539fc70f3b18e636eee4a800a307d1b38bf2cf6fa0bb923a5c3ae3b14becbfc2ce1f9bcac3ac7f9e529bf121ebe45589f97ea7a5d6a0573a0bef0d2674001e858247d3fe613ca0c17a6b733979e6516af7fa8ef3ab6301a064350fdd5b0717601b507c0410f8a25a0ccff20b4a115f4a8c7a28c58ecc3dfaa051bc8995e9efdda5827a80f344795b2e31fca28aebee4834ad58d8870d275717",
  "signedLondon": "0x02f9027183ae7cc081e61185da446911bd809402ca24bf68010e087c89fbbbba726265f75f453f84e1df00a8928dc99057177cbea0fcc2e52f03fd99ae750cf901f0f87a949a39070f38d75e2c56dbb0f5992f87d4b8c4516ff863a05a2edcbe00c7f2a4054eb642539fc70f3b18e636eee4a800a307d1b38bf2cf6fa0bb923a5c3ae3b14becbfc2ce1f9bcac3ac7f9e529bf121ebe45589f97ea7a5d6a0573a0bef0d2674001e858247d3fe613ca0c17a6b733979e6516af7fa8ef3ab63f87a94727e5f27d18f70fda8f234082421872b68c3dda0f863a05a2edcbe00c7f2a4054eb642539fc70f3b18e636eee4a800a307d1b38bf2cf6fa0bb923a5c3ae3b14becbfc2ce1f9bcac3ac7f9e529bf121ebe45589f97ea7a5d6a0573a0bef0d2674001e858247d3fe613ca0c17a6b733979e6516af7fa8ef3ab63f87a9481df03f5cd0f415eab92e0593998dd288b02d583f863a05a2edcbe00c7f2a4054eb642539fc70f3b18e636eee4a800a307d1b38bf2cf6fa0bb923a5c3ae3b14becbfc2ce1f9bcac3ac7f9e529bf121ebe45589f97ea7a5d6a0573a0bef0d2674001e858247d3fe613ca0c17a6b733979e6516af7fa8ef3ab63f87a943c465948c080239deecabc2b8a7fccbe4130b3e6f863a05a2edcbe00c7f2a4054eb642539fc70f3b18e636eee4a800a307d1b38bf2cf6fa0bb923a5c3ae3b14becbfc2ce1f9bcac3ac7f9e529bf121ebe45589f97ea7a5d6a0573a0bef0d2674001e858247d3fe613ca0c17a6b733979e6516af7fa8ef3ab6301a01d06c14967e15a4a018f35c18335b30d992c9a5892dd9ba25ca66d9bcc5287e4a0330b53ccc6f8ea46d3105d158fe2776ddb8a5f69d379aa81214aff57f7170bb3"
}
