{
  "name": "random-3",
  "transaction": {
    "to": "0x8Bee13B1D7E29953a7484A3aE8e344D86b4Ad2C5",
    "nonce": 530,
    "gasLimit": "0xccb4",
    "gasPrice": "0x18956c24",
    "maxFeePerGas": "0x57f3c57a41",
    "maxPriorityFeePerGas": "0x5a492a",
    "data": "0x4c4aaeceaa35f9cd275639e2319057a18f3c4d8bf242707b08a1a2a32531d3975a4dc67b8a92f5a11adbf12b6f8d8809d1544aed6f9da9b1f5e753307165e3e85afdbd",
    "value": "0x3b04",
    "accessList": [],
    "chainId": "0xb3",
    "maxFeePerBlobGas": "0x7b0f34f9",
    "blobVersionedHashes": [
      "0x01b64c9600d28c83309131198d984f79284d6e2a5dd8ffeebc05f8bdcc21b03b",
      "0x013305753b09589c2a8015bb6f975e2654a2164a41dc51812a439560bdd6d16d",
      "0x013e6ffbf81a5911cc365712aa5511e93c28b14e4ead53ac786db6506caa1b4a",
      "0x0146c688afbb49d2c0798642bbdbe25bfe7cdaa37632c32023aacce933f48dae"
    ]
  },
  "privateKey": "0xa9e5fdc17c2302fce888f2dc9d6ec2b3d3fc06aa212ec06b07f4035f64fcc58f",
  "unsignedLegacy": "0xf8688202128418956c2482ccb4948bee13b1d7e29953a7484a3ae8e344d86b4ad2c5823b04b8434c4aaeceaa35f9cd275639e2319057a18f3c4d8bf242707b08a1a2a32531d3975a4dc67b8a92f5a11adbf12b6f8d8809d1544aed6f9da9b1f5e753307165e3e85afdbd",
  "unsignedEip155": "0xf86c8202128418956c2482ccb4948bee13b1d7e29953a7484a3ae8e344d86b4ad2c5823b04b8434c4aaeceaa35f9cd275639e2319057a18f3c4d8bf242707b08a1a2a32531d3975a4dc67b8a92f5a11adbf12b6f8d8809d1544aed6f9da9b1f5e753307165e3e85afdbd81b38080",
  "unsignedBerlin": "0x01f86b81b38202128418956c2482ccb4948bee13b1d7e29953a7484a3ae8e344d86b4ad2c5823b04b8434c4aaeceaa35f9cd275639e2319057a18f3c4d8bf242707b08a1a2a32531d3975a4dc67b8a92f5a11adbf12b6f8d8809d1544aed6f9da9b1f5e753307165e3e85afdbdc0",
  "unsignedLondon": "0x02f87081b3820212835a492a8557f3c57a4182ccb4948bee13b1d7e29953a7484a3ae8e344d86b4ad2c5823b04b8434c4aaeceaa35f9cd275639e2319057a18f3c4d8bf242707b08a1a2a32531d3975a4dc67b8a92f5a11adbf12b6f8d8809d1544aed6f9da9b1f5e753307165e3e85afdbdc0",
  "unsignedCancun": "0x03f8fb81b3820212835a492a8557f3c57a4182ccb4948bee13b1d7e29953a7484a3ae8e344d86b4ad2c5823b04b8434c4aaeceaa35f9cd275639e2319057a18f3c4d8bf242707b08a1a2a32531d3975a4dc67b8a92f5a11adbf12b6f8d8809d1544aed6f9da9b1f5e753307165e3e85afdbdc0847b0f34f9f884a001b64c9600d28c83309131198d984f79284d6e2a5dd8ffeebc05f8bdcc21b03ba0013305753b09589c2a8015bb6f975e2654a2164a41dc51812a439560bdd6d16da0013e6ffbf81a5911cc365712aa5511e93c28b14e4ead53ac786db6506caa1b4aa00146c688afbb49d2c0798642bbdbe25bfe7cdaa37632c32023aacce933f48dae",
  "signedLegacy": "0xf8ab8202128418956c2482ccb4948bee13b1d7e29953a7484a3ae8e344d86b4ad2c5823b04b8434c4aaeceaa35f9cd275639e2319057a18f3c4d8bf242707b08a1a2a32531d3975a4dc67b8a92f5a11adbf12b6f8d8809d1544aed6f9da9b1f5e753307165e3e85afdbd1ca07be350194f44b6a86cd7199f2c6a2dea34815d20abbd0f389cf3c55ef5a13566a0239482099fd9289999f06db6fb95194ac1a92fcd13c1639d2e99e3b66ab2f0b1",
  "signedEip155": "0xf8ad8202128418956c2482ccb4948bee13b1d7e29953a7484a3ae8e344d86b4ad2c5823b04b8434c4aaeceaa35f9cd275639e2319057a18f3c4d8bf242707b08a1a2a32531d3975a4dc67b8a92f5a11adbf12b6f8d8809d1544aed6f9da9b1f5e753307165e3e85afdbd820189a0541bc2b78ae53dd11ac2c9845fe30878c493d34311513dfda43a92dbee1b4121a03f4ff8d77c247fc2238c02e2d5ca68dcd77e8f7a20d0d2f99145925af07beec0",
  "signedBerlin": "0x01f8ae81b38202128418956c2482ccb4948bee13b1d7e29953a7484a3ae8e344d86b4ad2c5823b04b8434c4aaeceaa35f9cd275639e2319057a18f3c4d8bf242707b08a1a2a32531d3975a4dc67b8a92f5a11adbf12b6f8d8809d1544aed6f9da9b1f5e753307165e3e85afdbdc001a035a7324dd7552976ee86c94623e89be43fddfa1ceed1354822a33726db13d9fba047347aee2460910314bbf20fbc091befb91a0ac236d30905312f828af49b2420",
  "signedLondon": "0x02f8b381b3820212835a492a8557f3c57a4182ccb4948bee13b1d7e29953a7484a3ae8e344d86b4ad2c5823b04b8434c4aaeceaa35f9cd275639e2319057a18f3c4d8bf242707b08a1a2a32531d3975a4dc67b8a92f5a11adbf12b6f8d8809d1544aed6f9da9b1f5e753307165e3e85afdbdc080a0c458cee1b97cfb1f6fa52b2adaa135d8501d63ba908c113f48796d40884496b1a03abaf292f68e0fc6a5c1012455d49d2d566cb4cf2eeebc8d52f1f5e3e20c808b",
  "signedCancun": "0x03f9013e81b3820212835a492a8557f3c57a4182ccb4948bee13b1d7e29953a7484a3ae8e344d86b4ad2c5823b04b8434c4aaeceaa35f9cd275639e2319057a18f3c4d8bf242707b08a1a2a32531d3975a4dc67b8a92f5a11adbf12b6f8d8809d1544aed6f9da9b1f5e753307165e3e85afdbdc0847b0f34f9f884a001b64c9600d28c83309131198d984f79284d6e2a5dd8ffeebc05f8bdcc21b03ba0013305753b09589c2a8015bb6f975e2654a2164a41dc51812a439560bdd6d16da0013e6ffbf81a5911cc365712aa5511e93c28b14e4ead53ac786db6506caa1b4aa00146c688afbb49d2c0798642bbdbe25bfe7cdaa37632c32023aacce933f48dae01a0fb445840df9e94369942979f7c47b640f948a2fe812b497350ce00a04d0205ffa02c555565381a70547f13b807647a202705f67535104fa92524c5bd5507ba010f",
  "signatureLegacy": {
    "r": "0x7be350194f44b6a86cd7199f2c6a2dea34815d20abbd0f389cf3c55ef5a13566",
    "s": "0x239482099fd9289999f06db6fb95194ac1a92fcd13c1639d2e99e3b66ab2f0b1",
    "v": "0x1c"
  },
  "signatureEip155": {
    "r": "0x541bc2b78ae53dd11ac2c9845fe30878c493d34311513dfda43a92dbee1b4121",
    "s": "0x3f4ff8d77c247fc2238c02e2d5ca68dcd77e8f7a20d0d2f99145925af07beec0",
    "v": "0x189"
  },
  "signatureBerlin": {
    "r": "0x35a7324dd7552976ee86c94623e89be43fddfa1ceed1354822a33726db13d9fb",
    "s": "0x47347aee2460910314bbf20fbc091befb91a0ac236d30905312f828af49b2420",
    "v": "0x1"
  },
  "signatureLondon": {
    "r": "0xc458cee1b97cfb1f6fa52b2adaa135d8501d63ba908c113f48796d40884496b1",
    "s": "0x3abaf292f68e0fc6a5c1012455d49d2d566cb4cf2eeebc8d52f1f5e3e20c808b",
    "v": "0x0"
  },
  "signatureCancun": {
    "r": "0xfb445840df9e94369942979f7c47b640f948a2fe812b497350ce00a04d0205ff",
    "s": "0x2c555565381a70547f13b807647a202705f67535104fa92524c5bd5507ba010f",
    "v": "0x1"
  }
}
