{
  "name": "random-20",
  "transaction": {
    "to": "0x60fc630156d46bf9b1bf5b7d251c6cbe64702bf3",
    "nonce": 812,
    "gasLimit": "0xe010",
    "gasPrice": "0xf841f1af",
    "maxFeePerGas": "0x5d39c221",
    "maxPriorityFeePerGas": "0xa5",
    "data": "0x4aee647daf6b789306d2daeb51be942c40d66194d5e0e9dca946aa830d686d493c1d1a07",
    "value": "0x",
    "accessList": [
      {
        "address": "0x36aaaa454aab9a9409b890c32e9304c42ec8b05a",
        "storageKeys": []
      },
      {
        "address": "0x7f7ac0f60be35f1e8f7c70a7aa5d596bc7648745",
        "storageKeys": []
      },
      {
        "address": "0xf9fb9bb09b08c0fa137e76615bbd50b5cc63bcc4",
        "storageKeys": []
      },
      {
        "address": "0x69c6c93f57a0c11a765f2b9076a9575c4b015d03",
        "storageKeys": []
      }
    ],
    "chainId": "0x"
  },
  "privateKey": "0x6efb2ce4981ad5555974b8b6b4f767d774c32f9e09e0009d5d914e29614ec739",
  "unsignedLegacy": "0xf84682032c84f841f1af82e0109460fc630156d46bf9b1bf5b7d251c6cbe64702bf380a44aee647daf6b789306d2daeb51be942c40d66194d5e0e9dca946aa830d686d493c1d1a07",
  "unsignedEip155": "0xf84982032c84f841f1af82e0109460fc630156d46bf9b1bf5b7d251c6cbe64702bf380a44aee647daf6b789306d2daeb51be942c40d66194d5e0e9dca946aa830d686d493c1d1a07008080",
  "unsignedBerlin": "0x01f8a58082032c84f841f1af82e0109460fc630156d46bf9b1bf5b7d251c6cbe64702bf380a44aee647daf6b789306d2daeb51be942c40d66194d5e0e9dca946aa830d686d493c1d1a07f85cd69436aaaa454aab9a9409b890c32e9304c42ec8b05ac0d6947f7ac0f60be35f1e8f7c70a7aa5d596bc7648745c0d694f9fb9bb09b08c0fa137e76615bbd50b5cc63bcc4c0d69469c6c93f57a0c11a765f2b9076a9575c4b015d03c0",
  "unsignedLondon": "0x02f8a78082032c81a5845d39c22182e0109460fc630156d46bf9b1bf5b7d251c6cbe64702bf380a44aee647daf6b789306d2daeb51be942c40d66194d5e0e9dca946aa830d686d493c1d1a07f85cd69436aaaa454aab9a9409b890c32e9304c42ec8b05ac0d6947f7ac0f60be35f1e8f7c70a7aa5d596bc7648745c0d694f9fb9bb09b08c0fa137e76615bbd50b5cc63bcc4c0d69469c6c93f57a0c11a765f2b9076a9575c4b015d03c0",
  "signedLegacy": "0xf88982032c84f841f1af82e0109460fc630156d46bf9b1bf5b7d251c6cbe64702bf380a44aee647daf6b789306d2daeb51be942c40d66194d5e0e9dca946aa830d686d493c1d1a071ca056e4893c9645ab752228ebc7b243165708ff7e74f06534088412af3cae50a3f8a06798fc00071a027f93c089be84844f0d9c50012ec5b113dead31a831f2dbde16",
  "signedEip155": "0xf88982032c84f841f1af82e0109460fc630156d46bf9b1bf5b7d251c6cbe64702bf380a44aee647daf6b789306d2daeb51be942c40d66194d5e0e9dca946aa830d686d493c1d1a0723a0b99cefa21278e0bb4cf87bcfe52f6b5a1ea3c1401a5a16caa5a94c665419286ba012550d12cabb460f14e6acbfd6809f0dff906bfbe82d184d68ce3fbb6c5a97a5",
  "signedBerlin": "0x01f8e88082032c84f841f1af82e0109460fc630156d46bf9b1bf5b7d251c6cbe64702bf380a44aee647daf6b789306d2daeb51be942c40d66194d5e0e9dca946aa830d686d493c1d1a07f85cd69436aaaa454aab9a9409b890c32e9304c42ec8b05ac0d6947f7ac0f60be35f1e8f7c70a7aa5d596bc7648745c0d694f9fb9bb09b08c0fa137e76615bbd50b5cc63bcc4c0d69469c6c93f57a0c11a765f2b9076a9575c4b015d03c001a09a8caf669e298b7567b976859de95d6d293c8177b0bbf13a333f3bcde23b0327a0504d077a818bf4960c99dab39e0295354fa4bb84afb9e247d834115b54371a23",
  "signedLondon": "0x02f8ea8082032c81a5845d39c22182e0109460fc630156d46bf9b1bf5b7d251c6cbe64702bf380a44aee647daf6b789306d2daeb51be942c40d66194d5e0e9dca946aa830d686d493c1d1a07f85cd69436aaaa454aab9a9409b890c32e9304c42ec8b05ac0d6947f7ac0f60be35f1e8f7c70a7aa5d596bc7648745c0d694f9fb9bb09b08c0fa137e76615bbd50b5cc63bcc4c0d69469c6c93f57a0c11a765f2b9076a9575c4b015d03c080a0f3c8f22da0ead129a77363013846bfe73f079d54df78a3d74d8c90d8007898c2a007498d6d995ac68b96a4c5bd7a857635a4cea6f5206154fce02ef9e98f4edc3f"
}
