{
  "name": "random-17",
  "transaction": {
    "to": "0x7b9830530eFD81a5BB21Ed03A1E20ac977c13003",
    "nonce": 103,
    "gasLimit": "0xa193e9",
    "gasPrice": "0xfcb9",
    "maxFeePerGas": "0x9288e311910556",
    "maxPriorityFeePerGas": "0xac",
    "data": "0xee2035dab48b94002f3fa4ba662590127a2fcb9e978af4",
    "value": "0xf9eff8",
    "accessList": [
      {
        "address": "0x469ED43B08A100e13e84b7746fA7206d3A11a5F7",
        "storageKeys": [
          "0x434cab87455b41c8023691c4e836ec1e1d90fd639e1207274b07574059394950",
          "0x56498d76fcc165010f94437317015d8a9a939ab1fd21216c5fcfed335f5d6ad5",
          "0xe83f7815e6bf7d521dd0341e9445415ab565b2471ab4dbbf0a0ddcc564bdb94e"
        ]
      },
      {
        "address": "0x588C330B029E06B820Dfb1d3a5b774EdcF6a9FEE",
        "storageKeys": [
          "0x434cab87455b41c8023691c4e836ec1e1d90fd639e1207274b07574059394950",
          "0x56498d76fcc165010f94437317015d8a9a939ab1fd21216c5fcfed335f5d6ad5",
          "0xe83f7815e6bf7d521dd0341e9445415ab565b2471ab4dbbf0a0ddcc564bdb94e"
        ]
      },
      {
        "address": "0xd7Bb918eB068B37E44b12A19402F5112dE656566",
        "storageKeys": [
          "0x434cab87455b41c8023691c4e836ec1e1d90fd639e1207274b07574059394950",
          "0x56498d76fcc165010f94437317015d8a9a939ab1fd21216c5fcfed335f5d6ad5",
          "0xe83f7815e6bf7d521dd0341e9445415ab565b2471ab4dbbf0a0ddcc564bdb94e"
        ]
      },
      {
        "address": "0x29EFB653e6b98eA36995EC81968b0EAC36678A60",
        "storageKeys": [
          "0x434cab87455b41c8023691c4e836ec1e1d90fd639e1207274b07574059394950",
          "0x56498d76fcc165010f94437317015d8a9a939ab1fd21216c5fcfed335f5d6ad5",
          "0xe83f7815e6bf7d521dd0341e9445415ab565b2471ab4dbbf0a0ddcc564bdb94e"
        ]
      }
    ],
    "chainId": "0x6653a6",
    "maxFeePerBlobGas": "0xe34d8405aa",
    "blobVersionedHashes": [
      "0x01bd0963b45ef67408366b1293b5f94b4fb19340d15f8337a4512a83ae40004d",
      "0x013058ace831dd6002ac010bbe261fa4b1087a1a22ef376e8af21c68881cd6a6",
      "0x01529e39d8bda59658a661cd10747b680b8f944a5f4276f794859265c718c25c",
      "0x010b500df39903a4f96523b8fc5e742898222ec23fcc06facf7384ebd6712236",
      "0x01d8fc2341c6b3a4c2aa2aba23344939f851119c19299c9aac4594425577e5ee"
    ]
  },
  "privateKey": "0x58f3d57fde2c0dae771d5cb66092b8905ba5691226740d7398459c60712a5793",
  "unsignedLegacy": "0xf8396782fcb983a193e9947b9830530efd81a5bb21ed03a1e20ac977c1300383f9eff897ee2035dab48b94002f3fa4ba662590127a2fcb9e978af4",
  "unsignedEip155": "0xf83f6782fcb983a193e9947b9830530efd81a5bb21ed03a1e20ac977c1300383f9eff897ee2035dab48b94002f3fa4ba662590127a2fcb9e978af4836653a68080",
  "unsignedBerlin": "0x01f90230836653a66782fcb983a193e9947b9830530efd81a5bb21ed03a1e20ac977c1300383f9eff897ee2035dab48b94002f3fa4ba662590127a2fcb9e978af4f901f0f87a94469ed43b08a100e13e84b7746fa7206d3a11a5f7f863a0434cab87455b41c8023691c4e836ec1e1d90fd639e1207274b07574059394950a056498d76fcc165010f94437317015d8a9a939ab1fd21216c5fcfed335f5d6ad5a0e83f7815e6bf7d521dd0341e9445415ab565b2471ab4dbbf0a0ddcc564bdb94ef87a94588c330b029e06b820dfb1d3a5b774edcf6a9feef863a0434cab87455b41c8023691c4e836ec1e1d90fd639e1207274b07574059394950a056498d76fcc165010f94437317015d8a9a939ab1fd21216c5fcfed335f5d6ad5a0e83f7815e6bf7d521dd0341e9445415ab565b2471ab4dbbf0a0ddcc564bdb94ef87a94d7bb918eb068b37e44b12a19402f5112de656566f863a0434cab87455b41c8023691c4e836ec1e1d90fd639e1207274b07574059394950a056498d76fcc165010f94437317015d8a9a939ab1fd21216c5fcfed335f5d6ad5a0e83f7815e6bf7d521dd0341e9445415ab565b2471ab4dbbf0a0ddcc564bdb94ef87a9429efb653e6b98ea36995ec81968b0eac36678a60f863a0434cab87455b41c8023691c4e836ec1e1d90fd639e1207274b07574059394950a056498d76fcc165010f94437317015d8a9a939ab1fd21216c5fcfed335f5d6ad5a0e83f7815e6bf7d521dd0341e9445415ab565b2471ab4dbbf0a0ddcc564bdb94e",
  "unsignedLondon": "0x02f90237836653a66781ac879288e31191055683a193e9947b9830530efd81a5bb21ed03a1e20ac977c1300383f9eff897ee2035dab48b94002f3fa4ba662590127a2fcb9e978af4f901f0f87a94469ed43b08a100e13e84b7746fa7206d3a11a5f7f863a0434cab87455b41c8023691c4e836ec1e1d90fd639e1207274b07574059394950a056498d76fcc165010f94437317015d8a9a939ab1fd21216c5fcfed335f5d6ad5a0e83f7815e6bf7d521dd0341e9445415ab565b2471ab4dbbf0a0ddcc564bdb94ef87a94588c330b029e06b820dfb1d3a5b774edcf6a9feef863a0434cab87455b41c8023691c4e836ec1e1d90fd639e1207274b07574059394950a056498d76fcc165010f94437317015d8a9a939ab1fd21216c5fcfed335f5d6ad5a0e83f7815e6bf7d521dd0341e9445415ab565b2471ab4dbbf0a0ddcc564bdb94ef87a94d7bb918eb068b37e44b12a19402f5112de656566f863a0434cab87455b41c8023691c4e836ec1e1d90fd639e1207274b07574059394950a056498d76fcc165010f94437317015d8a9a939ab1fd21216c5fcfed335f5d6ad5a0e83f7815e6bf7d521dd0341e9445415ab565b2471ab4dbbf0a0ddcc564bdb94ef87a9429efb653e6b98ea36995ec81968b0eac36678a60f863a0434cab87455b41c8023691c4e836ec1e1d90fd639e1207274b07574059394950a056498d76fcc165010f94437317015d8a9a939ab1fd21216c5fcfed335f5d6ad5a0e83f7815e6bf7d521dd0341e9445415ab565b2471ab4dbbf0a0ddcc564bdb94e",
  "unsignedCancun": "0x03f902e4836653a66781ac879288e31191055683a193e9947b9830530efd81a5bb21ed03a1e20ac977c1300383f9eff897ee2035dab48b94002f3fa4ba662590127a2fcb9e978af4f901f0f87a94469ed43b08a100e13e84b7746fa7206d3a11a5f7f863a0434cab87455b41c8023691c4e836ec1e1d90fd639e1207274b07574059394950a056498d76fcc165010f94437317015d8a9a939ab1fd21216c5fcfed335f5d6ad5a0e83f7815e6bf7d521dd0341e9445415ab565b2471ab4dbbf0a0ddcc564bdb94ef87a94588c330b029e06b820dfb1d3a5b774edcf6a9feef863a0434cab87455b41c8023691c4e836ec1e1d90fd639e1207274b07574059394950a056498d76fcc165010f94437317015d8a9a939ab1fd21216c5fcfed335f5d6ad5a0e83f7815e6bf7d521dd0341e9445415ab565b2471ab4dbbf0a0ddcc564bdb94ef87a94d7bb918eb068b37e44b12a19402f5112de656566f863a0434cab87455b41c8023691c4e836ec1e1d90fd639e1207274b07574059394950a056498d76fcc165010f94437317015d8a9a939ab1fd21216c5fcfed335f5d6ad5a0e83f7815e6bf7d521dd0341e9445415ab565b2471ab4dbbf0a0ddcc564bdb94ef87a9429efb653e6b98ea36995ec81968b0eac36678a60f863a0434cab87455b41c8023691c4e836ec1e1d90fd639e1207274b07574059394950a056498d76fcc165010f94437317015d8a9a939ab1fd21216c5fcfed335f5d6ad5a0e83f7815e6bf7d521dd0341e9445415ab565b2471ab4dbbf0a0ddcc564bdb94e85e34d8405aaf8a5a001bd0963b45ef67408366b1293b5f94b4fb19340d15f8337a4512a83ae40004da0013058ace831dd6002ac010bbe261fa4b1087a1a22ef376e8af21c68881cd6a6a001529e39d8bda59658a661cd10747b680b8f944a5f4276f794859265c718c25ca0010b500df39903a4f96523b8fc5e742898222ec23fcc06facf7384ebd6712236a001d8fc2341c6b3a4c2aa2aba23344939f851119c19299c9aac4594425577e5ee",
  "signedLegacy": "0xf87c6782fcb983a193e9947b9830530efd81a5bb21ed03a1e20ac977c1300383f9eff897ee2035dab48b94002f3fa4ba662590127a2fcb9e978af41ca0b889cf400786bc43a9bc32317a5368a1f0898b5f60fec9c4da7931867fe5c3fca06dd97c8b894c3a14ec5099eaa39b76f369f49c0ad9330dd852f797b22fb6962e",
  "signedEip155": "0xf87f6782fcb983a193e9947b9830530efd81a5bb21ed03a1e20ac977c1300383f9eff897ee2035dab48b94002f3fa4ba662590127a2fcb9e978af483cca770a04ad07bd0c147962802aee8e943f48a5adfadbc5d14c502e10fe108b6a3206691a039150202e4bacfbda9757c56c93858d0dc2ae5c36d69e7f5d61e6d2fb9a4d7e0",
  "signedBerlin": "0x01f90273836653a66782fcb983a193e9947b9830530efd81a5bb21ed03a1e20ac977c1300383f9eff897ee2035dab48b94002f3fa4ba662590127a2fcb9e978af4f901f0f87a94469ed43b08a100e13e84b7746fa7206d3a11a5f7f863a0434cab87455b41c8023691c4e836ec1e1d90fd639e1207274b07574059394950a056498d76fcc165010f94437317015d8a9a939ab1fd21216c5fcfed335f5d6ad5a0e83f7815e6bf7d521dd0341e9445415ab565b2471ab4dbbf0a0ddcc564bdb94ef87a94588c330b029e06b820dfb1d3a5b774edcf6a9feef863a0434cab87455b41c8023691c4e836ec1e1d90fd639e1207274b07574059394950a056498d76fcc165010f94437317015d8a9a939ab1fd21216c5fcfed335f5d6ad5a0e83f7815e6bf7d521dd0341e9445415ab565b2471ab4dbbf0a0ddcc564bdb94ef87a94d7bb918eb068b37e44b12a19402f5112de656566f863a0434cab87455b41c8023691c4e836ec1e1d90fd639e1207274b07574059394950a056498d76fcc165010f94437317015d8a9a939ab1fd21216c5fcfed335f5d6ad5a0e83f7815e6bf7d521dd0341e9445415ab565b2471ab4dbbf0a0ddcc564bdb94ef87a9429efb653e6b98ea36995ec81968b0eac36678a60f863a0434cab87455b41c8023691c4e836ec1e1d90fd639e1207274b07574059394950a056498d76fcc165010f94437317015d8a9a939ab1fd21216c5fcfed335f5d6ad5a0e83f7815e6bf7d521dd0341e9445415ab565b2471ab4dbbf0a0ddcc564bdb94e80a0bbeb29da87bb1efcc76efc18dc3fb4d06c2fbe9d0a8695e3bc887f84ab35796ea046f04724d13b40f6e5f8ca963862c821857f58772169706ab4a286feec54196f",
  "signedLondon": "0x02f9027a836653a66781ac879288e31191055683a193e9947b9830530efd81a5bb21ed03a1e20ac977c1300383f9eff897ee2035dab48b94002f3fa4ba662590127a2fcb9e978af4f901f0f87a94469ed43b08a100e13e84b7746fa7206d3a11a5f7f863a0434cab87455b41c8023691c4e836ec1e1d90fd639e1207274b07574059394950a056498d76fcc165010f94437317015d8a9a939ab1fd21216c5fcfed335f5d6ad5a0e83f7815e6bf7d521dd0341e9445415ab565b2471ab4dbbf0a0ddcc564bdb94ef87a94588c330b029e06b820dfb1d3a5b774edcf6a9feef863a0434cab87455b41c8023691c4e836ec1e1d90fd639e1207274b07574059394950a056498d76fcc165010f94437317015d8a9a939ab1fd21216c5fcfed335f5d6ad5a0e83f7815e6bf7d521dd0341e9445415ab565b2471ab4dbbf0a0ddcc564bdb94ef87a94d7bb918eb068b37e44b12a19402f5112de656566f863a0434cab87455b41c8023691c4e836ec1e1d90fd639e1207274b07574059394950a056498d76fcc165010f94437317015d8a9a939ab1fd21216c5fcfed335f5d6ad5a0e83f7815e6bf7d521dd0341e9445415ab565b2471ab4dbbf0a0ddcc564bdb94ef87a9429efb653e6b98ea36995ec81968b0eac36678a60f863a0434cab87455b41c8023691c4e836ec1e1d90fd639e1207274b07574059394950a056498d76fcc165010f94437317015d8a9a939ab1fd21216c5fcfed335f5d6ad5a0e83f7815e6bf7d521dd0341e9445415ab565b2471ab4dbbf0a0ddcc564bdb94e80a0d6593cf036acec58fa43ac9b1a19b961b26acf1b27f23ed3cfa5fc2dd63b1b73a06cf24189b044480b469c1b6bbe97bd3caf522e0a9c141d9d8a5b7e5ad225bebc",
  "signedCancun": "0x03f90327836653a66781ac879288e31191055683a193e9947b9830530efd81a5bb21ed03a1e20ac977c1300383f9eff897ee2035dab48b94002f3fa4ba662590127a2fcb9e978af4f901f0f87a94469ed43b08a100e13e84b7746fa7206d3a11a5f7f863a0434cab87455b41c8023691c4e836ec1e1d90fd639e1207274b07574059394950a056498d76fcc165010f94437317015d8a9a939ab1fd21216c5fcfed335f5d6ad5a0e83f7815e6bf7d521dd0341e9445415ab565b2471ab4dbbf0a0ddcc564bdb94ef87a94588c330b029e06b820dfb1d3a5b774edcf6a9feef863a0434cab87455b41c8023691c4e836ec1e1d90fd639e1207274b07574059394950a056498d76fcc165010f94437317015d8a9a939ab1fd21216c5fcfed335f5d6ad5a0e83f7815e6bf7d521dd0341e9445415ab565b2471ab4dbbf0a0ddcc564bdb94ef87a94d7bb918eb068b37e44b12a19402f5112de656566f863a0434cab87455b41c8023691c4e836ec1e1d90fd639e1207274b07574059394950a056498d76fcc165010f94437317015d8a9a939ab1fd21216c5fcfed335f5d6ad5a0e83f7815e6bf7d521dd0341e9445415ab565b2471ab4dbbf0a0ddcc564bdb94ef87a9429efb653e6b98ea36995ec81968b0eac36678a60f863a0434cab87455b41c8023691c4e836ec1e1d90fd639e1207274b07574059394950a056498d76fcc165010f94437317015d8a9a939ab1fd21216c5fcfed335f5d6ad5a0e83f7815e6bf7d521dd0341e9445415ab565b2471ab4dbbf0a0ddcc564bdb94e85e34d8405aaf8a5a001bd0963b45ef67408366b1293b5f94b4fb19340d15f8337a4512a83ae40004da0013058ace831dd6002ac010bbe261fa4b1087a1a22ef376e8af21c68881cd6a6a001529e39d8bda59658a661cd10747b680b8f944a5f4276f794859265c718c25ca0010b500df39903a4f96523b8fc5e742898222ec23fcc06facf7384ebd6712236a001d8fc2341c6b3a4c2aa2aba23344939f851119c19299c9aac4594425577e5ee01a0cff1301e6d636143fc801005349c6d64687f4e6d0c3cf0efcaf4f04863adb321a00f46aa1d9c1c2006e42981f19e75db3c5087f7535b759faabafa3642cde03879",
  "signatureLegacy": {
    "r": "0xb889cf400786bc43a9bc32317a5368a1f0898b5f60fec9c4da7931867fe5c3fc",
    "s": "0x6dd97c8b894c3a14ec5099eaa39b76f369f49c0ad9330dd852f797b22fb6962e",
    "v": "0x1c"
  },
  "signatureEip155": {
    "r": "0x4ad07bd0c147962802aee8e943f48a5adfadbc5d14c502e10fe108b6a3206691",
    "s": "0x39150202e4bacfbda9757c56c93858d0dc2ae5c36d69e7f5d61e6d2fb9a4d7e0",
    "v": "0xcca770"
  },
  "signatureBerlin": {
    "r": "0xbbeb29da87bb1efcc76efc18dc3fb4d06c2fbe9d0a8695e3bc887f84ab35796e",
    "s": "0x46f04724d13b40f6e5f8ca963862c821857f58772169706ab4a286feec54196f",
    "v": "0x0"
  },
  "signatureLondon": {
    "r": "0xd6593cf036acec58fa43ac9b1a19b961b26acf1b27f23ed3cfa5fc2dd63b1b73",
    "s": "0x6cf24189b044480b469c1b6bbe97bd3caf522e0a9c141d9d8a5b7e5ad225bebc",
    "v": "0x0"
  },
  "signatureCancun": {
    "r": "0xcff1301e6d636143fc801005349c6d64687f4e6d0c3cf0efcaf4f04863adb321",
    "s": "0x0f46aa1d9c1c2006e42981f19e75db3c5087f7535b759faabafa3642cde03879",
    "v": "0x1"
  }
}
