{
  "name": "random-12",
  "transaction": {
    "to": "0x4f18b878b82c8931c4a6d67fc28b857aaff6d764",
    "nonce": 547,
    "gasLimit": "0xfa26c05691",
    "gasPrice": "0x892d19ea64",
    "maxFeePerGas": "0x6bf86f84",
    "maxPriorityFeePerGas": "0xf627",
    "data": "0x57d10e77f6d8cd44acf5914b7b73eca98b9afe235e07b9db2d1712c4adc287e3e474a377404de19203f5127b676c88c839a76e15e665f183709a3460025556e5fd5f2a2f17f8",
    "value": "0x64660ccd",
    "accessList": [
      {
        "address": "0x275677ef49d8315ed641fe3b6519c4dc3f099112",
        "storageKeys": [
          "0x819da32335b67b104a5c786c41f2811e1167a1245b4998eb9297d0b777db457b",
          "0xb76e298e9f4a7cb7e30809076edbb99bcbc310ec27d7a563cbc24cddd0a2ae6d"
        ]
      },
      {
        "address": "0xa02363d8a2921bf57f7dc48b42ccc04548554e81",
        "storageKeys": [
          "0x819da32335b67b104a5c786c41f2811e1167a1245b4998eb9297d0b777db457b",
          "0xb76e298e9f4a7cb7e30809076edbb99bcbc310ec27d7a563cbc24cddd0a2ae6d"
        ]
      },
      {
        "address": "0x8d6796be448ceff2333157dee56c74af0afb0bd5",
        "storageKeys": [
          "0x819da32335b67b104a5c786c41f2811e1167a1245b4998eb9297d0b777db457b",
          "0xb76e298e9f4a7cb7e30809076edbb99bcbc310ec27d7a563cbc24cddd0a2ae6d"
        ]
      }
    ],
    "chainId": "0x44af2c"
  },
  "privateKey": "0x3d04ff4d2657142a58d3cc787e089ca7f20a6b66776ed5b04dc9d4dceef253d7",
  "unsignedLegacy": "0xf87182022385892d19ea6485fa26c05691944f18b878b82c8931c4a6d67fc28b857aaff6d7648464660ccdb84657d10e77f6d8cd44acf5914b7b73eca98b9afe235e07b9db2d1712c4adc287e3e474a377404de19203f5127b676c88c839a76e15e665f183709a3460025556e5fd5f2a2f17f8",
  "unsignedEip155": "0xf87782022385892d19ea6485fa26c05691944f18b878b82c8931c4a6d67fc28b857aaff6d7648464660ccdb84657d10e77f6d8cd44acf5914b7b73eca98b9afe235e07b9db2d1712c4adc287e3e474a377404de19203f5127b676c88c839a76e15e665f183709a3460025556e5fd5f2a2f17f88344af2c8080",
  "unsignedBerlin": "0x01f901898344af2c82022385892d19ea6485fa26c05691944f18b878b82c8931c4a6d67fc28b857aaff6d7648464660ccdb84657d10e77f6d8cd44acf5914b7b73eca98b9afe235e07b9db2d1712c4adc287e3e474a377404de19203f5127b676c88c839a76e15e665f183709a3460025556e5fd5f2a2f17f8f90111f85994275677ef49d8315ed641fe3b6519c4dc3f099112f842a0819da32335b67b104a5c786c41f2811e1167a1245b4998eb9297d0b777db457ba0b76e298e9f4a7cb7e30809076edbb99bcbc310ec27d7a563cbc24cddd0a2ae6df85994a02363d8a2921bf57f7dc48b42ccc04548554e81f842a0819da32335b67b104a5c786c41f2811e1167a1245b4998eb9297d0b777db457ba0b76e298e9f4a7cb7e30809076edbb99bcbc310ec27d7a563cbc24cddd0a2ae6df859948d6796be448ceff2333157dee56c74af0afb0bd5f842a0819da32335b67b104a5c786c41f2811e1167a1245b4998eb9297d0b777db457ba0b76e298e9f4a7cb7e30809076edbb99bcbc310ec27d7a563cbc24cddd0a2ae6d",
  "unsignedLondon": "0x02f9018b8344af2c82022382f627846bf86f8485fa26c05691944f18b878b82c8931c4a6d67fc28b857aaff6d7648464660ccdb84657d10e77f6d8cd44acf5914b7b73eca98b9afe235e07b9db2d1712c4adc287e3e474a377404de19203f5127b676c88c839a76e15e665f183709a3460025556e5fd5f2a2f17f8f90111f85994275677ef49d8315ed641fe3b6519c4dc3f099112f842a0819da32335b67b104a5c786c41f2811e1167a1245b4998eb9297d0b777db457ba0b76e298e9f4a7cb7e30809076edbb99bcbc310ec27d7a563cbc24cddd0a2ae6df85994a02363d8a2921bf57f7dc48b42ccc04548554e81f842a0819da32335b67b104a5c786c41f2811e1167a1245b4998eb9297d0b777db457ba0b76e298e9f4a7cb7e30809076edbb99bcbc310ec27d7a563cbc24cddd0a2ae6df859948d6796be448ceff2333157dee56c74af0afb0bd5f842a0819da32335b67b104a5c786c41f2811e1167a1245b4998eb9297d0b777db457ba0b76e298e9f4a7cb7e30809076edbb99bcbc310ec27d7a563cbc24cddd0a2ae6d",
  "signedLegacy": "0xf8b482022385892d19ea6485fa26c05691944f18b878b82c8931c4a6d67fc28b857aaff6d7648464660ccdb84657d10e77f6d8cd44acf5914b7b73eca98b9afe235e07b9db2d1712c4adc287e3e474a377404de19203f5127b676c88c839a76e15e665f183709a3460025556e5fd5f2a2f17f81ca01c1a043ba56d5a6edec9efd4b24695f996204caec12978d32bf086d8e21bcf96a04a5144d22ab0ddd5335bc3e1b22cd24e66bd742865f1a4447e2675ee00a2227f",
  "signedEip155": "0xf8b782022385892d19ea6485fa26c05691944f18b878b82c8931c4a6d67fc28b857aaff6d7648464660ccdb84657d10e77f6d8cd44acf5914b7b73eca98b9afe235e07b9db2d1712c4adc287e3e474a377404de19203f5127b676c88c839a76e15e665f183709a3460025556e5fd5f2a2f17f883895e7ca06d75cb007c3b91b7465c095e28b841d93da110bbb66280a0f5920083ad4e80f2a026b07e9427fd6dc320c23ced73fb8aae9872af808f20db04f0bb67287da0373b",
  "signedBerlin": "0x01f901cc8344af2c82022385892d19ea6485fa26c05691944f18b878b82c8931c4a6d67fc28b857aaff6d7648464660ccdb84657d10e77f6d8cd44acf5914b7b73eca98b9afe235e07b9db2d1712c4adc287e3e474a377404de19203f5127b676c88c839a76e15e665f183709a3460025556e5fd5f2a2f17f8f90111f85994275677ef49d8315ed641fe3b6519c4dc3f099112f842a0819da32335b67b104a5c786c41f2811e1167a1245b4998eb9297d0b777db457ba0b76e298e9f4a7cb7e30809076edbb99bcbc310ec27d7a563cbc24cddd0a2ae6df85994a02363d8a2921bf57f7dc48b42ccc04548554e81f842a0819da32335b67b104a5c786c41f2811e1167a1245b4998eb9297d0b777db457ba0b76e298e9f4a7cb7e30809076edbb99bcbc310ec27d7a563cbc24cddd0a2ae6df859948d6796be448ceff2333157dee56c74af0afb0bd5f842a0819da32335b67b104a5c786c41f2811e1167a1245b4998eb9297d0b777db457ba0b76e298e9f4a7cb7e30809076edbb99bcbc310ec27d7a563cbc24cddd0a2ae6d80a0f69b776f4eee48cf9a220abb4e132d2cd915b320e409fe99376535aa6984f69ea045b9071a002c820e368070525657f2cd47053ea600d24c1da75b7adbd076cfcf",
  "signedLondon": "0x02f901ce8344af2c82022382f627846bf86f8485fa26c05691944f18b878b82c8931c4a6d67fc28b857aaff6d7648464660ccdb84657d10e77f6d8cd44acf5914b7b73eca98b9afe235e07b9db2d1712c4adc287e3e474a377404de19203f5127b676c88c839a76e15e665f183709a3460025556e5fd5f2a2f17f8f90111f85994275677ef49d8315ed641fe3b6519c4dc3f099112f842a0819da32335b67b104a5c786c41f2811e1167a1245b4998eb9297d0b777db457ba0b76e298e9f4a7cb7e30809076edbb99bcbc310ec27d7a563cbc24cddd0a2ae6df85994a02363d8a2921bf57f7dc48b42ccc04548554e81f842a0819da32335b67b104a5c786c41f2811e1167a1245b4998eb9297d0b777db457ba0b76e298e9f4a7cb7e30809076edbb99bcbc310ec27d7a563cbc24cddd0a2ae6df859948d6796be448ceff2333157dee56c74af0afb0bd5f842a0819da32335b67b104a5c786c41f2811e1167a1245b4998eb9297d0b777db457ba0b76e298e9f4a7cb7e30809076edbb99bcbc310ec27d7a563cbc24cddd0a2ae6d01a074ffa09bd37c038326cebdd9794d5f90fe95aa9210e903fb6a5c44a735bbafc6a01605e0f1db258100a878445341892825483f14cfa7b9bde7bd001f4f3e6eed4a"
}
