{
  "name": "random-1",
  "transaction": {
    "to": "0x2e806e1f4b2c1bc500e41b882213648af39dd4a2",
    "nonce": 613,
    "gasLimit": "0x3a",
    "gasPrice": "0xf6",
    "maxFeePerGas": "0x76cf803ef8c9",
    "maxPriorityFeePerGas": "0x",
    "data": "0x09b2f1646d114507dfd02e070f634f12e64255aa189900c1c076d1a6ca7d1e65f09e",
    "value": "0xc5e4",
    "accessList": [],
    "chainId": "0xe929c0607c"
  },
  "privateKey": "0xdde87f54e7dc562364d8559a1777b684a9121d132c4b4237e2534bd5a090166c",
  "unsignedLegacy": "0xf84182026581f63a942e806e1f4b2c1bc500e41b882213648af39dd4a282c5e4a209b2f1646d114507dfd02e070f634f12e64255aa189900c1c076d1a6ca7d1e65f09e",
  "unsignedEip155": "0xf84982026581f63a942e806e1f4b2c1bc500e41b882213648af39dd4a282c5e4a209b2f1646d114507dfd02e070f634f12e64255aa189900c1c076d1a6ca7d1e65f09e85e929c0607c8080",
  "unsignedBerlin": "0x01f84885e929c0607c82026581f63a942e806e1f4b2c1bc500e41b882213648af39dd4a282c5e4a209b2f1646d114507dfd02e070f634f12e64255aa189900c1c076d1a6ca7d1e65f09ec0",
  "unsignedLondon": "0x02f84e85e929c0607c820265808676cf803ef8c93a942e806e1f4b2c1bc500e41b882213648af39dd4a282c5e4a209b2f1646d114507dfd02e070f634f12e64255aa189900c1c076d1a6ca7d1e65f09ec0",
  "signedLegacy": "0xf88482026581f63a942e806e1f4b2c1bc500e41b882213648af39dd4a282c5e4a209b2f1646d114507dfd02e070f634f12e64255aa189900c1c076d1a6ca7d1e65f09e1ba0c3b9a724407eaf4f0efcd9cc3a27993c06034b7738ae411c42529a457deaa4a6a06e46e768bcc1084a4f6a8045d71710e72725361d37b821723555c9556ddf6bcc",
  "signedEip155": "0xf88a82026581f63a942e806e1f4b2c1bc500e41b882213648af39dd4a282c5e4a209b2f1646d114507dfd02e070f634f12e64255aa189900c1c076d1a6ca7d1e65f09e8601d25380c11ca08e03101ff0d9e23eafc57c692aa7a326c2ed0d0d998933f1413c5886640fbf0da047b02276e8e478816963d4f64b7392773d1ae4e23ca96c6dae89e4884e1f82c0",
  "signedBerlin": "0x01f88b85e929c0607c82026581f63a942e806e1f4b2c1bc500e41b882213648af39dd4a282c5e4a209b2f1646d114507dfd02e070f634f12e64255aa189900c1c076d1a6ca7d1e65f09ec001a08aa60614bea8f0e4b3869af4ed43fa493e35ca280069472bfc18c9ca3c2c6023a03141944d9e925dceb4d6c951fb4cd5fea3f9dc6d5547261befa9219b0475c910",
  "signedLondon": "0x02f89185e929c0607c820265808676cf803ef8c93a942e806e1f4b2c1bc500e41b882213648af39dd4a282c5e4a209b2f1646d114507dfd02e070f634f12e64255aa189900c1c076d1a6ca7d1e65f09ec001a099087774408096c9bfdb78ad16fccc74ae307e11c1e22331d5867a5916316fe9a03448357384069c3234bd794f496324b40cfc3fa2f918247df825322b5afd5ced"
}
